{
  "contractName": "Auth",
  "abi": [
    {
      "inputs": [
        {
          "internalType": "address",
          "name": "_roleManagerAddress",
          "type": "address"
        }
      ],
      "stateMutability": "nonpayable",
      "type": "constructor"
    },
    {
      "inputs": [],
      "name": "AccessControlBadConfirmation",
      "type": "error"
    },
    {
      "inputs": [
        {
          "internalType": "address",
          "name": "account",
          "type": "address"
        },
        {
          "internalType": "bytes32",
          "name": "neededRole",
          "type": "bytes32"
        }
      ],
      "name": "AccessControlUnauthorizedAccount",
      "type": "error"
    },
    {
      "inputs": [
        {
          "internalType": "address",
          "name": "owner",
          "type": "address"
        }
      ],
      "name": "OwnableInvalidOwner",
      "type": "error"
    },
    {
      "inputs": [
        {
          "internalType": "address",
          "name": "account",
          "type": "address"
        }
      ],
      "name": "OwnableUnauthorizedAccount",
      "type": "error"
    },
    {
      "anonymous": false,
      "inputs": [
        {
          "indexed": true,
          "internalType": "address",
          "name": "previousOwner",
          "type": "address"
        },
        {
          "indexed": true,
          "internalType": "address",
          "name": "newOwner",
          "type": "address"
        }
      ],
      "name": "OwnershipTransferred",
      "type": "event"
    },
    {
      "anonymous": false,
      "inputs": [
        {
          "indexed": true,
          "internalType": "bytes32",
          "name": "role",
          "type": "bytes32"
        },
        {
          "indexed": true,
          "internalType": "bytes32",
          "name": "previousAdminRole",
          "type": "bytes32"
        },
        {
          "indexed": true,
          "internalType": "bytes32",
          "name": "newAdminRole",
          "type": "bytes32"
        }
      ],
      "name": "RoleAdminChanged",
      "type": "event"
    },
    {
      "anonymous": false,
      "inputs": [
        {
          "indexed": true,
          "internalType": "bytes32",
          "name": "role",
          "type": "bytes32"
        },
        {
          "indexed": true,
          "internalType": "address",
          "name": "account",
          "type": "address"
        },
        {
          "indexed": true,
          "internalType": "address",
          "name": "sender",
          "type": "address"
        }
      ],
      "name": "RoleGranted",
      "type": "event"
    },
    {
      "anonymous": false,
      "inputs": [
        {
          "indexed": true,
          "internalType": "bytes32",
          "name": "role",
          "type": "bytes32"
        },
        {
          "indexed": true,
          "internalType": "address",
          "name": "account",
          "type": "address"
        },
        {
          "indexed": true,
          "internalType": "address",
          "name": "sender",
          "type": "address"
        }
      ],
      "name": "RoleRevoked",
      "type": "event"
    },
    {
      "inputs": [],
      "name": "ADMIN_ROLE",
      "outputs": [
        {
          "internalType": "bytes32",
          "name": "",
          "type": "bytes32"
        }
      ],
      "stateMutability": "view",
      "type": "function"
    },
    {
      "inputs": [],
      "name": "DEFAULT_ADMIN_ROLE",
      "outputs": [
        {
          "internalType": "bytes32",
          "name": "",
          "type": "bytes32"
        }
      ],
      "stateMutability": "view",
      "type": "function"
    },
    {
      "inputs": [
        {
          "internalType": "string",
          "name": "",
          "type": "string"
        }
      ],
      "name": "ROLES",
      "outputs": [
        {
          "internalType": "bytes32",
          "name": "",
          "type": "bytes32"
        }
      ],
      "stateMutability": "view",
      "type": "function"
    },
    {
      "inputs": [
        {
          "internalType": "bytes32",
          "name": "role",
          "type": "bytes32"
        }
      ],
      "name": "getRoleAdmin",
      "outputs": [
        {
          "internalType": "bytes32",
          "name": "",
          "type": "bytes32"
        }
      ],
      "stateMutability": "view",
      "type": "function"
    },
    {
      "inputs": [
        {
          "internalType": "bytes32",
          "name": "role",
          "type": "bytes32"
        },
        {
          "internalType": "address",
          "name": "account",
          "type": "address"
        }
      ],
      "name": "grantRole",
      "outputs": [],
      "stateMutability": "nonpayable",
      "type": "function"
    },
    {
      "inputs": [
        {
          "internalType": "bytes32",
          "name": "role",
          "type": "bytes32"
        },
        {
          "internalType": "address",
          "name": "account",
          "type": "address"
        }
      ],
      "name": "hasRole",
      "outputs": [
        {
          "internalType": "bool",
          "name": "",
          "type": "bool"
        }
      ],
      "stateMutability": "view",
      "type": "function"
    },
    {
      "inputs": [],
      "name": "owner",
      "outputs": [
        {
          "internalType": "address",
          "name": "",
          "type": "address"
        }
      ],
      "stateMutability": "view",
      "type": "function"
    },
    {
      "inputs": [],
      "name": "renounceOwnership",
      "outputs": [],
      "stateMutability": "nonpayable",
      "type": "function"
    },
    {
      "inputs": [
        {
          "internalType": "bytes32",
          "name": "role",
          "type": "bytes32"
        },
        {
          "internalType": "address",
          "name": "callerConfirmation",
          "type": "address"
        }
      ],
      "name": "renounceRole",
      "outputs": [],
      "stateMutability": "nonpayable",
      "type": "function"
    },
    {
      "inputs": [
        {
          "internalType": "bytes32",
          "name": "role",
          "type": "bytes32"
        },
        {
          "internalType": "address",
          "name": "account",
          "type": "address"
        }
      ],
      "name": "revokeRole",
      "outputs": [],
      "stateMutability": "nonpayable",
      "type": "function"
    },
    {
      "inputs": [
        {
          "internalType": "bytes4",
          "name": "interfaceId",
          "type": "bytes4"
        }
      ],
      "name": "supportsInterface",
      "outputs": [
        {
          "internalType": "bool",
          "name": "",
          "type": "bool"
        }
      ],
      "stateMutability": "view",
      "type": "function"
    },
    {
      "inputs": [
        {
          "internalType": "address",
          "name": "newOwner",
          "type": "address"
        }
      ],
      "name": "transferOwnership",
      "outputs": [],
      "stateMutability": "nonpayable",
      "type": "function"
    },
    {
      "inputs": [
        {
          "internalType": "bytes32",
          "name": "role",
          "type": "bytes32"
        },
        {
          "internalType": "address",
          "name": "account",
          "type": "address"
        }
      ],
      "name": "checkHasRole",
      "outputs": [
        {
          "internalType": "bool",
          "name": "",
          "type": "bool"
        }
      ],
      "stateMutability": "view",
      "type": "function"
    },
    {
      "inputs": [
        {
          "internalType": "address",
          "name": "account",
          "type": "address"
        }
      ],
      "name": "makeAdmin",
      "outputs": [],
      "stateMutability": "nonpayable",
      "type": "function"
    },
    {
      "inputs": [
        {
          "internalType": "string",
          "name": "roleName",
          "type": "string"
        }
      ],
      "name": "createNewRole",
      "outputs": [],
      "stateMutability": "nonpayable",
      "type": "function"
    },
    {
      "inputs": [
        {
          "internalType": "string",
          "name": "roleName",
          "type": "string"
        },
        {
          "internalType": "address",
          "name": "account",
          "type": "address"
        }
      ],
      "name": "addAccountInRole",
      "outputs": [],
      "stateMutability": "nonpayable",
      "type": "function"
    },
    {
      "inputs": [],
      "name": "AdminRoleAccess",
      "outputs": [
        {
          "internalType": "bytes32",
          "name": "",
          "type": "bytes32"
        }
      ],
      "stateMutability": "view",
      "type": "function"
    }
  ],
  "bytecode": "0x608060405234801562000010575f80fd5b5060405162001aad38038062001aad8339818101604052810190620000369190620005ff565b335f73ffffffffffffffffffffffffffffffffffffffff168173ffffffffffffffffffffffffffffffffffffffff1603620000aa575f6040517f1e4fbdf7000000000000000000000000000000000000000000000000000000008152600401620000a1919062000640565b60405180910390fd5b620000bb816200027360201b60201c565b508060035f6101000a81548173ffffffffffffffffffffffffffffffffffffffff021916908373ffffffffffffffffffffffffffffffffffffffff16021790555060035f9054906101000a900473ffffffffffffffffffffffffffffffffffffffff1673ffffffffffffffffffffffffffffffffffffffff1663d5afdbb060035f9054906101000a900473ffffffffffffffffffffffffffffffffffffffff1673ffffffffffffffffffffffffffffffffffffffff1663b3ecf2366040518163ffffffff1660e01b8152600401602060405180830381865afa158015620001a4573d5f803e3d5ffd5b505050506040513d601f19601f82011682018060405250810190620001ca919062000681565b6040518263ffffffff1660e01b8152600401620001e891906200072d565b5f60405180830381865afa15801562000203573d5f803e3d5ffd5b505050506040513d5f823e3d601f19601f820116820180604052508101906200022d9190620008bc565b6040516020016200023f919062000955565b604051602081830303815290604052805190602001206002819055506200026c336200033660201b60201c565b506200096d565b5f60015f9054906101000a900473ffffffffffffffffffffffffffffffffffffffff1690508160015f6101000a81548173ffffffffffffffffffffffffffffffffffffffff021916908373ffffffffffffffffffffffffffffffffffffffff1602179055508173ffffffffffffffffffffffffffffffffffffffff168173ffffffffffffffffffffffffffffffffffffffff167f8be0079c531659141344cd1fd0a4f28419497f9722a3daafe3b4186f6b6457e060405160405180910390a35050565b620003466200035e60201b60201c565b6200035a600254826200040060201b60201c565b5050565b6200036e620004fb60201b60201c565b73ffffffffffffffffffffffffffffffffffffffff16620003946200050260201b60201c565b73ffffffffffffffffffffffffffffffffffffffff1614620003fe57620003c0620004fb60201b60201c565b6040517f118cdaa7000000000000000000000000000000000000000000000000000000008152600401620003f5919062000640565b60405180910390fd5b565b5f6200041383836200052a60201b60201c565b620004f15760015f808581526020019081526020015f205f015f8473ffffffffffffffffffffffffffffffffffffffff1673ffffffffffffffffffffffffffffffffffffffff1681526020019081526020015f205f6101000a81548160ff0219169083151502179055506200048d620004fb60201b60201c565b73ffffffffffffffffffffffffffffffffffffffff168273ffffffffffffffffffffffffffffffffffffffff16847f2f8788117e7eff1d82e926ec794901d17c78024a50270940304540a733656f0d60405160405180910390a460019050620004f5565b5f90505b92915050565b5f33905090565b5f60015f9054906101000a900473ffffffffffffffffffffffffffffffffffffffff16905090565b5f805f8481526020019081526020015f205f015f8373ffffffffffffffffffffffffffffffffffffffff1673ffffffffffffffffffffffffffffffffffffffff1681526020019081526020015f205f9054906101000a900460ff16905092915050565b5f604051905090565b5f80fd5b5f80fd5b5f73ffffffffffffffffffffffffffffffffffffffff82169050919050565b5f620005c9826200059e565b9050919050565b620005db81620005bd565b8114620005e6575f80fd5b50565b5f81519050620005f981620005d0565b92915050565b5f6020828403121562000617576200061662000596565b5b5f6200062684828501620005e9565b91505092915050565b6200063a81620005bd565b82525050565b5f602082019050620006555f8301846200062f565b92915050565b6003811062000668575f80fd5b50565b5f815190506200067b816200065b565b92915050565b5f6020828403121562000699576200069862000596565b5b5f620006a8848285016200066b565b91505092915050565b7f4e487b71000000000000000000000000000000000000000000000000000000005f52602160045260245ffd5b60038110620006f257620006f1620006b1565b5b50565b5f8190506200070482620006de565b919050565b5f6200071582620006f5565b9050919050565b620007278162000709565b82525050565b5f602082019050620007425f8301846200071c565b92915050565b5f80fd5b5f80fd5b5f601f19601f8301169050919050565b7f4e487b71000000000000000000000000000000000000000000000000000000005f52604160045260245ffd5b620007988262000750565b810181811067ffffffffffffffff82111715620007ba57620007b962000760565b5b80604052505050565b5f620007ce6200058d565b9050620007dc82826200078d565b919050565b5f67ffffffffffffffff821115620007fe57620007fd62000760565b5b620008098262000750565b9050602081019050919050565b5f5b838110156200083557808201518184015260208101905062000818565b5f8484015250505050565b5f620008566200085084620007e1565b620007c3565b9050828152602081018484840111156200087557620008746200074c565b5b6200088284828562000816565b509392505050565b5f82601f830112620008a157620008a062000748565b5b8151620008b384826020860162000840565b91505092915050565b5f60208284031215620008d457620008d362000596565b5b5f82015167ffffffffffffffff811115620008f457620008f36200059a565b5b62000902848285016200088a565b91505092915050565b5f81519050919050565b5f81905092915050565b5f6200092b826200090b565b62000937818562000915565b93506200094981856020860162000816565b80840191505092915050565b5f6200096282846200091f565b915081905092915050565b611132806200097b5f395ff3fe608060405234801561000f575f80fd5b5060043610610109575f3560e01c8063715018a6116100a05780639af6e1951161006f5780639af6e195146102a1578063a217fddf146102d1578063ab9aae62146102ef578063d547741f1461030b578063f2fde38b1461032757610109565b8063715018a61461022b57806375b238fc146102355780638da5cb5b1461025357806391d148541461027157610109565b806336568abe116100dc57806336568abe146101a75780633c7a0c34146101c3578063472905ca146101df5780635eb9759c146101fb57610109565b806301ffc9a71461010d578063052ad8fd1461013d578063248a9ca31461015b5780632f2ff15d1461018b575b5f80fd5b61012760048036038101906101229190610bc7565b610343565b6040516101349190610c0c565b60405180910390f35b6101456103bc565b6040516101529190610c3d565b60405180910390f35b61017560048036038101906101709190610c80565b6103c5565b6040516101829190610c3d565b60405180910390f35b6101a560048036038101906101a09190610d05565b6103e1565b005b6101c160048036038101906101bc9190610d05565b610403565b005b6101dd60048036038101906101d89190610e7f565b61047e565b005b6101f960048036038101906101f49190610ec6565b610539565b005b61021560048036038101906102109190610e7f565b610551565b6040516102229190610c3d565b60405180910390f35b61023361057e565b005b61023d610591565b60405161024a9190610c3d565b60405180910390f35b61025b610597565b6040516102689190610f00565b60405180910390f35b61028b60048036038101906102869190610d05565b6105bf565b6040516102989190610c0c565b60405180910390f35b6102bb60048036038101906102b69190610d05565b610622565b6040516102c89190610c0c565b60405180910390f35b6102d9610635565b6040516102e69190610c3d565b60405180910390f35b61030960048036038101906103049190610f19565b61063b565b005b61032560048036038101906103209190610d05565b6106ca565b005b610341600480360381019061033c9190610ec6565b6106ec565b005b5f7f7965db0b000000000000000000000000000000000000000000000000000000007bffffffffffffffffffffffffffffffffffffffffffffffffffffffff1916827bffffffffffffffffffffffffffffffffffffffffffffffffffffffff191614806103b557506103b482610770565b5b9050919050565b5f600254905090565b5f805f8381526020019081526020015f20600101549050919050565b6103ea826103c5565b6103f3816107d9565b6103fd83836107ed565b50505050565b61040b6108d6565b73ffffffffffffffffffffffffffffffffffffffff168173ffffffffffffffffffffffffffffffffffffffff161461046f576040517f6697b23200000000000000000000000000000000000000000000000000000000815260040160405180910390fd5b61047982826108dd565b505050565b6104866109c6565b5f816040516020016104989190610fdf565b6040516020818303038152906040528051906020012090505f801b6004836040516104c39190610fdf565b90815260200160405180910390205414610512576040517f08c379a00000000000000000000000000000000000000000000000000000000081526004016105099061104f565b60405180910390fd5b806004836040516105239190610fdf565b9081526020016040518091039020819055505050565b6105416109c6565b61054d600254826107ed565b5050565b6004818051602081018201805184825260208301602085012081835280955050505050505f915090505481565b6105866109c6565b61058f5f610a4d565b565b60025481565b5f60015f9054906101000a900473ffffffffffffffffffffffffffffffffffffffff16905090565b5f805f8481526020019081526020015f205f015f8373ffffffffffffffffffffffffffffffffffffffff1673ffffffffffffffffffffffffffffffffffffffff1681526020019081526020015f205f9054906101000a900460ff16905092915050565b5f61062d83836105bf565b905092915050565b5f801b81565b5f801b60048360405161064e9190610fdf565b9081526020016040518091039020540361069d576040517f08c379a0000000000000000000000000000000000000000000000000000000008152600401610694906110b7565b60405180910390fd5b6106c56004836040516106b09190610fdf565b908152602001604051809103902054826107ed565b505050565b6106d3826103c5565b6106dc816107d9565b6106e683836108dd565b50505050565b6106f46109c6565b5f73ffffffffffffffffffffffffffffffffffffffff168173ffffffffffffffffffffffffffffffffffffffff1603610764575f6040517f1e4fbdf700000000000000000000000000000000000000000000000000000000815260040161075b9190610f00565b60405180910390fd5b61076d81610a4d565b50565b5f7f01ffc9a7000000000000000000000000000000000000000000000000000000007bffffffffffffffffffffffffffffffffffffffffffffffffffffffff1916827bffffffffffffffffffffffffffffffffffffffffffffffffffffffff1916149050919050565b6107ea816107e56108d6565b610b10565b50565b5f6107f883836105bf565b6108cc5760015f808581526020019081526020015f205f015f8473ffffffffffffffffffffffffffffffffffffffff1673ffffffffffffffffffffffffffffffffffffffff1681526020019081526020015f205f6101000a81548160ff0219169083151502179055506108696108d6565b73ffffffffffffffffffffffffffffffffffffffff168273ffffffffffffffffffffffffffffffffffffffff16847f2f8788117e7eff1d82e926ec794901d17c78024a50270940304540a733656f0d60405160405180910390a4600190506108d0565b5f90505b92915050565b5f33905090565b5f6108e883836105bf565b156109bc575f805f8581526020019081526020015f205f015f8473ffffffffffffffffffffffffffffffffffffffff1673ffffffffffffffffffffffffffffffffffffffff1681526020019081526020015f205f6101000a81548160ff0219169083151502179055506109596108d6565b73ffffffffffffffffffffffffffffffffffffffff168273ffffffffffffffffffffffffffffffffffffffff16847ff6391f5c32d9c69d2a47ea670b442974b53935d1edc7fd64eb21e047a839171b60405160405180910390a4600190506109c0565b5f90505b92915050565b6109ce6108d6565b73ffffffffffffffffffffffffffffffffffffffff166109ec610597565b73ffffffffffffffffffffffffffffffffffffffff1614610a4b57610a0f6108d6565b6040517f118cdaa7000000000000000000000000000000000000000000000000000000008152600401610a429190610f00565b60405180910390fd5b565b5f60015f9054906101000a900473ffffffffffffffffffffffffffffffffffffffff1690508160015f6101000a81548173ffffffffffffffffffffffffffffffffffffffff021916908373ffffffffffffffffffffffffffffffffffffffff1602179055508173ffffffffffffffffffffffffffffffffffffffff168173ffffffffffffffffffffffffffffffffffffffff167f8be0079c531659141344cd1fd0a4f28419497f9722a3daafe3b4186f6b6457e060405160405180910390a35050565b610b1a82826105bf565b610b5d5780826040517fe2517d3f000000000000000000000000000000000000000000000000000000008152600401610b549291906110d5565b60405180910390fd5b5050565b5f604051905090565b5f80fd5b5f80fd5b5f7fffffffff0000000000000000000000000000000000000000000000000000000082169050919050565b610ba681610b72565b8114610bb0575f80fd5b50565b5f81359050610bc181610b9d565b92915050565b5f60208284031215610bdc57610bdb610b6a565b5b5f610be984828501610bb3565b91505092915050565b5f8115159050919050565b610c0681610bf2565b82525050565b5f602082019050610c1f5f830184610bfd565b92915050565b5f819050919050565b610c3781610c25565b82525050565b5f602082019050610c505f830184610c2e565b92915050565b610c5f81610c25565b8114610c69575f80fd5b50565b5f81359050610c7a81610c56565b92915050565b5f60208284031215610c9557610c94610b6a565b5b5f610ca284828501610c6c565b91505092915050565b5f73ffffffffffffffffffffffffffffffffffffffff82169050919050565b5f610cd482610cab565b9050919050565b610ce481610cca565b8114610cee575f80fd5b50565b5f81359050610cff81610cdb565b92915050565b5f8060408385031215610d1b57610d1a610b6a565b5b5f610d2885828601610c6c565b9250506020610d3985828601610cf1565b9150509250929050565b5f80fd5b5f80fd5b5f601f19601f8301169050919050565b7f4e487b71000000000000000000000000000000000000000000000000000000005f52604160045260245ffd5b610d9182610d4b565b810181811067ffffffffffffffff82111715610db057610daf610d5b565b5b80604052505050565b5f610dc2610b61565b9050610dce8282610d88565b919050565b5f67ffffffffffffffff821115610ded57610dec610d5b565b5b610df682610d4b565b9050602081019050919050565b828183375f83830152505050565b5f610e23610e1e84610dd3565b610db9565b905082815260208101848484011115610e3f57610e3e610d47565b5b610e4a848285610e03565b509392505050565b5f82601f830112610e6657610e65610d43565b5b8135610e76848260208601610e11565b91505092915050565b5f60208284031215610e9457610e93610b6a565b5b5f82013567ffffffffffffffff811115610eb157610eb0610b6e565b5b610ebd84828501610e52565b91505092915050565b5f60208284031215610edb57610eda610b6a565b5b5f610ee884828501610cf1565b91505092915050565b610efa81610cca565b82525050565b5f602082019050610f135f830184610ef1565b92915050565b5f8060408385031215610f2f57610f2e610b6a565b5b5f83013567ffffffffffffffff811115610f4c57610f4b610b6e565b5b610f5885828601610e52565b9250506020610f6985828601610cf1565b9150509250929050565b5f81519050919050565b5f81905092915050565b5f5b83811015610fa4578082015181840152602081019050610f89565b5f8484015250505050565b5f610fb982610f73565b610fc38185610f7d565b9350610fd3818560208601610f87565b80840191505092915050565b5f610fea8284610faf565b915081905092915050565b5f82825260208201905092915050565b7f526f6c6520616c726561647920657869737473000000000000000000000000005f82015250565b5f611039601383610ff5565b915061104482611005565b602082019050919050565b5f6020820190508181035f8301526110668161102d565b9050919050565b7f526f6c65206e6f7420666f756e640000000000000000000000000000000000005f82015250565b5f6110a1600e83610ff5565b91506110ac8261106d565b602082019050919050565b5f6020820190508181035f8301526110ce81611095565b9050919050565b5f6040820190506110e85f830185610ef1565b6110f56020830184610c2e565b939250505056fea264697066735822122075a790f9cbd3335386ea27fda0ecbe75a8adfc78825a85a5b5d2394935c4cb0b64736f6c63430008140033",
  "immutableReferences": {},
  "source": "// SPDX-License-Identifier: MIT\npragma solidity ^0.8.20;\nimport \"@openzeppelin/contracts/access/AccessControl.sol\";\nimport \"@openzeppelin/contracts/access/Ownable.sol\";\nimport \"./libraries/RoleManager.sol\";\n\ncontract Auth is AccessControl, Ownable {\n    bytes32 public ADMIN_ROLE;\n    RoleManager private roleManager;\n    mapping(string => bytes32) public ROLES;\n\n    constructor(address _roleManagerAddress) Ownable(msg.sender) {\n        roleManager = RoleManager(_roleManagerAddress);\n\n        ADMIN_ROLE = keccak256(\n            abi.encodePacked(\n                roleManager.getRoleName(roleManager.getAdminRole())\n            )\n        );\n        makeAdmin(msg.sender);\n    }\n\n    function checkHasRole(\n        bytes32 role,\n        address account\n    ) public view returns (bool) {\n        return hasRole(role, account);\n    }\n\n    function makeAdmin(address account) public onlyOwner {\n        _grantRole(ADMIN_ROLE, account);\n    }\n\n    function createNewRole(string memory roleName) public onlyOwner {\n        bytes32 newRole = keccak256(abi.encodePacked(roleName));\n        require(ROLES[roleName] == 0x0, \"Role already exists\");\n\n        ROLES[roleName] = newRole;\n    }\n\n    function addAccountInRole(string memory roleName, address account) public {\n        require(ROLES[roleName] != 0x0, \"Role not found\");\n\n        _grantRole(ROLES[roleName], account);\n    }\n\n    function AdminRoleAccess() public view returns (bytes32) {\n        return ADMIN_ROLE;\n    }\n}\n",
  "sourcePath": "C:\\Workspace\\Practice\\Blockchain-Projects-main\\blockchain\\Truffle\\contracts\\DAO\\Auth.sol",
  "compiler": {
    "name": "solc",
    "version": "0.8.20+commit.a1b79de6.Emscripten.clang"
  },
  "schemaVersion": "3.4.16",
  "updatedAt": "2024-09-06T07:58:50.374Z",
  "devdoc": {
    "errors": {
      "AccessControlBadConfirmation()": [
        {
          "details": "The caller of a function is not the expected one. NOTE: Don't confuse with {AccessControlUnauthorizedAccount}."
        }
      ],
      "AccessControlUnauthorizedAccount(address,bytes32)": [
        {
          "details": "The `account` is missing a role."
        }
      ],
      "OwnableInvalidOwner(address)": [
        {
          "details": "The owner is not a valid owner account. (eg. `address(0)`)"
        }
      ],
      "OwnableUnauthorizedAccount(address)": [
        {
          "details": "The caller account is not authorized to perform an operation."
        }
      ]
    },
    "events": {
      "RoleAdminChanged(bytes32,bytes32,bytes32)": {
        "details": "Emitted when `newAdminRole` is set as ``role``'s admin role, replacing `previousAdminRole` `DEFAULT_ADMIN_ROLE` is the starting admin for all roles, despite {RoleAdminChanged} not being emitted signaling this."
      },
      "RoleGranted(bytes32,address,address)": {
        "details": "Emitted when `account` is granted `role`. `sender` is the account that originated the contract call, an admin role bearer except when using {AccessControl-_setupRole}."
      },
      "RoleRevoked(bytes32,address,address)": {
        "details": "Emitted when `account` is revoked `role`. `sender` is the account that originated the contract call:   - if using `revokeRole`, it is the admin role bearer   - if using `renounceRole`, it is the role bearer (i.e. `account`)"
      }
    },
    "kind": "dev",
    "methods": {
      "getRoleAdmin(bytes32)": {
        "details": "Returns the admin role that controls `role`. See {grantRole} and {revokeRole}. To change a role's admin, use {_setRoleAdmin}."
      },
      "grantRole(bytes32,address)": {
        "details": "Grants `role` to `account`. If `account` had not been already granted `role`, emits a {RoleGranted} event. Requirements: - the caller must have ``role``'s admin role. May emit a {RoleGranted} event."
      },
      "hasRole(bytes32,address)": {
        "details": "Returns `true` if `account` has been granted `role`."
      },
      "owner()": {
        "details": "Returns the address of the current owner."
      },
      "renounceOwnership()": {
        "details": "Leaves the contract without owner. It will not be possible to call `onlyOwner` functions. Can only be called by the current owner. NOTE: Renouncing ownership will leave the contract without an owner, thereby disabling any functionality that is only available to the owner."
      },
      "renounceRole(bytes32,address)": {
        "details": "Revokes `role` from the calling account. Roles are often managed via {grantRole} and {revokeRole}: this function's purpose is to provide a mechanism for accounts to lose their privileges if they are compromised (such as when a trusted device is misplaced). If the calling account had been revoked `role`, emits a {RoleRevoked} event. Requirements: - the caller must be `callerConfirmation`. May emit a {RoleRevoked} event."
      },
      "revokeRole(bytes32,address)": {
        "details": "Revokes `role` from `account`. If `account` had been granted `role`, emits a {RoleRevoked} event. Requirements: - the caller must have ``role``'s admin role. May emit a {RoleRevoked} event."
      },
      "supportsInterface(bytes4)": {
        "details": "See {IERC165-supportsInterface}."
      },
      "transferOwnership(address)": {
        "details": "Transfers ownership of the contract to a new account (`newOwner`). Can only be called by the current owner."
      }
    },
    "version": 1
  },
  "userdoc": {
    "kind": "user",
    "methods": {},
    "version": 1
  }
}