{
  "contractName": "GeneralPerposal",
  "abi": [
    {
      "inputs": [
        {
          "internalType": "address",
          "name": "_authAddress",
          "type": "address"
        },
        {
          "internalType": "address",
          "name": "_tokenAddress",
          "type": "address"
        }
      ],
      "stateMutability": "nonpayable",
      "type": "constructor"
    },
    {
      "inputs": [
        {
          "internalType": "address",
          "name": "owner",
          "type": "address"
        }
      ],
      "name": "OwnableInvalidOwner",
      "type": "error"
    },
    {
      "inputs": [
        {
          "internalType": "address",
          "name": "account",
          "type": "address"
        }
      ],
      "name": "OwnableUnauthorizedAccount",
      "type": "error"
    },
    {
      "anonymous": false,
      "inputs": [
        {
          "indexed": true,
          "internalType": "address",
          "name": "previousOwner",
          "type": "address"
        },
        {
          "indexed": true,
          "internalType": "address",
          "name": "newOwner",
          "type": "address"
        }
      ],
      "name": "OwnershipTransferred",
      "type": "event"
    },
    {
      "anonymous": false,
      "inputs": [
        {
          "components": [
            {
              "internalType": "address",
              "name": "perposer",
              "type": "address"
            },
            {
              "internalType": "string",
              "name": "description",
              "type": "string"
            },
            {
              "internalType": "uint256",
              "name": "voteCount",
              "type": "uint256"
            },
            {
              "internalType": "uint256",
              "name": "votePrice",
              "type": "uint256"
            },
            {
              "internalType": "bool",
              "name": "excuted",
              "type": "bool"
            }
          ],
          "indexed": false,
          "internalType": "struct GeneralPerposal.Perposal",
          "name": "createdPerposal",
          "type": "tuple"
        },
        {
          "indexed": false,
          "internalType": "address",
          "name": "perposer",
          "type": "address"
        }
      ],
      "name": "PerposalCreated",
      "type": "event"
    },
    {
      "anonymous": false,
      "inputs": [
        {
          "indexed": false,
          "internalType": "uint256",
          "name": "perposalId",
          "type": "uint256"
        }
      ],
      "name": "PerposalExcuted",
      "type": "event"
    },
    {
      "anonymous": false,
      "inputs": [
        {
          "indexed": false,
          "internalType": "uint256",
          "name": "perposalId",
          "type": "uint256"
        },
        {
          "indexed": false,
          "internalType": "address",
          "name": "voter",
          "type": "address"
        }
      ],
      "name": "Voted",
      "type": "event"
    },
    {
      "inputs": [],
      "name": "auth",
      "outputs": [
        {
          "internalType": "contract Auth",
          "name": "",
          "type": "address"
        }
      ],
      "stateMutability": "view",
      "type": "function"
    },
    {
      "inputs": [],
      "name": "owner",
      "outputs": [
        {
          "internalType": "address",
          "name": "",
          "type": "address"
        }
      ],
      "stateMutability": "view",
      "type": "function"
    },
    {
      "inputs": [
        {
          "internalType": "uint256",
          "name": "",
          "type": "uint256"
        }
      ],
      "name": "perposals",
      "outputs": [
        {
          "internalType": "address",
          "name": "perposer",
          "type": "address"
        },
        {
          "internalType": "string",
          "name": "description",
          "type": "string"
        },
        {
          "internalType": "uint256",
          "name": "voteCount",
          "type": "uint256"
        },
        {
          "internalType": "uint256",
          "name": "votePrice",
          "type": "uint256"
        },
        {
          "internalType": "bool",
          "name": "excuted",
          "type": "bool"
        }
      ],
      "stateMutability": "view",
      "type": "function"
    },
    {
      "inputs": [],
      "name": "renounceOwnership",
      "outputs": [],
      "stateMutability": "nonpayable",
      "type": "function"
    },
    {
      "inputs": [],
      "name": "token",
      "outputs": [
        {
          "internalType": "contract Token",
          "name": "",
          "type": "address"
        }
      ],
      "stateMutability": "view",
      "type": "function"
    },
    {
      "inputs": [
        {
          "internalType": "address",
          "name": "newOwner",
          "type": "address"
        }
      ],
      "name": "transferOwnership",
      "outputs": [],
      "stateMutability": "nonpayable",
      "type": "function"
    },
    {
      "inputs": [
        {
          "internalType": "uint256",
          "name": "",
          "type": "uint256"
        },
        {
          "internalType": "address",
          "name": "",
          "type": "address"
        }
      ],
      "name": "votes",
      "outputs": [
        {
          "internalType": "bool",
          "name": "",
          "type": "bool"
        }
      ],
      "stateMutability": "view",
      "type": "function"
    },
    {
      "inputs": [
        {
          "internalType": "string",
          "name": "description",
          "type": "string"
        },
        {
          "internalType": "uint256",
          "name": "price",
          "type": "uint256"
        }
      ],
      "name": "createPerposal",
      "outputs": [],
      "stateMutability": "nonpayable",
      "type": "function"
    },
    {
      "inputs": [
        {
          "internalType": "uint256",
          "name": "_perposalId",
          "type": "uint256"
        },
        {
          "internalType": "uint256",
          "name": "amount",
          "type": "uint256"
        }
      ],
      "name": "vote",
      "outputs": [],
      "stateMutability": "nonpayable",
      "type": "function"
    },
    {
      "inputs": [],
      "name": "getAllPerposal",
      "outputs": [
        {
          "components": [
            {
              "internalType": "address",
              "name": "perposer",
              "type": "address"
            },
            {
              "internalType": "string",
              "name": "description",
              "type": "string"
            },
            {
              "internalType": "uint256",
              "name": "voteCount",
              "type": "uint256"
            },
            {
              "internalType": "uint256",
              "name": "votePrice",
              "type": "uint256"
            },
            {
              "internalType": "bool",
              "name": "excuted",
              "type": "bool"
            }
          ],
          "internalType": "struct GeneralPerposal.Perposal[]",
          "name": "",
          "type": "tuple[]"
        }
      ],
      "stateMutability": "view",
      "type": "function"
    },
    {
      "inputs": [
        {
          "internalType": "uint256",
          "name": "_perposalId",
          "type": "uint256"
        }
      ],
      "name": "excutePerposal",
      "outputs": [],
      "stateMutability": "nonpayable",
      "type": "function"
    }
  ],
  "bytecode": "0x608060405234801562000010575f80fd5b5060405162001ecb38038062001ecb83398181016040528101906200003691906200026a565b335f73ffffffffffffffffffffffffffffffffffffffff168173ffffffffffffffffffffffffffffffffffffffff1603620000aa575f6040517f1e4fbdf7000000000000000000000000000000000000000000000000000000008152600401620000a19190620002c0565b60405180910390fd5b620000bb816200014460201b60201c565b508160015f6101000a81548173ffffffffffffffffffffffffffffffffffffffff021916908373ffffffffffffffffffffffffffffffffffffffff1602179055508060025f6101000a81548173ffffffffffffffffffffffffffffffffffffffff021916908373ffffffffffffffffffffffffffffffffffffffff1602179055505050620002db565b5f805f9054906101000a900473ffffffffffffffffffffffffffffffffffffffff169050815f806101000a81548173ffffffffffffffffffffffffffffffffffffffff021916908373ffffffffffffffffffffffffffffffffffffffff1602179055508173ffffffffffffffffffffffffffffffffffffffff168173ffffffffffffffffffffffffffffffffffffffff167f8be0079c531659141344cd1fd0a4f28419497f9722a3daafe3b4186f6b6457e060405160405180910390a35050565b5f80fd5b5f73ffffffffffffffffffffffffffffffffffffffff82169050919050565b5f620002348262000209565b9050919050565b620002468162000228565b811462000251575f80fd5b50565b5f8151905062000264816200023b565b92915050565b5f806040838503121562000283576200028262000205565b5b5f620002928582860162000254565b9250506020620002a58582860162000254565b9150509250929050565b620002ba8162000228565b82525050565b5f602082019050620002d55f830184620002af565b92915050565b611be280620002e95f395ff3fe608060405234801561000f575f80fd5b50600436106100a7575f3560e01c8063d23254b41161006f578063d23254b414610129578063de9375f214610159578063f2fde38b14610177578063fc0c546a14610193578063fd5b0cd0146101b1578063ff28f4dc146101cd576100a7565b8063230ebb99146100ab578063299c58c0146100c7578063715018a6146100e55780638da5cb5b146100ef578063b384abef1461010d575b5f80fd5b6100c560048036038101906100c09190610dd7565b610201565b005b6100cf610440565b6040516100dc9190611022565b60405180910390f35b6100ed6105ae565b005b6100f76105c1565b6040516101049190611051565b60405180910390f35b6101276004803603810190610122919061106a565b6105e8565b005b610143600480360381019061013e91906110d2565b610922565b604051610150919061111f565b60405180910390f35b61016161094c565b60405161016e9190611193565b60405180910390f35b610191600480360381019061018c91906111ac565b610971565b005b61019b6109f5565b6040516101a891906111f7565b60405180910390f35b6101cb60048036038101906101c6919061133c565b610a1a565b005b6101e760048036038101906101e29190610dd7565b610b52565b6040516101f89594939291906113ed565b60405180910390f35b3373ffffffffffffffffffffffffffffffffffffffff166003828154811061022c5761022b611445565b5b905f5260205f2090600502015f015f9054906101000a900473ffffffffffffffffffffffffffffffffffffffff1673ffffffffffffffffffffffffffffffffffffffff16146102b0576040517f08c379a00000000000000000000000000000000000000000000000000000000081526004016102a7906114e2565b60405180910390fd5b60038054905081106102f7576040517f08c379a00000000000000000000000000000000000000000000000000000000081526004016102ee9061154a565b60405180910390fd5b5f6003828154811061030c5761030b611445565b5b905f5260205f209060050201600201541161035c576040517f08c379a0000000000000000000000000000000000000000000000000000000008152600401610353906115b2565b60405180910390fd5b600381815481106103705761036f611445565b5b905f5260205f2090600502016004015f9054906101000a900460ff166103cb576040517f08c379a00000000000000000000000000000000000000000000000000000000081526004016103c29061161a565b60405180910390fd5b6001600382815481106103e1576103e0611445565b5b905f5260205f2090600502016004015f6101000a81548160ff0219169083151502179055507f8b785452db3f65645fd9b3a09697e5dea2ab512490bbd07edda1533c0c28246b816040516104359190611638565b60405180910390a150565b60606003805480602002602001604051908101604052809291908181526020015f905b828210156105a5578382905f5260205f2090600502016040518060a00160405290815f82015f9054906101000a900473ffffffffffffffffffffffffffffffffffffffff1673ffffffffffffffffffffffffffffffffffffffff1673ffffffffffffffffffffffffffffffffffffffff1681526020016001820180546104e89061167e565b80601f01602080910402602001604051908101604052809291908181526020018280546105149061167e565b801561055f5780601f106105365761010080835404028352916020019161055f565b820191905f5260205f20905b81548152906001019060200180831161054257829003601f168201915b505050505081526020016002820154815260200160038201548152602001600482015f9054906101000a900460ff16151515158152505081526020019060010190610463565b50505050905090565b6105b6610c44565b6105bf5f610ccb565b565b5f805f9054906101000a900473ffffffffffffffffffffffffffffffffffffffff16905090565b600380549050821061062f576040517f08c379a0000000000000000000000000000000000000000000000000000000008152600401610626906116f8565b60405180910390fd5b60045f8381526020019081526020015f205f3373ffffffffffffffffffffffffffffffffffffffff1673ffffffffffffffffffffffffffffffffffffffff1681526020019081526020015f205f9054906101000a900460ff16156106c8576040517f08c379a00000000000000000000000000000000000000000000000000000000081526004016106bf90611760565b60405180910390fd5b600382815481106106dc576106db611445565b5b905f5260205f2090600502016004015f9054906101000a900460ff1615610738576040517f08c379a000000000000000000000000000000000000000000000000000000000815260040161072f9061161a565b60405180910390fd5b806003838154811061074d5761074c611445565b5b905f5260205f209060050201600301541461079d576040517f08c379a0000000000000000000000000000000000000000000000000000000008152600401610794906117c8565b60405180910390fd5b60025f9054906101000a900473ffffffffffffffffffffffffffffffffffffffff1673ffffffffffffffffffffffffffffffffffffffff1663cc16f5db33600385815481106107ef576107ee611445565b5b905f5260205f209060050201600301546040518363ffffffff1660e01b815260040161081c9291906117e6565b5f604051808303815f87803b158015610833575f80fd5b505af1158015610845573d5f803e3d5ffd5b505050506003828154811061085d5761085c611445565b5b905f5260205f2090600502016002015f81548092919061087c9061183a565b9190505550600160045f8481526020019081526020015f205f3373ffffffffffffffffffffffffffffffffffffffff1673ffffffffffffffffffffffffffffffffffffffff1681526020019081526020015f205f6101000a81548160ff0219169083151502179055507f030b0f8dcd86a031eddb071f91882edeac8173663ba775713b677b42b51be44b8233604051610916929190611881565b60405180910390a15050565b6004602052815f5260405f20602052805f5260405f205f915091509054906101000a900460ff1681565b60015f9054906101000a900473ffffffffffffffffffffffffffffffffffffffff1681565b610979610c44565b5f73ffffffffffffffffffffffffffffffffffffffff168173ffffffffffffffffffffffffffffffffffffffff16036109e9575f6040517f1e4fbdf70000000000000000000000000000000000000000000000000000000081526004016109e09190611051565b60405180910390fd5b6109f281610ccb565b50565b60025f9054906101000a900473ffffffffffffffffffffffffffffffffffffffff1681565b5f6040518060a001604052803373ffffffffffffffffffffffffffffffffffffffff1681526020018481526020015f81526020018381526020015f15158152509050600381908060018154018082558091505060019003905f5260205f2090600502015f909190919091505f820151815f015f6101000a81548173ffffffffffffffffffffffffffffffffffffffff021916908373ffffffffffffffffffffffffffffffffffffffff1602179055506020820151816001019081610ade9190611a3c565b5060408201518160020155606082015181600301556080820151816004015f6101000a81548160ff02191690831515021790555050507f51aea666da062acf0efd52b9bac40a58fd1ca0b8cd1a2bab68c491c2c1f1e5f78133604051610b45929190611b7e565b60405180910390a1505050565b60038181548110610b61575f80fd5b905f5260205f2090600502015f91509050805f015f9054906101000a900473ffffffffffffffffffffffffffffffffffffffff1690806001018054610ba59061167e565b80601f0160208091040260200160405190810160405280929190818152602001828054610bd19061167e565b8015610c1c5780601f10610bf357610100808354040283529160200191610c1c565b820191905f5260205f20905b815481529060010190602001808311610bff57829003601f168201915b505050505090806002015490806003015490806004015f9054906101000a900460ff16905085565b610c4c610d8c565b73ffffffffffffffffffffffffffffffffffffffff16610c6a6105c1565b73ffffffffffffffffffffffffffffffffffffffff1614610cc957610c8d610d8c565b6040517f118cdaa7000000000000000000000000000000000000000000000000000000008152600401610cc09190611051565b60405180910390fd5b565b5f805f9054906101000a900473ffffffffffffffffffffffffffffffffffffffff169050815f806101000a81548173ffffffffffffffffffffffffffffffffffffffff021916908373ffffffffffffffffffffffffffffffffffffffff1602179055508173ffffffffffffffffffffffffffffffffffffffff168173ffffffffffffffffffffffffffffffffffffffff167f8be0079c531659141344cd1fd0a4f28419497f9722a3daafe3b4186f6b6457e060405160405180910390a35050565b5f33905090565b5f604051905090565b5f80fd5b5f80fd5b5f819050919050565b610db681610da4565b8114610dc0575f80fd5b50565b5f81359050610dd181610dad565b92915050565b5f60208284031215610dec57610deb610d9c565b5b5f610df984828501610dc3565b91505092915050565b5f81519050919050565b5f82825260208201905092915050565b5f819050602082019050919050565b5f73ffffffffffffffffffffffffffffffffffffffff82169050919050565b5f610e5482610e2b565b9050919050565b610e6481610e4a565b82525050565b5f81519050919050565b5f82825260208201905092915050565b5f5b83811015610ea1578082015181840152602081019050610e86565b5f8484015250505050565b5f601f19601f8301169050919050565b5f610ec682610e6a565b610ed08185610e74565b9350610ee0818560208601610e84565b610ee981610eac565b840191505092915050565b610efd81610da4565b82525050565b5f8115159050919050565b610f1781610f03565b82525050565b5f60a083015f830151610f325f860182610e5b565b5060208301518482036020860152610f4a8282610ebc565b9150506040830151610f5f6040860182610ef4565b506060830151610f726060860182610ef4565b506080830151610f856080860182610f0e565b508091505092915050565b5f610f9b8383610f1d565b905092915050565b5f602082019050919050565b5f610fb982610e02565b610fc38185610e0c565b935083602082028501610fd585610e1c565b805f5b858110156110105784840389528151610ff18582610f90565b9450610ffc83610fa3565b925060208a01995050600181019050610fd8565b50829750879550505050505092915050565b5f6020820190508181035f83015261103a8184610faf565b905092915050565b61104b81610e4a565b82525050565b5f6020820190506110645f830184611042565b92915050565b5f80604083850312156110805761107f610d9c565b5b5f61108d85828601610dc3565b925050602061109e85828601610dc3565b9150509250929050565b6110b181610e4a565b81146110bb575f80fd5b50565b5f813590506110cc816110a8565b92915050565b5f80604083850312156110e8576110e7610d9c565b5b5f6110f585828601610dc3565b9250506020611106858286016110be565b9150509250929050565b61111981610f03565b82525050565b5f6020820190506111325f830184611110565b92915050565b5f819050919050565b5f61115b61115661115184610e2b565b611138565b610e2b565b9050919050565b5f61116c82611141565b9050919050565b5f61117d82611162565b9050919050565b61118d81611173565b82525050565b5f6020820190506111a65f830184611184565b92915050565b5f602082840312156111c1576111c0610d9c565b5b5f6111ce848285016110be565b91505092915050565b5f6111e182611162565b9050919050565b6111f1816111d7565b82525050565b5f60208201905061120a5f8301846111e8565b92915050565b5f80fd5b5f80fd5b7f4e487b71000000000000000000000000000000000000000000000000000000005f52604160045260245ffd5b61124e82610eac565b810181811067ffffffffffffffff8211171561126d5761126c611218565b5b80604052505050565b5f61127f610d93565b905061128b8282611245565b919050565b5f67ffffffffffffffff8211156112aa576112a9611218565b5b6112b382610eac565b9050602081019050919050565b828183375f83830152505050565b5f6112e06112db84611290565b611276565b9050828152602081018484840111156112fc576112fb611214565b5b6113078482856112c0565b509392505050565b5f82601f83011261132357611322611210565b5b81356113338482602086016112ce565b91505092915050565b5f806040838503121561135257611351610d9c565b5b5f83013567ffffffffffffffff81111561136f5761136e610da0565b5b61137b8582860161130f565b925050602061138c85828601610dc3565b9150509250929050565b5f82825260208201905092915050565b5f6113b082610e6a565b6113ba8185611396565b93506113ca818560208601610e84565b6113d381610eac565b840191505092915050565b6113e781610da4565b82525050565b5f60a0820190506114005f830188611042565b818103602083015261141281876113a6565b905061142160408301866113de565b61142e60608301856113de565b61143b6080830184611110565b9695505050505050565b7f4e487b71000000000000000000000000000000000000000000000000000000005f52603260045260245ffd5b7f4f6e6c7920706572706f73616c206f776e6572206578637574652074686973205f8201527f706572706f736572000000000000000000000000000000000000000000000000602082015250565b5f6114cc602883611396565b91506114d782611472565b604082019050919050565b5f6020820190508181035f8301526114f9816114c0565b9050919050565b7f496e76616c696420706572706f73616c206964000000000000000000000000005f82015250565b5f611534601383611396565b915061153f82611500565b602082019050919050565b5f6020820190508181035f83015261156181611528565b9050919050565b7f506572706f73616c20686173206e6f20766f74650000000000000000000000005f82015250565b5f61159c601483611396565b91506115a782611568565b602082019050919050565b5f6020820190508181035f8301526115c981611590565b9050919050565b7f506572706f73616c20616c7265616479206578637574656400000000000000005f82015250565b5f611604601883611396565b915061160f826115d0565b602082019050919050565b5f6020820190508181035f830152611631816115f8565b9050919050565b5f60208201905061164b5f8301846113de565b92915050565b7f4e487b71000000000000000000000000000000000000000000000000000000005f52602260045260245ffd5b5f600282049050600182168061169557607f821691505b6020821081036116a8576116a7611651565b5b50919050565b7f496e76616c696420506572706f73616c204964000000000000000000000000005f82015250565b5f6116e2601383611396565b91506116ed826116ae565b602082019050919050565b5f6020820190508181035f83015261170f816116d6565b9050919050565b7f416c726561647920766f7465642e0000000000000000000000000000000000005f82015250565b5f61174a600e83611396565b915061175582611716565b602082019050919050565b5f6020820190508181035f8301526117778161173e565b9050919050565b7f566f7465205072696365206973206e6f74206d617463686564000000000000005f82015250565b5f6117b2601983611396565b91506117bd8261177e565b602082019050919050565b5f6020820190508181035f8301526117df816117a6565b9050919050565b5f6040820190506117f95f830185611042565b61180660208301846113de565b9392505050565b7f4e487b71000000000000000000000000000000000000000000000000000000005f52601160045260245ffd5b5f61184482610da4565b91507fffffffffffffffffffffffffffffffffffffffffffffffffffffffffffffffff82036118765761187561180d565b5b600182019050919050565b5f6040820190506118945f8301856113de565b6118a16020830184611042565b9392505050565b5f819050815f5260205f209050919050565b5f6020601f8301049050919050565b5f82821b905092915050565b5f600883026119047fffffffffffffffffffffffffffffffffffffffffffffffffffffffffffffffff826118c9565b61190e86836118c9565b95508019841693508086168417925050509392505050565b5f61194061193b61193684610da4565b611138565b610da4565b9050919050565b5f819050919050565b61195983611926565b61196d61196582611947565b8484546118d5565b825550505050565b5f90565b611981611975565b61198c818484611950565b505050565b5b818110156119af576119a45f82611979565b600181019050611992565b5050565b601f8211156119f4576119c5816118a8565b6119ce846118ba565b810160208510156119dd578190505b6119f16119e9856118ba565b830182611991565b50505b505050565b5f82821c905092915050565b5f611a145f19846008026119f9565b1980831691505092915050565b5f611a2c8383611a05565b9150826002028217905092915050565b611a4582610e6a565b67ffffffffffffffff811115611a5e57611a5d611218565b5b611a68825461167e565b611a738282856119b3565b5f60209050601f831160018114611aa4575f8415611a92578287015190505b611a9c8582611a21565b865550611b03565b601f198416611ab2866118a8565b5f5b82811015611ad957848901518255600182019150602085019450602081019050611ab4565b86831015611af65784890151611af2601f891682611a05565b8355505b6001600288020188555050505b505050505050565b5f60a083015f830151611b205f860182610e5b565b5060208301518482036020860152611b388282610ebc565b9150506040830151611b4d6040860182610ef4565b506060830151611b606060860182610ef4565b506080830151611b736080860182610f0e565b508091505092915050565b5f6040820190508181035f830152611b968185611b0b565b9050611ba56020830184611042565b939250505056fea2646970667358221220420c1c21181350f630e0c517d66868bf37a2dd81da446588c1e0b469b93ebdeb64736f6c63430008140033",
  "immutableReferences": {},
  "source": "// SPDX-License-Identifier: MIT\npragma solidity ^0.8.20;\nimport \"@openzeppelin/contracts/access/Ownable.sol\";\nimport \"./Auth.sol\";\nimport \"./Token.sol\";\n\ncontract GeneralPerposal is Ownable {\n    Auth public auth;\n    Token public token;\n\n    struct Perposal {\n        address perposer;\n        string description;\n        uint256 voteCount;\n        uint256 votePrice;\n        bool excuted;\n    }\n\n    Perposal[] public perposals;\n    mapping(uint256 => mapping(address => bool)) public votes;\n\n    constructor(\n        address _authAddress,\n        address _tokenAddress\n    ) Ownable(msg.sender) {\n        auth = Auth(_authAddress);\n        token = Token(_tokenAddress);\n    }\n\n    event PerposalCreated(Perposal createdPerposal, address perposer);\n    event Voted(uint256 perposalId, address voter);\n    event PerposalExcuted(uint256 perposalId);\n\n    modifier onlyOwnerOrAdmin(string memory error) {\n        bytes32 adminRole = auth.AdminRoleAccess();\n\n        require(\n            msg.sender == owner() || auth.checkHasRole(adminRole, msg.sender),\n            error\n        );\n        _;\n    }\n\n    function createPerposal(string memory description, uint256 price) public {\n        Perposal memory newPerposal = Perposal({\n            perposer: msg.sender,\n            description: description,\n            voteCount: 0,\n            votePrice: price,\n            excuted: false\n        });\n        perposals.push(newPerposal);\n\n        emit PerposalCreated(newPerposal, msg.sender);\n    }\n\n\n    function vote(uint256 _perposalId, uint256 amount) public {\n        require(_perposalId < perposals.length, \"Invalid Perposal Id\");\n        require(!votes[_perposalId][msg.sender], \"Already voted.\");\n        require(!perposals[_perposalId].excuted, \"Perposal already excuted\");\n        require(\n            perposals[_perposalId].votePrice == amount,\n            \"Vote Price is not matched\"\n        );\n\n        token.Burn(msg.sender, perposals[_perposalId].votePrice);\n        perposals[_perposalId].voteCount++;\n        votes[_perposalId][msg.sender] = true;\n        emit Voted(_perposalId, msg.sender);\n    }\n\n    function getAllPerposal() public view returns (Perposal[] memory) {\n        return perposals;\n    }\n\n    function excutePerposal(uint256 _perposalId) public {\n        require(perposals[_perposalId].perposer == msg.sender,\"Only perposal owner excute this perposer\");\n        require(_perposalId < perposals.length, \"Invalid perposal id\");\n        require(perposals[_perposalId].voteCount > 0, \"Perposal has no vote\");\n        require(perposals[_perposalId].excuted, \"Perposal already excuted\");\n\n        perposals[_perposalId].excuted = true;\n        emit PerposalExcuted(_perposalId);\n    }\n}\n",
  "sourcePath": "C:\\Workspace\\Practice\\Blockchain-Projects-main\\blockchain\\Truffle\\contracts\\DAO\\GeneralPerposal.sol",
  "compiler": {
    "name": "solc",
    "version": "0.8.20+commit.a1b79de6.Emscripten.clang"
  },
  "schemaVersion": "3.4.16",
  "updatedAt": "2024-09-06T07:58:50.392Z",
  "devdoc": {
    "errors": {
      "OwnableInvalidOwner(address)": [
        {
          "details": "The owner is not a valid owner account. (eg. `address(0)`)"
        }
      ],
      "OwnableUnauthorizedAccount(address)": [
        {
          "details": "The caller account is not authorized to perform an operation."
        }
      ]
    },
    "kind": "dev",
    "methods": {
      "owner()": {
        "details": "Returns the address of the current owner."
      },
      "renounceOwnership()": {
        "details": "Leaves the contract without owner. It will not be possible to call `onlyOwner` functions. Can only be called by the current owner. NOTE: Renouncing ownership will leave the contract without an owner, thereby disabling any functionality that is only available to the owner."
      },
      "transferOwnership(address)": {
        "details": "Transfers ownership of the contract to a new account (`newOwner`). Can only be called by the current owner."
      }
    },
    "version": 1
  },
  "userdoc": {
    "kind": "user",
    "methods": {},
    "version": 1
  }
}