{
  "contractName": "GovernancePerposal",
  "abi": [
    {
      "inputs": [
        {
          "internalType": "address",
          "name": "_authAddress",
          "type": "address"
        },
        {
          "internalType": "address",
          "name": "_tokenAddress",
          "type": "address"
        },
        {
          "internalType": "address",
          "name": "_membershipAddress",
          "type": "address"
        }
      ],
      "stateMutability": "nonpayable",
      "type": "constructor"
    },
    {
      "inputs": [
        {
          "internalType": "address",
          "name": "owner",
          "type": "address"
        }
      ],
      "name": "OwnableInvalidOwner",
      "type": "error"
    },
    {
      "inputs": [
        {
          "internalType": "address",
          "name": "account",
          "type": "address"
        }
      ],
      "name": "OwnableUnauthorizedAccount",
      "type": "error"
    },
    {
      "anonymous": false,
      "inputs": [
        {
          "indexed": true,
          "internalType": "address",
          "name": "previousOwner",
          "type": "address"
        },
        {
          "indexed": true,
          "internalType": "address",
          "name": "newOwner",
          "type": "address"
        }
      ],
      "name": "OwnershipTransferred",
      "type": "event"
    },
    {
      "anonymous": false,
      "inputs": [
        {
          "components": [
            {
              "internalType": "address",
              "name": "perposer",
              "type": "address"
            },
            {
              "internalType": "string",
              "name": "name",
              "type": "string"
            },
            {
              "internalType": "string",
              "name": "description",
              "type": "string"
            },
            {
              "internalType": "uint256",
              "name": "voteCount",
              "type": "uint256"
            },
            {
              "internalType": "uint256",
              "name": "votePrice",
              "type": "uint256"
            },
            {
              "internalType": "bool",
              "name": "excuted",
              "type": "bool"
            }
          ],
          "indexed": false,
          "internalType": "struct GovernancePerposal.Perposal",
          "name": "createdPerposal",
          "type": "tuple"
        },
        {
          "indexed": false,
          "internalType": "address",
          "name": "perposer",
          "type": "address"
        }
      ],
      "name": "PerposalCreated",
      "type": "event"
    },
    {
      "anonymous": false,
      "inputs": [
        {
          "indexed": false,
          "internalType": "uint256",
          "name": "perposalId",
          "type": "uint256"
        }
      ],
      "name": "PerposalExcuted",
      "type": "event"
    },
    {
      "anonymous": false,
      "inputs": [
        {
          "indexed": false,
          "internalType": "uint256",
          "name": "perposalId",
          "type": "uint256"
        },
        {
          "indexed": false,
          "internalType": "address",
          "name": "voter",
          "type": "address"
        }
      ],
      "name": "Voted",
      "type": "event"
    },
    {
      "inputs": [],
      "name": "auth",
      "outputs": [
        {
          "internalType": "contract Auth",
          "name": "",
          "type": "address"
        }
      ],
      "stateMutability": "view",
      "type": "function"
    },
    {
      "inputs": [],
      "name": "membership",
      "outputs": [
        {
          "internalType": "contract Membership",
          "name": "",
          "type": "address"
        }
      ],
      "stateMutability": "view",
      "type": "function"
    },
    {
      "inputs": [],
      "name": "owner",
      "outputs": [
        {
          "internalType": "address",
          "name": "",
          "type": "address"
        }
      ],
      "stateMutability": "view",
      "type": "function"
    },
    {
      "inputs": [
        {
          "internalType": "uint256",
          "name": "",
          "type": "uint256"
        }
      ],
      "name": "perposals",
      "outputs": [
        {
          "internalType": "address",
          "name": "perposer",
          "type": "address"
        },
        {
          "internalType": "string",
          "name": "name",
          "type": "string"
        },
        {
          "internalType": "string",
          "name": "description",
          "type": "string"
        },
        {
          "internalType": "uint256",
          "name": "voteCount",
          "type": "uint256"
        },
        {
          "internalType": "uint256",
          "name": "votePrice",
          "type": "uint256"
        },
        {
          "internalType": "bool",
          "name": "excuted",
          "type": "bool"
        }
      ],
      "stateMutability": "view",
      "type": "function"
    },
    {
      "inputs": [],
      "name": "renounceOwnership",
      "outputs": [],
      "stateMutability": "nonpayable",
      "type": "function"
    },
    {
      "inputs": [],
      "name": "token",
      "outputs": [
        {
          "internalType": "contract Token",
          "name": "",
          "type": "address"
        }
      ],
      "stateMutability": "view",
      "type": "function"
    },
    {
      "inputs": [
        {
          "internalType": "address",
          "name": "newOwner",
          "type": "address"
        }
      ],
      "name": "transferOwnership",
      "outputs": [],
      "stateMutability": "nonpayable",
      "type": "function"
    },
    {
      "inputs": [
        {
          "internalType": "uint256",
          "name": "",
          "type": "uint256"
        },
        {
          "internalType": "address",
          "name": "",
          "type": "address"
        }
      ],
      "name": "votes",
      "outputs": [
        {
          "internalType": "bool",
          "name": "",
          "type": "bool"
        }
      ],
      "stateMutability": "view",
      "type": "function"
    },
    {
      "inputs": [
        {
          "internalType": "string",
          "name": "name",
          "type": "string"
        },
        {
          "internalType": "string",
          "name": "description",
          "type": "string"
        },
        {
          "internalType": "uint256",
          "name": "price",
          "type": "uint256"
        }
      ],
      "name": "createPerposal",
      "outputs": [],
      "stateMutability": "nonpayable",
      "type": "function"
    },
    {
      "inputs": [
        {
          "internalType": "uint256",
          "name": "_perposalId",
          "type": "uint256"
        },
        {
          "internalType": "uint256",
          "name": "amount",
          "type": "uint256"
        }
      ],
      "name": "vote",
      "outputs": [],
      "stateMutability": "nonpayable",
      "type": "function"
    },
    {
      "inputs": [],
      "name": "getAllPerposal",
      "outputs": [
        {
          "components": [
            {
              "internalType": "address",
              "name": "perposer",
              "type": "address"
            },
            {
              "internalType": "string",
              "name": "name",
              "type": "string"
            },
            {
              "internalType": "string",
              "name": "description",
              "type": "string"
            },
            {
              "internalType": "uint256",
              "name": "voteCount",
              "type": "uint256"
            },
            {
              "internalType": "uint256",
              "name": "votePrice",
              "type": "uint256"
            },
            {
              "internalType": "bool",
              "name": "excuted",
              "type": "bool"
            }
          ],
          "internalType": "struct GovernancePerposal.Perposal[]",
          "name": "",
          "type": "tuple[]"
        }
      ],
      "stateMutability": "view",
      "type": "function"
    },
    {
      "inputs": [
        {
          "internalType": "uint256",
          "name": "_perposalId",
          "type": "uint256"
        }
      ],
      "name": "excutePerposal",
      "outputs": [],
      "stateMutability": "nonpayable",
      "type": "function"
    }
  ],
  "bytecode": "0x608060405234801562000010575f80fd5b50604051620024cf380380620024cf8339818101604052810190620000369190620002ab565b335f73ffffffffffffffffffffffffffffffffffffffff168173ffffffffffffffffffffffffffffffffffffffff1603620000aa575f6040517f1e4fbdf7000000000000000000000000000000000000000000000000000000008152600401620000a1919062000315565b60405180910390fd5b620000bb816200018560201b60201c565b508260015f6101000a81548173ffffffffffffffffffffffffffffffffffffffff021916908373ffffffffffffffffffffffffffffffffffffffff1602179055508160025f6101000a81548173ffffffffffffffffffffffffffffffffffffffff021916908373ffffffffffffffffffffffffffffffffffffffff1602179055508060035f6101000a81548173ffffffffffffffffffffffffffffffffffffffff021916908373ffffffffffffffffffffffffffffffffffffffff16021790555050505062000330565b5f805f9054906101000a900473ffffffffffffffffffffffffffffffffffffffff169050815f806101000a81548173ffffffffffffffffffffffffffffffffffffffff021916908373ffffffffffffffffffffffffffffffffffffffff1602179055508173ffffffffffffffffffffffffffffffffffffffff168173ffffffffffffffffffffffffffffffffffffffff167f8be0079c531659141344cd1fd0a4f28419497f9722a3daafe3b4186f6b6457e060405160405180910390a35050565b5f80fd5b5f73ffffffffffffffffffffffffffffffffffffffff82169050919050565b5f62000275826200024a565b9050919050565b620002878162000269565b811462000292575f80fd5b50565b5f81519050620002a5816200027c565b92915050565b5f805f60608486031215620002c557620002c462000246565b5b5f620002d48682870162000295565b9350506020620002e78682870162000295565b9250506040620002fa8682870162000295565b9150509250925092565b6200030f8162000269565b82525050565b5f6020820190506200032a5f83018462000304565b92915050565b612191806200033e5f395ff3fe608060405234801561000f575f80fd5b50600436106100b2575f3560e01c8063b384abef1161006f578063b384abef14610152578063d23254b41461016e578063de9375f21461019e578063f2fde38b146101bc578063fc0c546a146101d8578063ff28f4dc146101f6576100b2565b8063230ebb99146100b6578063299c58c0146100d257806338479bae146100f0578063715018a61461010c5780638da5cb5b14610116578063a2bf68b914610134575b5f80fd5b6100d060048036038101906100cb919061119a565b61022b565b005b6100da6103c3565b6040516100e791906113ff565b60405180910390f35b61010a6004803603810190610105919061154b565b6105c1565b005b6101146108dd565b005b61011e6108f0565b60405161012b91906115e2565b60405180910390f35b61013c610917565b6040516101499190611656565b60405180910390f35b61016c6004803603810190610167919061166f565b61093c565b005b610188600480360381019061018391906116d7565b610d91565b6040516101959190611724565b60405180910390f35b6101a6610dbb565b6040516101b3919061175d565b60405180910390f35b6101d660048036038101906101d19190611776565b610de0565b005b6101e0610e64565b6040516101ed91906117c1565b60405180910390f35b610210600480360381019061020b919061119a565b610e89565b60405161022296959493929190611831565b60405180910390f35b610233611007565b600480549050811061027a576040517f08c379a0000000000000000000000000000000000000000000000000000000008152600401610271906118e8565b60405180910390fd5b5f6004828154811061028f5761028e611906565b5b905f5260205f20906006020160030154116102df576040517f08c379a00000000000000000000000000000000000000000000000000000000081526004016102d69061197d565b60405180910390fd5b600481815481106102f3576102f2611906565b5b905f5260205f2090600602016005015f9054906101000a900460ff1661034e576040517f08c379a0000000000000000000000000000000000000000000000000000000008152600401610345906119e5565b60405180910390fd5b60016004828154811061036457610363611906565b5b905f5260205f2090600602016005015f6101000a81548160ff0219169083151502179055507f8b785452db3f65645fd9b3a09697e5dea2ab512490bbd07edda1533c0c28246b816040516103b89190611a03565b60405180910390a150565b60606004805480602002602001604051908101604052809291908181526020015f905b828210156105b8578382905f5260205f2090600602016040518060c00160405290815f82015f9054906101000a900473ffffffffffffffffffffffffffffffffffffffff1673ffffffffffffffffffffffffffffffffffffffff1673ffffffffffffffffffffffffffffffffffffffff16815260200160018201805461046b90611a49565b80601f016020809104026020016040519081016040528092919081815260200182805461049790611a49565b80156104e25780601f106104b9576101008083540402835291602001916104e2565b820191905f5260205f20905b8154815290600101906020018083116104c557829003601f168201915b505050505081526020016002820180546104fb90611a49565b80601f016020809104026020016040519081016040528092919081815260200182805461052790611a49565b80156105725780601f1061054957610100808354040283529160200191610572565b820191905f5260205f20905b81548152906001019060200180831161055557829003601f168201915b505050505081526020016003820154815260200160048201548152602001600582015f9054906101000a900460ff161515151581525050815260200190600101906103e6565b50505050905090565b60405180606001604052806032815260200161212a603291395f60015f9054906101000a900473ffffffffffffffffffffffffffffffffffffffff1673ffffffffffffffffffffffffffffffffffffffff1663052ad8fd6040518163ffffffff1660e01b8152600401602060405180830381865afa158015610645573d5f803e3d5ffd5b505050506040513d601f19601f820116820180604052508101906106699190611aac565b90506106736108f0565b73ffffffffffffffffffffffffffffffffffffffff163373ffffffffffffffffffffffffffffffffffffffff161480610743575060015f9054906101000a900473ffffffffffffffffffffffffffffffffffffffff1673ffffffffffffffffffffffffffffffffffffffff16639af6e19582336040518363ffffffff1660e01b8152600401610703929190611ae6565b602060405180830381865afa15801561071e573d5f803e3d5ffd5b505050506040513d601f19601f820116820180604052508101906107429190611b37565b5b8290610785576040517f08c379a000000000000000000000000000000000000000000000000000000000815260040161077c9190611b62565b60405180910390fd5b505f6040518060c001604052803373ffffffffffffffffffffffffffffffffffffffff1681526020018781526020018681526020015f81526020018581526020015f15158152509050600481908060018154018082558091505060019003905f5260205f2090600602015f909190919091505f820151815f015f6101000a81548173ffffffffffffffffffffffffffffffffffffffff021916908373ffffffffffffffffffffffffffffffffffffffff16021790555060208201518160010190816108509190611d16565b5060408201518160020190816108669190611d16565b50606082015181600301556080820151816004015560a0820151816005015f6101000a81548160ff02191690831515021790555050507f01b2abd19e05eee7a4cc30fd960359379771e6958fd9518c5f1cd339cb85cdd181336040516108cd929190611e72565b60405180910390a1505050505050565b6108e5611007565b6108ee5f61108e565b565b5f805f9054906101000a900473ffffffffffffffffffffffffffffffffffffffff16905090565b60035f9054906101000a900473ffffffffffffffffffffffffffffffffffffffff1681565b6004805490508210610983576040517f08c379a000000000000000000000000000000000000000000000000000000000815260040161097a90611eea565b60405180910390fd5b60035f9054906101000a900473ffffffffffffffffffffffffffffffffffffffff1673ffffffffffffffffffffffffffffffffffffffff166339ac7a0833600485815481106109d5576109d4611906565b5b905f5260205f2090600602015f015f9054906101000a900473ffffffffffffffffffffffffffffffffffffffff166040518363ffffffff1660e01b8152600401610a20929190611f08565b602060405180830381865afa158015610a3b573d5f803e3d5ffd5b505050506040513d601f19601f82011682018060405250810190610a5f9190611b37565b610a9e576040517f08c379a0000000000000000000000000000000000000000000000000000000008152600401610a9590611f79565b60405180910390fd5b60055f8381526020019081526020015f205f3373ffffffffffffffffffffffffffffffffffffffff1673ffffffffffffffffffffffffffffffffffffffff1681526020019081526020015f205f9054906101000a900460ff1615610b37576040517f08c379a0000000000000000000000000000000000000000000000000000000008152600401610b2e90611fe1565b60405180910390fd5b60048281548110610b4b57610b4a611906565b5b905f5260205f2090600602016005015f9054906101000a900460ff1615610ba7576040517f08c379a0000000000000000000000000000000000000000000000000000000008152600401610b9e906119e5565b60405180910390fd5b8060048381548110610bbc57610bbb611906565b5b905f5260205f2090600602016004015414610c0c576040517f08c379a0000000000000000000000000000000000000000000000000000000008152600401610c0390612049565b60405180910390fd5b60025f9054906101000a900473ffffffffffffffffffffffffffffffffffffffff1673ffffffffffffffffffffffffffffffffffffffff1663cc16f5db3360048581548110610c5e57610c5d611906565b5b905f5260205f209060060201600401546040518363ffffffff1660e01b8152600401610c8b929190612067565b5f604051808303815f87803b158015610ca2575f80fd5b505af1158015610cb4573d5f803e3d5ffd5b5050505060048281548110610ccc57610ccb611906565b5b905f5260205f2090600602016003015f815480929190610ceb906120bb565b9190505550600160055f8481526020019081526020015f205f3373ffffffffffffffffffffffffffffffffffffffff1673ffffffffffffffffffffffffffffffffffffffff1681526020019081526020015f205f6101000a81548160ff0219169083151502179055507f030b0f8dcd86a031eddb071f91882edeac8173663ba775713b677b42b51be44b8233604051610d85929190612102565b60405180910390a15050565b6005602052815f5260405f20602052805f5260405f205f915091509054906101000a900460ff1681565b60015f9054906101000a900473ffffffffffffffffffffffffffffffffffffffff1681565b610de8611007565b5f73ffffffffffffffffffffffffffffffffffffffff168173ffffffffffffffffffffffffffffffffffffffff1603610e58575f6040517f1e4fbdf7000000000000000000000000000000000000000000000000000000008152600401610e4f91906115e2565b60405180910390fd5b610e618161108e565b50565b60025f9054906101000a900473ffffffffffffffffffffffffffffffffffffffff1681565b60048181548110610e98575f80fd5b905f5260205f2090600602015f91509050805f015f9054906101000a900473ffffffffffffffffffffffffffffffffffffffff1690806001018054610edc90611a49565b80601f0160208091040260200160405190810160405280929190818152602001828054610f0890611a49565b8015610f535780601f10610f2a57610100808354040283529160200191610f53565b820191905f5260205f20905b815481529060010190602001808311610f3657829003601f168201915b505050505090806002018054610f6890611a49565b80601f0160208091040260200160405190810160405280929190818152602001828054610f9490611a49565b8015610fdf5780601f10610fb657610100808354040283529160200191610fdf565b820191905f5260205f20905b815481529060010190602001808311610fc257829003601f168201915b505050505090806003015490806004015490806005015f9054906101000a900460ff16905086565b61100f61114f565b73ffffffffffffffffffffffffffffffffffffffff1661102d6108f0565b73ffffffffffffffffffffffffffffffffffffffff161461108c5761105061114f565b6040517f118cdaa700000000000000000000000000000000000000000000000000000000815260040161108391906115e2565b60405180910390fd5b565b5f805f9054906101000a900473ffffffffffffffffffffffffffffffffffffffff169050815f806101000a81548173ffffffffffffffffffffffffffffffffffffffff021916908373ffffffffffffffffffffffffffffffffffffffff1602179055508173ffffffffffffffffffffffffffffffffffffffff168173ffffffffffffffffffffffffffffffffffffffff167f8be0079c531659141344cd1fd0a4f28419497f9722a3daafe3b4186f6b6457e060405160405180910390a35050565b5f33905090565b5f604051905090565b5f80fd5b5f80fd5b5f819050919050565b61117981611167565b8114611183575f80fd5b50565b5f8135905061119481611170565b92915050565b5f602082840312156111af576111ae61115f565b5b5f6111bc84828501611186565b91505092915050565b5f81519050919050565b5f82825260208201905092915050565b5f819050602082019050919050565b5f73ffffffffffffffffffffffffffffffffffffffff82169050919050565b5f611217826111ee565b9050919050565b6112278161120d565b82525050565b5f81519050919050565b5f82825260208201905092915050565b5f5b83811015611264578082015181840152602081019050611249565b5f8484015250505050565b5f601f19601f8301169050919050565b5f6112898261122d565b6112938185611237565b93506112a3818560208601611247565b6112ac8161126f565b840191505092915050565b6112c081611167565b82525050565b5f8115159050919050565b6112da816112c6565b82525050565b5f60c083015f8301516112f55f86018261121e565b506020830151848203602086015261130d828261127f565b91505060408301518482036040860152611327828261127f565b915050606083015161133c60608601826112b7565b50608083015161134f60808601826112b7565b5060a083015161136260a08601826112d1565b508091505092915050565b5f61137883836112e0565b905092915050565b5f602082019050919050565b5f611396826111c5565b6113a081856111cf565b9350836020820285016113b2856111df565b805f5b858110156113ed57848403895281516113ce858261136d565b94506113d983611380565b925060208a019950506001810190506113b5565b50829750879550505050505092915050565b5f6020820190508181035f830152611417818461138c565b905092915050565b5f80fd5b5f80fd5b7f4e487b71000000000000000000000000000000000000000000000000000000005f52604160045260245ffd5b61145d8261126f565b810181811067ffffffffffffffff8211171561147c5761147b611427565b5b80604052505050565b5f61148e611156565b905061149a8282611454565b919050565b5f67ffffffffffffffff8211156114b9576114b8611427565b5b6114c28261126f565b9050602081019050919050565b828183375f83830152505050565b5f6114ef6114ea8461149f565b611485565b90508281526020810184848401111561150b5761150a611423565b5b6115168482856114cf565b509392505050565b5f82601f8301126115325761153161141f565b5b81356115428482602086016114dd565b91505092915050565b5f805f606084860312156115625761156161115f565b5b5f84013567ffffffffffffffff81111561157f5761157e611163565b5b61158b8682870161151e565b935050602084013567ffffffffffffffff8111156115ac576115ab611163565b5b6115b88682870161151e565b92505060406115c986828701611186565b9150509250925092565b6115dc8161120d565b82525050565b5f6020820190506115f55f8301846115d3565b92915050565b5f819050919050565b5f61161e611619611614846111ee565b6115fb565b6111ee565b9050919050565b5f61162f82611604565b9050919050565b5f61164082611625565b9050919050565b61165081611636565b82525050565b5f6020820190506116695f830184611647565b92915050565b5f80604083850312156116855761168461115f565b5b5f61169285828601611186565b92505060206116a385828601611186565b9150509250929050565b6116b68161120d565b81146116c0575f80fd5b50565b5f813590506116d1816116ad565b92915050565b5f80604083850312156116ed576116ec61115f565b5b5f6116fa85828601611186565b925050602061170b858286016116c3565b9150509250929050565b61171e816112c6565b82525050565b5f6020820190506117375f830184611715565b92915050565b5f61174782611625565b9050919050565b6117578161173d565b82525050565b5f6020820190506117705f83018461174e565b92915050565b5f6020828403121561178b5761178a61115f565b5b5f611798848285016116c3565b91505092915050565b5f6117ab82611625565b9050919050565b6117bb816117a1565b82525050565b5f6020820190506117d45f8301846117b2565b92915050565b5f82825260208201905092915050565b5f6117f48261122d565b6117fe81856117da565b935061180e818560208601611247565b6118178161126f565b840191505092915050565b61182b81611167565b82525050565b5f60c0820190506118445f8301896115d3565b818103602083015261185681886117ea565b9050818103604083015261186a81876117ea565b90506118796060830186611822565b6118866080830185611822565b61189360a0830184611715565b979650505050505050565b7f496e76616c696420706572706f73616c206964000000000000000000000000005f82015250565b5f6118d26013836117da565b91506118dd8261189e565b602082019050919050565b5f6020820190508181035f8301526118ff816118c6565b9050919050565b7f4e487b71000000000000000000000000000000000000000000000000000000005f52603260045260245ffd5b7f506572706f73616c20686173206e6f20766f74650000000000000000000000005f82015250565b5f6119676014836117da565b915061197282611933565b602082019050919050565b5f6020820190508181035f8301526119948161195b565b9050919050565b7f506572706f73616c20616c7265616479206578637574656400000000000000005f82015250565b5f6119cf6018836117da565b91506119da8261199b565b602082019050919050565b5f6020820190508181035f8301526119fc816119c3565b9050919050565b5f602082019050611a165f830184611822565b92915050565b7f4e487b71000000000000000000000000000000000000000000000000000000005f52602260045260245ffd5b5f6002820490506001821680611a6057607f821691505b602082108103611a7357611a72611a1c565b5b50919050565b5f819050919050565b611a8b81611a79565b8114611a95575f80fd5b50565b5f81519050611aa681611a82565b92915050565b5f60208284031215611ac157611ac061115f565b5b5f611ace84828501611a98565b91505092915050565b611ae081611a79565b82525050565b5f604082019050611af95f830185611ad7565b611b0660208301846115d3565b9392505050565b611b16816112c6565b8114611b20575f80fd5b50565b5f81519050611b3181611b0d565b92915050565b5f60208284031215611b4c57611b4b61115f565b5b5f611b5984828501611b23565b91505092915050565b5f6020820190508181035f830152611b7a81846117ea565b905092915050565b5f819050815f5260205f209050919050565b5f6020601f8301049050919050565b5f82821b905092915050565b5f60088302611bde7fffffffffffffffffffffffffffffffffffffffffffffffffffffffffffffffff82611ba3565b611be88683611ba3565b95508019841693508086168417925050509392505050565b5f611c1a611c15611c1084611167565b6115fb565b611167565b9050919050565b5f819050919050565b611c3383611c00565b611c47611c3f82611c21565b848454611baf565b825550505050565b5f90565b611c5b611c4f565b611c66818484611c2a565b505050565b5b81811015611c8957611c7e5f82611c53565b600181019050611c6c565b5050565b601f821115611cce57611c9f81611b82565b611ca884611b94565b81016020851015611cb7578190505b611ccb611cc385611b94565b830182611c6b565b50505b505050565b5f82821c905092915050565b5f611cee5f1984600802611cd3565b1980831691505092915050565b5f611d068383611cdf565b9150826002028217905092915050565b611d1f8261122d565b67ffffffffffffffff811115611d3857611d37611427565b5b611d428254611a49565b611d4d828285611c8d565b5f60209050601f831160018114611d7e575f8415611d6c578287015190505b611d768582611cfb565b865550611ddd565b601f198416611d8c86611b82565b5f5b82811015611db357848901518255600182019150602085019450602081019050611d8e565b86831015611dd05784890151611dcc601f891682611cdf565b8355505b6001600288020188555050505b505050505050565b5f60c083015f830151611dfa5f86018261121e565b5060208301518482036020860152611e12828261127f565b91505060408301518482036040860152611e2c828261127f565b9150506060830151611e4160608601826112b7565b506080830151611e5460808601826112b7565b5060a0830151611e6760a08601826112d1565b508091505092915050565b5f6040820190508181035f830152611e8a8185611de5565b9050611e9960208301846115d3565b9392505050565b7f496e76616c696420506572706f73616c204964000000000000000000000000005f82015250565b5f611ed46013836117da565b9150611edf82611ea0565b602082019050919050565b5f6020820190508181035f830152611f0181611ec8565b9050919050565b5f604082019050611f1b5f8301856115d3565b611f2860208301846115d3565b9392505050565b7f4f6e6c79206d656d62657220766f7465207468697320706572706f73616c00005f82015250565b5f611f63601e836117da565b9150611f6e82611f2f565b602082019050919050565b5f6020820190508181035f830152611f9081611f57565b9050919050565b7f416c726561647920766f7465642e0000000000000000000000000000000000005f82015250565b5f611fcb600e836117da565b9150611fd682611f97565b602082019050919050565b5f6020820190508181035f830152611ff881611fbf565b9050919050565b7f566f7465205072696365206973206e6f74206d617463686564000000000000005f82015250565b5f6120336019836117da565b915061203e82611fff565b602082019050919050565b5f6020820190508181035f83015261206081612027565b9050919050565b5f60408201905061207a5f8301856115d3565b6120876020830184611822565b9392505050565b7f4e487b71000000000000000000000000000000000000000000000000000000005f52601160045260245ffd5b5f6120c582611167565b91507fffffffffffffffffffffffffffffffffffffffffffffffffffffffffffffffff82036120f7576120f661208e565b5b600182019050919050565b5f6040820190506121155f830185611822565b61212260208301846115d3565b939250505056fe4f6e6c7920746865206f776e6572206f7220616e2061646d696e2063616e20637265617465206e657720706572706f73616ca2646970667358221220adf5fe4441d9bf1db07bbfc9a1a5668f337d302a4f4680cd414ec2994f5c2ecb64736f6c63430008140033",
  "immutableReferences": {},
  "source": "// SPDX-License-Identifier: MIT\npragma solidity ^0.8.20;\n\nimport \"@openzeppelin/contracts/access/Ownable.sol\";\n\nimport \"./Auth.sol\";\nimport \"./Token.sol\";\nimport \"./Membership.sol\";\n\ncontract GovernancePerposal is Ownable {\n    Auth public auth;\n    Token public token;\n    Membership public membership;\n\n    struct Perposal {\n        address perposer;\n        string name;\n        string description;\n        uint256 voteCount;\n        uint256 votePrice;\n        bool excuted;\n    }\n\n    Perposal[] public perposals;\n    mapping(uint256 => mapping(address => bool)) public votes;\n\n    constructor(\n        address _authAddress,\n        address _tokenAddress,\n        address _membershipAddress\n    ) Ownable(msg.sender) {\n        auth = Auth(_authAddress);\n        token = Token(_tokenAddress);\n        membership = Membership(_membershipAddress);\n    }\n\n    event PerposalCreated(Perposal createdPerposal, address perposer);\n    event Voted(uint256 perposalId, address voter);\n    event PerposalExcuted(uint256 perposalId);\n\n    modifier onlyOwnerOrAdmin(string memory error) {\n        bytes32 adminRole = auth.AdminRoleAccess();\n\n        require(\n            msg.sender == owner() || auth.checkHasRole(adminRole, msg.sender),\n            error\n        );\n        _;\n    }\n\n    function createPerposal(string memory name,\n        string memory description,\n        uint256 price\n    )\n        public\n        onlyOwnerOrAdmin(\"Only the owner or an admin can create new perposal\")\n    {\n        Perposal memory newPerposal = Perposal({\n            perposer: msg.sender,\n            name:name,\n            description: description,\n            voteCount: 0,\n            votePrice: price,\n            excuted: false\n        });\n        perposals.push(newPerposal);\n\n        emit PerposalCreated(newPerposal, msg.sender);\n    }\n\n    function vote(uint256 _perposalId, uint256 amount) public {\n        require(_perposalId < perposals.length, \"Invalid Perposal Id\");\n        require(\n            membership.isMember(msg.sender, perposals[_perposalId].perposer),\n            \"Only member vote this perposal\"\n        );\n        require(!votes[_perposalId][msg.sender], \"Already voted.\");\n        require(!perposals[_perposalId].excuted, \"Perposal already excuted\");\n        require(\n            perposals[_perposalId].votePrice == amount,\n            \"Vote Price is not matched\"\n        );\n\n        token.Burn(msg.sender, perposals[_perposalId].votePrice);\n        perposals[_perposalId].voteCount++;\n        votes[_perposalId][msg.sender] = true;\n        emit Voted(_perposalId, msg.sender);\n    }\n\n    function getAllPerposal() public view returns (Perposal[] memory) {\n        return perposals;\n    }\n\n    function excutePerposal(uint256 _perposalId) public onlyOwner {\n        require(_perposalId < perposals.length, \"Invalid perposal id\");\n        require(perposals[_perposalId].voteCount > 0, \"Perposal has no vote\");\n        require(perposals[_perposalId].excuted, \"Perposal already excuted\");\n\n        perposals[_perposalId].excuted = true;\n        emit PerposalExcuted(_perposalId);\n    }\n}\n",
  "sourcePath": "C:\\Workspace\\Practice\\Blockchain-Projects-main\\blockchain\\Truffle\\contracts\\DAO\\GovernancePerposal.sol",
  "compiler": {
    "name": "solc",
    "version": "0.8.20+commit.a1b79de6.Emscripten.clang"
  },
  "schemaVersion": "3.4.16",
  "updatedAt": "2024-09-06T07:58:50.412Z",
  "devdoc": {
    "errors": {
      "OwnableInvalidOwner(address)": [
        {
          "details": "The owner is not a valid owner account. (eg. `address(0)`)"
        }
      ],
      "OwnableUnauthorizedAccount(address)": [
        {
          "details": "The caller account is not authorized to perform an operation."
        }
      ]
    },
    "kind": "dev",
    "methods": {
      "owner()": {
        "details": "Returns the address of the current owner."
      },
      "renounceOwnership()": {
        "details": "Leaves the contract without owner. It will not be possible to call `onlyOwner` functions. Can only be called by the current owner. NOTE: Renouncing ownership will leave the contract without an owner, thereby disabling any functionality that is only available to the owner."
      },
      "transferOwnership(address)": {
        "details": "Transfers ownership of the contract to a new account (`newOwner`). Can only be called by the current owner."
      }
    },
    "version": 1
  },
  "userdoc": {
    "kind": "user",
    "methods": {},
    "version": 1
  }
}