{
  "contractName": "Governance",
  "abi": [
    {
      "inputs": [
        {
          "internalType": "address",
          "name": "_authAddress",
          "type": "address"
        }
      ],
      "stateMutability": "nonpayable",
      "type": "constructor"
    },
    {
      "inputs": [
        {
          "internalType": "address",
          "name": "owner",
          "type": "address"
        }
      ],
      "name": "OwnableInvalidOwner",
      "type": "error"
    },
    {
      "inputs": [
        {
          "internalType": "address",
          "name": "account",
          "type": "address"
        }
      ],
      "name": "OwnableUnauthorizedAccount",
      "type": "error"
    },
    {
      "anonymous": false,
      "inputs": [
        {
          "indexed": true,
          "internalType": "address",
          "name": "previousOwner",
          "type": "address"
        },
        {
          "indexed": true,
          "internalType": "address",
          "name": "newOwner",
          "type": "address"
        }
      ],
      "name": "OwnershipTransferred",
      "type": "event"
    },
    {
      "anonymous": false,
      "inputs": [
        {
          "components": [
            {
              "internalType": "address",
              "name": "perposer",
              "type": "address"
            },
            {
              "internalType": "string",
              "name": "description",
              "type": "string"
            },
            {
              "internalType": "uint256",
              "name": "voteCount",
              "type": "uint256"
            },
            {
              "internalType": "bool",
              "name": "excuted",
              "type": "bool"
            }
          ],
          "indexed": false,
          "internalType": "struct Governance.Perposal",
          "name": "createdPerposal",
          "type": "tuple"
        },
        {
          "indexed": false,
          "internalType": "address",
          "name": "perposer",
          "type": "address"
        }
      ],
      "name": "perposalCreated",
      "type": "event"
    },
    {
      "inputs": [],
      "name": "ADMIN_ROLE",
      "outputs": [
        {
          "internalType": "bytes32",
          "name": "",
          "type": "bytes32"
        }
      ],
      "stateMutability": "view",
      "type": "function"
    },
    {
      "inputs": [],
      "name": "auth",
      "outputs": [
        {
          "internalType": "contract Auth",
          "name": "",
          "type": "address"
        }
      ],
      "stateMutability": "view",
      "type": "function"
    },
    {
      "inputs": [],
      "name": "owner",
      "outputs": [
        {
          "internalType": "address",
          "name": "",
          "type": "address"
        }
      ],
      "stateMutability": "view",
      "type": "function"
    },
    {
      "inputs": [
        {
          "internalType": "uint256",
          "name": "",
          "type": "uint256"
        }
      ],
      "name": "perposals",
      "outputs": [
        {
          "internalType": "address",
          "name": "perposer",
          "type": "address"
        },
        {
          "internalType": "string",
          "name": "description",
          "type": "string"
        },
        {
          "internalType": "uint256",
          "name": "voteCount",
          "type": "uint256"
        },
        {
          "internalType": "bool",
          "name": "excuted",
          "type": "bool"
        }
      ],
      "stateMutability": "view",
      "type": "function"
    },
    {
      "inputs": [],
      "name": "renounceOwnership",
      "outputs": [],
      "stateMutability": "nonpayable",
      "type": "function"
    },
    {
      "inputs": [
        {
          "internalType": "address",
          "name": "newOwner",
          "type": "address"
        }
      ],
      "name": "transferOwnership",
      "outputs": [],
      "stateMutability": "nonpayable",
      "type": "function"
    },
    {
      "inputs": [
        {
          "internalType": "uint256",
          "name": "",
          "type": "uint256"
        },
        {
          "internalType": "address",
          "name": "",
          "type": "address"
        }
      ],
      "name": "votes",
      "outputs": [
        {
          "internalType": "bool",
          "name": "",
          "type": "bool"
        }
      ],
      "stateMutability": "view",
      "type": "function"
    },
    {
      "inputs": [
        {
          "internalType": "string",
          "name": "description",
          "type": "string"
        }
      ],
      "name": "createPerposal",
      "outputs": [],
      "stateMutability": "nonpayable",
      "type": "function"
    }
  ],
  "bytecode": "0x608060405234801562000010575f80fd5b506040516200135238038062001352833981810160405281019062000036919062000229565b335f73ffffffffffffffffffffffffffffffffffffffff168173ffffffffffffffffffffffffffffffffffffffff1603620000aa575f6040517f1e4fbdf7000000000000000000000000000000000000000000000000000000008152600401620000a191906200026a565b60405180910390fd5b620000bb816200010360201b60201c565b508060015f6101000a81548173ffffffffffffffffffffffffffffffffffffffff021916908373ffffffffffffffffffffffffffffffffffffffff1602179055505062000285565b5f805f9054906101000a900473ffffffffffffffffffffffffffffffffffffffff169050815f806101000a81548173ffffffffffffffffffffffffffffffffffffffff021916908373ffffffffffffffffffffffffffffffffffffffff1602179055508173ffffffffffffffffffffffffffffffffffffffff168173ffffffffffffffffffffffffffffffffffffffff167f8be0079c531659141344cd1fd0a4f28419497f9722a3daafe3b4186f6b6457e060405160405180910390a35050565b5f80fd5b5f73ffffffffffffffffffffffffffffffffffffffff82169050919050565b5f620001f382620001c8565b9050919050565b6200020581620001e7565b811462000210575f80fd5b50565b5f815190506200022381620001fa565b92915050565b5f60208284031215620002415762000240620001c4565b5b5f620002508482850162000213565b91505092915050565b6200026481620001e7565b82525050565b5f6020820190506200027f5f83018462000259565b92915050565b6110bf80620002935f395ff3fe608060405234801561000f575f80fd5b5060043610610086575f3560e01c8063d23254b411610059578063d23254b4146100ec578063de9375f21461011c578063f2fde38b1461013a578063ff28f4dc1461015657610086565b8063715018a61461008a57806375b238fc146100945780638da5cb5b146100b2578063d1d6a1ee146100d0575b5f80fd5b610092610189565b005b61009c61019c565b6040516100a99190610789565b60405180910390f35b6100ba6101c0565b6040516100c791906107e1565b60405180910390f35b6100ea60048036038101906100e59190610947565b6101e7565b005b610106600480360381019061010191906109eb565b610463565b6040516101139190610a43565b60405180910390f35b61012461048d565b6040516101319190610ab7565b60405180910390f35b610154600480360381019061014f9190610ad0565b6104b2565b005b610170600480360381019061016b9190610afb565b610536565b6040516101809493929190610baf565b60405180910390f35b610191610622565b61019a5f6106a9565b565b7fdf8b4c520ffe197c5343c6f5aec59570151ef9a492f2c624fd45ddde6135ec4281565b5f805f9054906101000a900473ffffffffffffffffffffffffffffffffffffffff16905090565b604051806060016040528060318152602001611059603191396102086101c0565b73ffffffffffffffffffffffffffffffffffffffff163373ffffffffffffffffffffffffffffffffffffffff1614806102f8575060015f9054906101000a900473ffffffffffffffffffffffffffffffffffffffff1673ffffffffffffffffffffffffffffffffffffffff16639af6e1957fdf8b4c520ffe197c5343c6f5aec59570151ef9a492f2c624fd45ddde6135ec42336040518363ffffffff1660e01b81526004016102b8929190610bf9565b602060405180830381865afa1580156102d3573d5f803e3d5ffd5b505050506040513d601f19601f820116820180604052508101906102f79190610c4a565b5b819061033a576040517f08c379a00000000000000000000000000000000000000000000000000000000081526004016103319190610c75565b60405180910390fd5b505f60405180608001604052803373ffffffffffffffffffffffffffffffffffffffff1681526020018481526020015f81526020015f15158152509050600281908060018154018082558091505060019003905f5260205f2090600402015f909190919091505f820151815f015f6101000a81548173ffffffffffffffffffffffffffffffffffffffff021916908373ffffffffffffffffffffffffffffffffffffffff16021790555060208201518160010190816103f99190610e86565b50604082015181600201556060820151816003015f6101000a81548160ff02191690831515021790555050507fc7fd29752d59c0198b066f6638405e362a60dd98df3db333b3fccd8649c31137813360405161045692919061102a565b60405180910390a1505050565b6003602052815f5260405f20602052805f5260405f205f915091509054906101000a900460ff1681565b60015f9054906101000a900473ffffffffffffffffffffffffffffffffffffffff1681565b6104ba610622565b5f73ffffffffffffffffffffffffffffffffffffffff168173ffffffffffffffffffffffffffffffffffffffff160361052a575f6040517f1e4fbdf700000000000000000000000000000000000000000000000000000000815260040161052191906107e1565b60405180910390fd5b610533816106a9565b50565b60028181548110610545575f80fd5b905f5260205f2090600402015f91509050805f015f9054906101000a900473ffffffffffffffffffffffffffffffffffffffff169080600101805461058990610cc2565b80601f01602080910402602001604051908101604052809291908181526020018280546105b590610cc2565b80156106005780601f106105d757610100808354040283529160200191610600565b820191905f5260205f20905b8154815290600101906020018083116105e357829003601f168201915b505050505090806002015490806003015f9054906101000a900460ff16905084565b61062a61076a565b73ffffffffffffffffffffffffffffffffffffffff166106486101c0565b73ffffffffffffffffffffffffffffffffffffffff16146106a75761066b61076a565b6040517f118cdaa700000000000000000000000000000000000000000000000000000000815260040161069e91906107e1565b60405180910390fd5b565b5f805f9054906101000a900473ffffffffffffffffffffffffffffffffffffffff169050815f806101000a81548173ffffffffffffffffffffffffffffffffffffffff021916908373ffffffffffffffffffffffffffffffffffffffff1602179055508173ffffffffffffffffffffffffffffffffffffffff168173ffffffffffffffffffffffffffffffffffffffff167f8be0079c531659141344cd1fd0a4f28419497f9722a3daafe3b4186f6b6457e060405160405180910390a35050565b5f33905090565b5f819050919050565b61078381610771565b82525050565b5f60208201905061079c5f83018461077a565b92915050565b5f73ffffffffffffffffffffffffffffffffffffffff82169050919050565b5f6107cb826107a2565b9050919050565b6107db816107c1565b82525050565b5f6020820190506107f45f8301846107d2565b92915050565b5f604051905090565b5f80fd5b5f80fd5b5f80fd5b5f80fd5b5f601f19601f8301169050919050565b7f4e487b71000000000000000000000000000000000000000000000000000000005f52604160045260245ffd5b61085982610813565b810181811067ffffffffffffffff8211171561087857610877610823565b5b80604052505050565b5f61088a6107fa565b90506108968282610850565b919050565b5f67ffffffffffffffff8211156108b5576108b4610823565b5b6108be82610813565b9050602081019050919050565b828183375f83830152505050565b5f6108eb6108e68461089b565b610881565b9050828152602081018484840111156109075761090661080f565b5b6109128482856108cb565b509392505050565b5f82601f83011261092e5761092d61080b565b5b813561093e8482602086016108d9565b91505092915050565b5f6020828403121561095c5761095b610803565b5b5f82013567ffffffffffffffff81111561097957610978610807565b5b6109858482850161091a565b91505092915050565b5f819050919050565b6109a08161098e565b81146109aa575f80fd5b50565b5f813590506109bb81610997565b92915050565b6109ca816107c1565b81146109d4575f80fd5b50565b5f813590506109e5816109c1565b92915050565b5f8060408385031215610a0157610a00610803565b5b5f610a0e858286016109ad565b9250506020610a1f858286016109d7565b9150509250929050565b5f8115159050919050565b610a3d81610a29565b82525050565b5f602082019050610a565f830184610a34565b92915050565b5f819050919050565b5f610a7f610a7a610a75846107a2565b610a5c565b6107a2565b9050919050565b5f610a9082610a65565b9050919050565b5f610aa182610a86565b9050919050565b610ab181610a97565b82525050565b5f602082019050610aca5f830184610aa8565b92915050565b5f60208284031215610ae557610ae4610803565b5b5f610af2848285016109d7565b91505092915050565b5f60208284031215610b1057610b0f610803565b5b5f610b1d848285016109ad565b91505092915050565b5f81519050919050565b5f82825260208201905092915050565b5f5b83811015610b5d578082015181840152602081019050610b42565b5f8484015250505050565b5f610b7282610b26565b610b7c8185610b30565b9350610b8c818560208601610b40565b610b9581610813565b840191505092915050565b610ba98161098e565b82525050565b5f608082019050610bc25f8301876107d2565b8181036020830152610bd48186610b68565b9050610be36040830185610ba0565b610bf06060830184610a34565b95945050505050565b5f604082019050610c0c5f83018561077a565b610c1960208301846107d2565b9392505050565b610c2981610a29565b8114610c33575f80fd5b50565b5f81519050610c4481610c20565b92915050565b5f60208284031215610c5f57610c5e610803565b5b5f610c6c84828501610c36565b91505092915050565b5f6020820190508181035f830152610c8d8184610b68565b905092915050565b7f4e487b71000000000000000000000000000000000000000000000000000000005f52602260045260245ffd5b5f6002820490506001821680610cd957607f821691505b602082108103610cec57610ceb610c95565b5b50919050565b5f819050815f5260205f209050919050565b5f6020601f8301049050919050565b5f82821b905092915050565b5f60088302610d4e7fffffffffffffffffffffffffffffffffffffffffffffffffffffffffffffffff82610d13565b610d588683610d13565b95508019841693508086168417925050509392505050565b5f610d8a610d85610d808461098e565b610a5c565b61098e565b9050919050565b5f819050919050565b610da383610d70565b610db7610daf82610d91565b848454610d1f565b825550505050565b5f90565b610dcb610dbf565b610dd6818484610d9a565b505050565b5b81811015610df957610dee5f82610dc3565b600181019050610ddc565b5050565b601f821115610e3e57610e0f81610cf2565b610e1884610d04565b81016020851015610e27578190505b610e3b610e3385610d04565b830182610ddb565b50505b505050565b5f82821c905092915050565b5f610e5e5f1984600802610e43565b1980831691505092915050565b5f610e768383610e4f565b9150826002028217905092915050565b610e8f82610b26565b67ffffffffffffffff811115610ea857610ea7610823565b5b610eb28254610cc2565b610ebd828285610dfd565b5f60209050601f831160018114610eee575f8415610edc578287015190505b610ee68582610e6b565b865550610f4d565b601f198416610efc86610cf2565b5f5b82811015610f2357848901518255600182019150602085019450602081019050610efe565b86831015610f405784890151610f3c601f891682610e4f565b8355505b6001600288020188555050505b505050505050565b610f5e816107c1565b82525050565b5f82825260208201905092915050565b5f610f7e82610b26565b610f888185610f64565b9350610f98818560208601610b40565b610fa181610813565b840191505092915050565b610fb58161098e565b82525050565b610fc481610a29565b82525050565b5f608083015f830151610fdf5f860182610f55565b5060208301518482036020860152610ff78282610f74565b915050604083015161100c6040860182610fac565b50606083015161101f6060860182610fbb565b508091505092915050565b5f6040820190508181035f8301526110428185610fca565b905061105160208301846107d2565b939250505056fe4f6e6c7920746865206f776e6572206f7220616e2061646d696e2063616e2063616c6c20746869732066756e6374696f6ea2646970667358221220eb1a15eb58fe9da046ee78fb81ef6e4d5502e0458f1d4f6820598933eaf6cd0f64736f6c63430008140033",
  "immutableReferences": {},
  "source": "// SPDX-License-Identifier: MIT\r\npragma solidity ^0.8.20;\r\n\r\nimport \"@openzeppelin/contracts/access/Ownable.sol\";\r\nimport \"./Auth.sol\";\r\n\r\ncontract Governance is Ownable {\r\n    Auth public auth;\r\n    bytes32 public constant ADMIN_ROLE = keccak256(\"ADMIN\");\r\n\r\n    struct Perposal {\r\n        address perposer;\r\n        string description;\r\n        uint256 voteCount;\r\n        bool excuted;\r\n    }\r\n\r\n    Perposal[] public perposals;\r\n    mapping(uint256 => mapping(address => bool)) public votes;\r\n\r\n    constructor(address _authAddress) Ownable(msg.sender) {\r\n        auth = Auth(_authAddress);\r\n    }\r\n\r\n    event perposalCreated(Perposal createdPerposal, address perposer);\r\n\r\n    modifier onlyOwnerOrAdmin(string memory error) {\r\n        require(\r\n            msg.sender == owner() || auth.checkHasRole(ADMIN_ROLE, msg.sender),\r\n            error\r\n        );\r\n        _;\r\n    }\r\n    function createPerposal(string memory description) public onlyOwnerOrAdmin('Only the owner or an admin can call this function') {\r\n        Perposal memory newPerposal = Perposal({\r\n            perposer: msg.sender,\r\n            description: description,\r\n            voteCount: 0,\r\n            excuted: false\r\n        });\r\n        perposals.push(newPerposal);\r\n\r\n        emit perposalCreated(newPerposal, msg.sender);\r\n    }\r\n}\r\n",
  "sourcePath": "C:\\Workspace\\Practice\\Blockchain-Projects-main\\Blockchain-Projects-main\\Blockchain-Projects-main\\Truffle\\contracts\\DAO\\Governance.sol",
  "compiler": {
    "name": "solc",
    "version": "0.8.20+commit.a1b79de6.Emscripten.clang"
  },
  "schemaVersion": "3.4.16",
  "updatedAt": "2024-08-30T10:35:54.231Z",
  "devdoc": {
    "errors": {
      "OwnableInvalidOwner(address)": [
        {
          "details": "The owner is not a valid owner account. (eg. `address(0)`)"
        }
      ],
      "OwnableUnauthorizedAccount(address)": [
        {
          "details": "The caller account is not authorized to perform an operation."
        }
      ]
    },
    "kind": "dev",
    "methods": {
      "owner()": {
        "details": "Returns the address of the current owner."
      },
      "renounceOwnership()": {
        "details": "Leaves the contract without owner. It will not be possible to call `onlyOwner` functions. Can only be called by the current owner. NOTE: Renouncing ownership will leave the contract without an owner, thereby disabling any functionality that is only available to the owner."
      },
      "transferOwnership(address)": {
        "details": "Transfers ownership of the contract to a new account (`newOwner`). Can only be called by the current owner."
      }
    },
    "version": 1
  },
  "userdoc": {
    "kind": "user",
    "methods": {},
    "version": 1
  }
}