{
  "contractName": "Lottery",
  "abi": [
    {
      "inputs": [
        {
          "internalType": "uint256",
          "name": "_ticketPrice",
          "type": "uint256"
        }
      ],
      "stateMutability": "nonpayable",
      "type": "constructor"
    },
    {
      "anonymous": false,
      "inputs": [
        {
          "indexed": true,
          "internalType": "address",
          "name": "buyer",
          "type": "address"
        },
        {
          "indexed": false,
          "internalType": "uint256",
          "name": "ticketCount",
          "type": "uint256"
        }
      ],
      "name": "TicketPurchase",
      "type": "event"
    },
    {
      "anonymous": false,
      "inputs": [
        {
          "indexed": true,
          "internalType": "address",
          "name": "winner",
          "type": "address"
        },
        {
          "indexed": false,
          "internalType": "uint256",
          "name": "prizeAmount",
          "type": "uint256"
        }
      ],
      "name": "WinnerDrawer",
      "type": "event"
    },
    {
      "inputs": [],
      "name": "owner",
      "outputs": [
        {
          "internalType": "address",
          "name": "",
          "type": "address"
        }
      ],
      "stateMutability": "view",
      "type": "function"
    },
    {
      "inputs": [
        {
          "internalType": "uint256",
          "name": "",
          "type": "uint256"
        }
      ],
      "name": "participants",
      "outputs": [
        {
          "internalType": "address",
          "name": "",
          "type": "address"
        }
      ],
      "stateMutability": "view",
      "type": "function"
    },
    {
      "inputs": [],
      "name": "ticketPrice",
      "outputs": [
        {
          "internalType": "uint256",
          "name": "",
          "type": "uint256"
        }
      ],
      "stateMutability": "view",
      "type": "function"
    },
    {
      "inputs": [
        {
          "internalType": "address",
          "name": "",
          "type": "address"
        }
      ],
      "name": "ticketsCount",
      "outputs": [
        {
          "internalType": "uint256",
          "name": "",
          "type": "uint256"
        }
      ],
      "stateMutability": "view",
      "type": "function"
    },
    {
      "inputs": [],
      "name": "BuyTickets",
      "outputs": [],
      "stateMutability": "payable",
      "type": "function"
    },
    {
      "inputs": [],
      "name": "DrawWinner",
      "outputs": [],
      "stateMutability": "nonpayable",
      "type": "function"
    },
    {
      "inputs": [],
      "name": "GetParticipants",
      "outputs": [
        {
          "internalType": "address[]",
          "name": "",
          "type": "address[]"
        }
      ],
      "stateMutability": "view",
      "type": "function"
    },
    {
      "inputs": [
        {
          "internalType": "address",
          "name": "_address",
          "type": "address"
        }
      ],
      "name": "GetTicketsCount",
      "outputs": [
        {
          "internalType": "uint256",
          "name": "",
          "type": "uint256"
        }
      ],
      "stateMutability": "view",
      "type": "function"
    },
    {
      "inputs": [],
      "name": "GetTicketPrice",
      "outputs": [
        {
          "internalType": "uint256",
          "name": "",
          "type": "uint256"
        }
      ],
      "stateMutability": "view",
      "type": "function"
    }
  ],
  "bytecode": "0x608060405234801561001057600080fd5b50604051610f81380380610f81833981810160405281019061003291906100ba565b336000806101000a81548173ffffffffffffffffffffffffffffffffffffffff021916908373ffffffffffffffffffffffffffffffffffffffff16021790555080600181905550506100e7565b600080fd5b6000819050919050565b61009781610084565b81146100a257600080fd5b50565b6000815190506100b48161008e565b92915050565b6000602082840312156100d0576100cf61007f565b5b60006100de848285016100a5565b91505092915050565b610e8b806100f66000396000f3fe6080604052600436106100865760003560e01c80637e1355e8116100595780637e1355e8146101475780638da5cb5b1461018457806391d8b14e146101af578063bd5ee970146101b9578063d8b801a2146101e457610086565b806311dca21e1461008b5780631209b1f6146100a257806329885590146100cd57806335c1d3491461010a575b600080fd5b34801561009757600080fd5b506100a061020f565b005b3480156100ae57600080fd5b506100b761047e565b6040516100c491906107c2565b60405180910390f35b3480156100d957600080fd5b506100f460048036038101906100ef9190610840565b610484565b60405161010191906107c2565b60405180910390f35b34801561011657600080fd5b50610131600480360381019061012c9190610899565b61049c565b60405161013e91906108d5565b60405180910390f35b34801561015357600080fd5b5061016e60048036038101906101699190610840565b6104db565b60405161017b91906107c2565b60405180910390f35b34801561019057600080fd5b50610199610524565b6040516101a691906108d5565b60405180910390f35b6101b7610548565b005b3480156101c557600080fd5b506101ce6106d3565b6040516101db91906109ae565b60405180910390f35b3480156101f057600080fd5b506101f9610761565b60405161020691906107c2565b60405180910390f35b60008054906101000a900473ffffffffffffffffffffffffffffffffffffffff1673ffffffffffffffffffffffffffffffffffffffff163373ffffffffffffffffffffffffffffffffffffffff161461029d576040517f08c379a000000000000000000000000000000000000000000000000000000000815260040161029490610a2d565b60405180910390fd5b6000600280549050116102e5576040517f08c379a00000000000000000000000000000000000000000000000000000000081526004016102dc90610a99565b60405180910390fd5b60006002805490504244600260405160200161030393929190610bf8565b6040516020818303038152906040528051906020012060001c6103269190610c60565b905060006002828154811061033e5761033d610c91565b5b9060005260206000200160009054906101000a900473ffffffffffffffffffffffffffffffffffffffff169050600047905060008273ffffffffffffffffffffffffffffffffffffffff168260405161039690610cf1565b60006040518083038185875af1925050503d80600081146103d3576040519150601f19603f3d011682016040523d82523d6000602084013e6103d8565b606091505b505090508061041c576040517f08c379a000000000000000000000000000000000000000000000000000000000815260040161041390610d52565b60405180910390fd5b6002600061042a919061076b565b8273ffffffffffffffffffffffffffffffffffffffff167f204f9dbf0e2d1b9ca7ef4a417a5e74257bd7f4642982fb4b3dead0e424ae70708360405161047091906107c2565b60405180910390a250505050565b60015481565b60036020528060005260406000206000915090505481565b600281815481106104ac57600080fd5b906000526020600020016000915054906101000a900473ffffffffffffffffffffffffffffffffffffffff1681565b6000600360008373ffffffffffffffffffffffffffffffffffffffff1673ffffffffffffffffffffffffffffffffffffffff168152602001908152602001600020549050919050565b60008054906101000a900473ffffffffffffffffffffffffffffffffffffffff1681565b600154341461058c576040517f08c379a000000000000000000000000000000000000000000000000000000000815260040161058390610dbe565b60405180910390fd5b6002339080600181540180825580915050600190039060005260206000200160009091909190916101000a81548173ffffffffffffffffffffffffffffffffffffffff021916908373ffffffffffffffffffffffffffffffffffffffff160217905550600360003373ffffffffffffffffffffffffffffffffffffffff1673ffffffffffffffffffffffffffffffffffffffff168152602001908152602001600020600081548092919061063f90610e0d565b91905055503373ffffffffffffffffffffffffffffffffffffffff167fdd60b3dc4ac9d046fcab727db0fe74290c79d3050ce444d61e209a4ac0ce0bf2600360003373ffffffffffffffffffffffffffffffffffffffff1673ffffffffffffffffffffffffffffffffffffffff168152602001908152602001600020546040516106c991906107c2565b60405180910390a2565b6060600280548060200260200160405190810160405280929190818152602001828054801561075757602002820191906000526020600020905b8160009054906101000a900473ffffffffffffffffffffffffffffffffffffffff1673ffffffffffffffffffffffffffffffffffffffff168152602001906001019080831161070d575b5050505050905090565b6000600154905090565b5080546000825590600052602060002090810190610789919061078c565b50565b5b808211156107a557600081600090555060010161078d565b5090565b6000819050919050565b6107bc816107a9565b82525050565b60006020820190506107d760008301846107b3565b92915050565b600080fd5b600073ffffffffffffffffffffffffffffffffffffffff82169050919050565b600061080d826107e2565b9050919050565b61081d81610802565b811461082857600080fd5b50565b60008135905061083a81610814565b92915050565b600060208284031215610856576108556107dd565b5b60006108648482850161082b565b91505092915050565b610876816107a9565b811461088157600080fd5b50565b6000813590506108938161086d565b92915050565b6000602082840312156108af576108ae6107dd565b5b60006108bd84828501610884565b91505092915050565b6108cf81610802565b82525050565b60006020820190506108ea60008301846108c6565b92915050565b600081519050919050565b600082825260208201905092915050565b6000819050602082019050919050565b61092581610802565b82525050565b6000610937838361091c565b60208301905092915050565b6000602082019050919050565b600061095b826108f0565b61096581856108fb565b93506109708361090c565b8060005b838110156109a1578151610988888261092b565b975061099383610943565b925050600181019050610974565b5085935050505092915050565b600060208201905081810360008301526109c88184610950565b905092915050565b600082825260208201905092915050565b7f4f6e6c7920466f72204f776e6572000000000000000000000000000000000000600082015250565b6000610a17600e836109d0565b9150610a22826109e1565b602082019050919050565b60006020820190508181036000830152610a4681610a0a565b9050919050565b7f4e6f205061727469636970616e74730000000000000000000000000000000000600082015250565b6000610a83600f836109d0565b9150610a8e82610a4d565b602082019050919050565b60006020820190508181036000830152610ab281610a76565b9050919050565b6000819050919050565b610ad4610acf826107a9565b610ab9565b82525050565b600081549050919050565b600081905092915050565b60008190508160005260206000209050919050565b610b0e81610802565b82525050565b6000610b208383610b05565b60208301905092915050565b60008160001c9050919050565b600073ffffffffffffffffffffffffffffffffffffffff82169050919050565b6000610b6c610b6783610b2c565b610b39565b9050919050565b6000610b7f8254610b59565b9050919050565b6000600182019050919050565b6000610b9e82610ada565b610ba88185610ae5565b9350610bb383610af0565b8060005b83811015610beb57610bc882610b73565b610bd28882610b14565b9750610bdd83610b86565b925050600181019050610bb7565b5085935050505092915050565b6000610c048286610ac3565b602082019150610c148285610ac3565b602082019150610c248284610b93565b9150819050949350505050565b7f4e487b7100000000000000000000000000000000000000000000000000000000600052601260045260246000fd5b6000610c6b826107a9565b9150610c76836107a9565b925082610c8657610c85610c31565b5b828206905092915050565b7f4e487b7100000000000000000000000000000000000000000000000000000000600052603260045260246000fd5b600081905092915050565b50565b6000610cdb600083610cc0565b9150610ce682610ccb565b600082019050919050565b6000610cfc82610cce565b9150819050919050565b7f4661696c656420746f2073656e64207072697a65000000000000000000000000600082015250565b6000610d3c6014836109d0565b9150610d4782610d06565b602082019050919050565b60006020820190508181036000830152610d6b81610d2f565b9050919050565b7f496e73756666696369656e742066756e64730000000000000000000000000000600082015250565b6000610da86012836109d0565b9150610db382610d72565b602082019050919050565b60006020820190508181036000830152610dd781610d9b565b9050919050565b7f4e487b7100000000000000000000000000000000000000000000000000000000600052601160045260246000fd5b6000610e18826107a9565b91507fffffffffffffffffffffffffffffffffffffffffffffffffffffffffffffffff8203610e4a57610e49610dde565b5b60018201905091905056fea2646970667358221220195003312715de7777634d0368ec1fc5cacee9bd208fd395a22dec3e0a546ea164736f6c63430008130033",
  "immutableReferences": {},
  "source": "// SPDX-License-Identifier: MIT\npragma solidity >=0.8.0 <=0.9.0;\n\ncontract Lottery {\n    address public owner;\n    uint256 public ticketPrice;\n    address[] public participants;\n    mapping(address => uint) public ticketsCount;\n    event TicketPurchase(address indexed buyer, uint ticketCount);\n    event WinnerDrawer(address indexed winner, uint prizeAmount);\n\n    modifier ownerOnly() {\n        require(msg.sender == owner, \"Only For Owner\");\n        _;\n    }\n\n    constructor(uint256 _ticketPrice) {\n        owner = msg.sender;\n        ticketPrice = _ticketPrice;\n    }\n\n    function BuyTickets() public payable {\n        require(msg.value == ticketPrice, \"Insufficient funds\");\n\n        participants.push(msg.sender);\n        ticketsCount[msg.sender]++;\n        emit TicketPurchase(msg.sender, ticketsCount[msg.sender]);\n    }\n\n    function DrawWinner() public ownerOnly {\n        require(participants.length > 0, \"No Participants\");\n\n        uint winnerIndex = uint(\n            keccak256(\n                abi.encodePacked(\n                    block.timestamp,\n                    block.prevrandao,\n                    participants\n                )\n            )\n        ) % participants.length;\n\n        address winnerAddress = participants[winnerIndex];\n        uint prizeAmount = address(this).balance;\n\n        (bool success, ) = winnerAddress.call{value: prizeAmount}(\"\");\n        require(success, \"Failed to send prize\");\n\n        delete participants;\n\n        emit WinnerDrawer(winnerAddress, prizeAmount);\n    }\n\n    function GetParticipants() public view returns (address[] memory) {\n        return participants;\n    }\n\n    function GetTicketsCount(address _address) public view returns (uint) {\n        return ticketsCount[_address];\n    }\n\n    function GetTicketPrice() public view returns (uint) {\n        return ticketPrice;\n    }\n}\n",
  "sourcePath": "C:\\Workspace\\Projects\\Blockchain-Projects\\Truffle\\contracts\\Lottery\\Lottery.sol",
  "compiler": {
    "name": "solc",
    "version": "0.8.19+commit.7dd6d404.Emscripten.clang"
  },
  "schemaVersion": "3.4.16",
  "updatedAt": "2024-08-27T19:47:21.577Z",
  "devdoc": {
    "kind": "dev",
    "methods": {},
    "version": 1
  },
  "userdoc": {
    "kind": "user",
    "methods": {},
    "version": 1
  }
}