{
  "contractName": "Lottery",
  "abi": [
    {
      "inputs": [
        {
          "internalType": "uint256",
          "name": "_ticketPrice",
          "type": "uint256"
        }
      ],
      "stateMutability": "nonpayable",
      "type": "constructor"
    },
    {
      "anonymous": false,
      "inputs": [
        {
          "indexed": true,
          "internalType": "address",
          "name": "buyer",
          "type": "address"
        },
        {
          "indexed": false,
          "internalType": "uint256",
          "name": "ticketCount",
          "type": "uint256"
        }
      ],
      "name": "TicketPurchase",
      "type": "event"
    },
    {
      "anonymous": false,
      "inputs": [
        {
          "indexed": true,
          "internalType": "address",
          "name": "winner",
          "type": "address"
        },
        {
          "indexed": false,
          "internalType": "uint256",
          "name": "prizeAmount",
          "type": "uint256"
        }
      ],
      "name": "WinnerDrawer",
      "type": "event"
    },
    {
      "inputs": [],
      "name": "owner",
      "outputs": [
        {
          "internalType": "address",
          "name": "",
          "type": "address"
        }
      ],
      "stateMutability": "view",
      "type": "function"
    },
    {
      "inputs": [
        {
          "internalType": "uint256",
          "name": "",
          "type": "uint256"
        }
      ],
      "name": "participants",
      "outputs": [
        {
          "internalType": "address",
          "name": "",
          "type": "address"
        }
      ],
      "stateMutability": "view",
      "type": "function"
    },
    {
      "inputs": [],
      "name": "ticketPrice",
      "outputs": [
        {
          "internalType": "uint256",
          "name": "",
          "type": "uint256"
        }
      ],
      "stateMutability": "view",
      "type": "function"
    },
    {
      "inputs": [
        {
          "internalType": "address",
          "name": "",
          "type": "address"
        }
      ],
      "name": "ticketsCount",
      "outputs": [
        {
          "internalType": "uint256",
          "name": "",
          "type": "uint256"
        }
      ],
      "stateMutability": "view",
      "type": "function"
    },
    {
      "inputs": [],
      "name": "BuyTickets",
      "outputs": [],
      "stateMutability": "payable",
      "type": "function"
    },
    {
      "inputs": [],
      "name": "DrawWinner",
      "outputs": [],
      "stateMutability": "nonpayable",
      "type": "function"
    },
    {
      "inputs": [],
      "name": "GetParticipants",
      "outputs": [
        {
          "internalType": "address[]",
          "name": "",
          "type": "address[]"
        }
      ],
      "stateMutability": "view",
      "type": "function"
    },
    {
      "inputs": [
        {
          "internalType": "address",
          "name": "_address",
          "type": "address"
        }
      ],
      "name": "GetTicketsCount",
      "outputs": [
        {
          "internalType": "uint256",
          "name": "",
          "type": "uint256"
        }
      ],
      "stateMutability": "view",
      "type": "function"
    },
    {
      "inputs": [],
      "name": "GetTicketPrice",
      "outputs": [
        {
          "internalType": "uint256",
          "name": "",
          "type": "uint256"
        }
      ],
      "stateMutability": "view",
      "type": "function"
    }
  ],
  "bytecode": "0x608060405234801561000f575f80fd5b50604051610efc380380610efc833981810160405281019061003191906100b4565b335f806101000a81548173ffffffffffffffffffffffffffffffffffffffff021916908373ffffffffffffffffffffffffffffffffffffffff16021790555080600181905550506100df565b5f80fd5b5f819050919050565b61009381610081565b811461009d575f80fd5b50565b5f815190506100ae8161008a565b92915050565b5f602082840312156100c9576100c861007d565b5b5f6100d6848285016100a0565b91505092915050565b610e10806100ec5f395ff3fe608060405260043610610085575f3560e01c80637e1355e8116100585780637e1355e8146101415780638da5cb5b1461017d57806391d8b14e146101a7578063bd5ee970146101b1578063d8b801a2146101db57610085565b806311dca21e146100895780631209b1f61461009f57806329885590146100c957806335c1d34914610105575b5f80fd5b348015610094575f80fd5b5061009d610205565b005b3480156100aa575f80fd5b506100b3610466565b6040516100c0919061078d565b60405180910390f35b3480156100d4575f80fd5b506100ef60048036038101906100ea9190610804565b61046c565b6040516100fc919061078d565b60405180910390f35b348015610110575f80fd5b5061012b60048036038101906101269190610859565b610481565b6040516101389190610893565b60405180910390f35b34801561014c575f80fd5b5061016760048036038101906101629190610804565b6104bc565b604051610174919061078d565b60405180910390f35b348015610188575f80fd5b50610191610502565b60405161019e9190610893565b60405180910390f35b6101af610525565b005b3480156101bc575f80fd5b506101c56106a8565b6040516101d29190610963565b60405180910390f35b3480156101e6575f80fd5b506101ef610733565b6040516101fc919061078d565b60405180910390f35b5f8054906101000a900473ffffffffffffffffffffffffffffffffffffffff1673ffffffffffffffffffffffffffffffffffffffff163373ffffffffffffffffffffffffffffffffffffffff1614610292576040517f08c379a0000000000000000000000000000000000000000000000000000000008152600401610289906109dd565b60405180910390fd5b5f600280549050116102d9576040517f08c379a00000000000000000000000000000000000000000000000000000000081526004016102d090610a45565b60405180910390fd5b5f600280549050424460026040516020016102f693929190610b93565b604051602081830303815290604052805190602001205f1c6103189190610bf8565b90505f6002828154811061032f5761032e610c28565b5b905f5260205f20015f9054906101000a900473ffffffffffffffffffffffffffffffffffffffff1690505f4790505f8273ffffffffffffffffffffffffffffffffffffffff168260405161038290610c82565b5f6040518083038185875af1925050503d805f81146103bc576040519150601f19603f3d011682016040523d82523d5f602084013e6103c1565b606091505b5050905080610405576040517f08c379a00000000000000000000000000000000000000000000000000000000081526004016103fc90610ce0565b60405180910390fd5b60025f610412919061073c565b8273ffffffffffffffffffffffffffffffffffffffff167f204f9dbf0e2d1b9ca7ef4a417a5e74257bd7f4642982fb4b3dead0e424ae707083604051610458919061078d565b60405180910390a250505050565b60015481565b6003602052805f5260405f205f915090505481565b60028181548110610490575f80fd5b905f5260205f20015f915054906101000a900473ffffffffffffffffffffffffffffffffffffffff1681565b5f60035f8373ffffffffffffffffffffffffffffffffffffffff1673ffffffffffffffffffffffffffffffffffffffff1681526020019081526020015f20549050919050565b5f8054906101000a900473ffffffffffffffffffffffffffffffffffffffff1681565b6001543414610569576040517f08c379a000000000000000000000000000000000000000000000000000000000815260040161056090610d48565b60405180910390fd5b600233908060018154018082558091505060019003905f5260205f20015f9091909190916101000a81548173ffffffffffffffffffffffffffffffffffffffff021916908373ffffffffffffffffffffffffffffffffffffffff16021790555060035f3373ffffffffffffffffffffffffffffffffffffffff1673ffffffffffffffffffffffffffffffffffffffff1681526020019081526020015f205f81548092919061061690610d93565b91905055503373ffffffffffffffffffffffffffffffffffffffff167fdd60b3dc4ac9d046fcab727db0fe74290c79d3050ce444d61e209a4ac0ce0bf260035f3373ffffffffffffffffffffffffffffffffffffffff1673ffffffffffffffffffffffffffffffffffffffff1681526020019081526020015f205460405161069e919061078d565b60405180910390a2565b6060600280548060200260200160405190810160405280929190818152602001828054801561072957602002820191905f5260205f20905b815f9054906101000a900473ffffffffffffffffffffffffffffffffffffffff1673ffffffffffffffffffffffffffffffffffffffff16815260200190600101908083116106e0575b5050505050905090565b5f600154905090565b5080545f8255905f5260205f2090810190610757919061075a565b50565b5b80821115610771575f815f90555060010161075b565b5090565b5f819050919050565b61078781610775565b82525050565b5f6020820190506107a05f83018461077e565b92915050565b5f80fd5b5f73ffffffffffffffffffffffffffffffffffffffff82169050919050565b5f6107d3826107aa565b9050919050565b6107e3816107c9565b81146107ed575f80fd5b50565b5f813590506107fe816107da565b92915050565b5f60208284031215610819576108186107a6565b5b5f610826848285016107f0565b91505092915050565b61083881610775565b8114610842575f80fd5b50565b5f813590506108538161082f565b92915050565b5f6020828403121561086e5761086d6107a6565b5b5f61087b84828501610845565b91505092915050565b61088d816107c9565b82525050565b5f6020820190506108a65f830184610884565b92915050565b5f81519050919050565b5f82825260208201905092915050565b5f819050602082019050919050565b6108de816107c9565b82525050565b5f6108ef83836108d5565b60208301905092915050565b5f602082019050919050565b5f610911826108ac565b61091b81856108b6565b9350610926836108c6565b805f5b8381101561095657815161093d88826108e4565b9750610948836108fb565b925050600181019050610929565b5085935050505092915050565b5f6020820190508181035f83015261097b8184610907565b905092915050565b5f82825260208201905092915050565b7f4f6e6c7920466f72204f776e65720000000000000000000000000000000000005f82015250565b5f6109c7600e83610983565b91506109d282610993565b602082019050919050565b5f6020820190508181035f8301526109f4816109bb565b9050919050565b7f4e6f205061727469636970616e747300000000000000000000000000000000005f82015250565b5f610a2f600f83610983565b9150610a3a826109fb565b602082019050919050565b5f6020820190508181035f830152610a5c81610a23565b9050919050565b5f819050919050565b610a7d610a7882610775565b610a63565b82525050565b5f81549050919050565b5f81905092915050565b5f819050815f5260205f209050919050565b610ab2816107c9565b82525050565b5f610ac38383610aa9565b60208301905092915050565b5f815f1c9050919050565b5f73ffffffffffffffffffffffffffffffffffffffff82169050919050565b5f610b0b610b0683610acf565b610ada565b9050919050565b5f610b1d8254610af9565b9050919050565b5f600182019050919050565b5f610b3a82610a83565b610b448185610a8d565b9350610b4f83610a97565b805f5b83811015610b8657610b6382610b12565b610b6d8882610ab8565b9750610b7883610b24565b925050600181019050610b52565b5085935050505092915050565b5f610b9e8286610a6c565b602082019150610bae8285610a6c565b602082019150610bbe8284610b30565b9150819050949350505050565b7f4e487b71000000000000000000000000000000000000000000000000000000005f52601260045260245ffd5b5f610c0282610775565b9150610c0d83610775565b925082610c1d57610c1c610bcb565b5b828206905092915050565b7f4e487b71000000000000000000000000000000000000000000000000000000005f52603260045260245ffd5b5f81905092915050565b50565b5f610c6d5f83610c55565b9150610c7882610c5f565b5f82019050919050565b5f610c8c82610c62565b9150819050919050565b7f4661696c656420746f2073656e64207072697a650000000000000000000000005f82015250565b5f610cca601483610983565b9150610cd582610c96565b602082019050919050565b5f6020820190508181035f830152610cf781610cbe565b9050919050565b7f496e73756666696369656e742066756e647300000000000000000000000000005f82015250565b5f610d32601283610983565b9150610d3d82610cfe565b602082019050919050565b5f6020820190508181035f830152610d5f81610d26565b9050919050565b7f4e487b71000000000000000000000000000000000000000000000000000000005f52601160045260245ffd5b5f610d9d82610775565b91507fffffffffffffffffffffffffffffffffffffffffffffffffffffffffffffffff8203610dcf57610dce610d66565b5b60018201905091905056fea26469706673582212206f33f0f54dddca21efe03b752796e9ce7093ef3b4f9b985047baaf1249461a7564736f6c63430008140033",
  "immutableReferences": {},
  "source": "// SPDX-License-Identifier: MIT\npragma solidity >=0.8.0 <=0.9.0;\n\ncontract Lottery {\n    address public owner;\n    uint256 public ticketPrice;\n    address[] public participants;\n    mapping(address => uint) public ticketsCount;\n    event TicketPurchase(address indexed buyer, uint ticketCount);\n    event WinnerDrawer(address indexed winner, uint prizeAmount);\n\n    modifier ownerOnly() {\n        require(msg.sender == owner, \"Only For Owner\");\n        _;\n    }\n\n    constructor(uint256 _ticketPrice) {\n        owner = msg.sender;\n        ticketPrice = _ticketPrice;\n    }\n\n    function BuyTickets() public payable {\n        require(msg.value == ticketPrice, \"Insufficient funds\");\n\n        participants.push(msg.sender);\n        ticketsCount[msg.sender]++;\n        emit TicketPurchase(msg.sender, ticketsCount[msg.sender]);\n    }\n\n    function DrawWinner() public ownerOnly {\n        require(participants.length > 0, \"No Participants\");\n\n        uint winnerIndex = uint(\n            keccak256(\n                abi.encodePacked(\n                    block.timestamp,\n                    block.prevrandao,\n                    participants\n                )\n            )\n        ) % participants.length;\n\n        address winnerAddress = participants[winnerIndex];\n        uint prizeAmount = address(this).balance;\n\n        (bool success, ) = winnerAddress.call{value: prizeAmount}(\"\");\n        require(success, \"Failed to send prize\");\n\n        delete participants;\n\n        emit WinnerDrawer(winnerAddress, prizeAmount);\n    }\n\n    function GetParticipants() public view returns (address[] memory) {\n        return participants;\n    }\n\n    function GetTicketsCount(address _address) public view returns (uint) {\n        return ticketsCount[_address];\n    }\n\n    function GetTicketPrice() public view returns (uint) {\n        return ticketPrice;\n    }\n}\n",
  "sourcePath": "C:\\Workspace\\Practice\\Blockchain-Projects-main\\blockchain\\Truffle\\contracts\\Lottery\\Lottery.sol",
  "compiler": {
    "name": "solc",
    "version": "0.8.20+commit.a1b79de6.Emscripten.clang"
  },
  "schemaVersion": "3.4.16",
  "updatedAt": "2024-09-06T07:58:50.454Z",
  "devdoc": {
    "kind": "dev",
    "methods": {},
    "version": 1
  },
  "userdoc": {
    "kind": "user",
    "methods": {},
    "version": 1
  }
}