{
  "contractName": "Membership",
  "abi": [
    {
      "inputs": [
        {
          "internalType": "address",
          "name": "_authAddress",
          "type": "address"
        }
      ],
      "stateMutability": "nonpayable",
      "type": "constructor"
    },
    {
      "anonymous": false,
      "inputs": [
        {
          "indexed": false,
          "internalType": "address",
          "name": "memberAddress",
          "type": "address"
        }
      ],
      "name": "MemberAdded",
      "type": "event"
    },
    {
      "anonymous": false,
      "inputs": [
        {
          "indexed": false,
          "internalType": "address",
          "name": "memberAddress",
          "type": "address"
        }
      ],
      "name": "MemberRemoved",
      "type": "event"
    },
    {
      "inputs": [],
      "name": "getAllMembers",
      "outputs": [
        {
          "internalType": "address[]",
          "name": "",
          "type": "address[]"
        }
      ],
      "stateMutability": "view",
      "type": "function"
    },
    {
      "inputs": [
        {
          "internalType": "address",
          "name": "memberAddress",
          "type": "address"
        },
        {
          "internalType": "address",
          "name": "adminAddress",
          "type": "address"
        }
      ],
      "name": "isMember",
      "outputs": [
        {
          "internalType": "bool",
          "name": "",
          "type": "bool"
        }
      ],
      "stateMutability": "view",
      "type": "function"
    },
    {
      "inputs": [
        {
          "internalType": "address",
          "name": "memberAddress",
          "type": "address"
        }
      ],
      "name": "addMember",
      "outputs": [],
      "stateMutability": "nonpayable",
      "type": "function"
    },
    {
      "inputs": [
        {
          "internalType": "address",
          "name": "memberAddress",
          "type": "address"
        }
      ],
      "name": "removeMember",
      "outputs": [],
      "stateMutability": "nonpayable",
      "type": "function"
    }
  ],
  "bytecode": "0x608060405234801562000010575f80fd5b50604051620010fb380380620010fb8339818101604052810190620000369190620000e1565b805f806101000a81548173ffffffffffffffffffffffffffffffffffffffff021916908373ffffffffffffffffffffffffffffffffffffffff1602179055505062000111565b5f80fd5b5f73ffffffffffffffffffffffffffffffffffffffff82169050919050565b5f620000ab8262000080565b9050919050565b620000bd816200009f565b8114620000c8575f80fd5b50565b5f81519050620000db81620000b2565b92915050565b5f60208284031215620000f957620000f86200007c565b5b5f6200010884828501620000cb565b91505092915050565b610fdc806200011f5f395ff3fe608060405234801561000f575f80fd5b506004361061004a575f3560e01c80630b1ca49a1461004e57806339ac7a081461006a5780637c0f6b351461009a578063ca6d56dc146100b8575b5f80fd5b61006860048036038101906100639190610ae4565b6100d4565b005b610084600480360381019061007f9190610b0f565b610490565b6040516100919190610b67565b60405180910390f35b6100a26105af565b6040516100af9190610c37565b60405180910390f35b6100d260048036038101906100cd9190610ae4565b610813565b005b604051806060016040528060228152602001610f85602291395f8054906101000a900473ffffffffffffffffffffffffffffffffffffffff1673ffffffffffffffffffffffffffffffffffffffff16639af6e1955f8054906101000a900473ffffffffffffffffffffffffffffffffffffffff1673ffffffffffffffffffffffffffffffffffffffff1663052ad8fd6040518163ffffffff1660e01b8152600401602060405180830381865afa158015610190573d5f803e3d5ffd5b505050506040513d601f19601f820116820180604052508101906101b49190610c8a565b336040518363ffffffff1660e01b81526004016101d2929190610cd3565b602060405180830381865afa1580156101ed573d5f803e3d5ffd5b505050506040513d601f19601f820116820180604052508101906102119190610d24565b8190610253576040517f08c379a000000000000000000000000000000000000000000000000000000000815260040161024a9190610dd9565b60405180910390fd5b505f60015f3373ffffffffffffffffffffffffffffffffffffffff1673ffffffffffffffffffffffffffffffffffffffff1681526020019081526020015f2090505f805b8280549050811015610449578473ffffffffffffffffffffffffffffffffffffffff168382815481106102cd576102cc610df9565b5b905f5260205f20015f9054906101000a900473ffffffffffffffffffffffffffffffffffffffff1673ffffffffffffffffffffffffffffffffffffffff16036104365782600184805490506103229190610e5c565b8154811061033357610332610df9565b5b905f5260205f20015f9054906101000a900473ffffffffffffffffffffffffffffffffffffffff1683828154811061036e5761036d610df9565b5b905f5260205f20015f6101000a81548173ffffffffffffffffffffffffffffffffffffffff021916908373ffffffffffffffffffffffffffffffffffffffff160217905550828054806103c4576103c3610e8f565b5b600190038181905f5260205f20015f6101000a81549073ffffffffffffffffffffffffffffffffffffffff02191690559055600191507f6e76fb4c77256006d9c38ec7d82b45a8c8f3c27b1d6766fffc42dfb8de684492856040516104299190610ebc565b60405180910390a1610449565b808061044190610ed5565b915050610297565b508061048a576040517f08c379a000000000000000000000000000000000000000000000000000000000815260040161048190610f66565b60405180910390fd5b50505050565b5f805f90505b60015f8473ffffffffffffffffffffffffffffffffffffffff1673ffffffffffffffffffffffffffffffffffffffff1681526020019081526020015f20805490508110156105a4578373ffffffffffffffffffffffffffffffffffffffff1660015f8573ffffffffffffffffffffffffffffffffffffffff1673ffffffffffffffffffffffffffffffffffffffff1681526020019081526020015f20828154811061054457610543610df9565b5b905f5260205f20015f9054906101000a900473ffffffffffffffffffffffffffffffffffffffff1673ffffffffffffffffffffffffffffffffffffffff16036105915760019150506105a9565b808061059c90610ed5565b915050610496565b505f90505b92915050565b60606040518060400160405280602081526020017f4f6e6c792041646d696e2063616e20676574207468656972204d656d626572738152505f8054906101000a900473ffffffffffffffffffffffffffffffffffffffff1673ffffffffffffffffffffffffffffffffffffffff16639af6e1955f8054906101000a900473ffffffffffffffffffffffffffffffffffffffff1673ffffffffffffffffffffffffffffffffffffffff1663052ad8fd6040518163ffffffff1660e01b8152600401602060405180830381865afa15801561068a573d5f803e3d5ffd5b505050506040513d601f19601f820116820180604052508101906106ae9190610c8a565b336040518363ffffffff1660e01b81526004016106cc929190610cd3565b602060405180830381865afa1580156106e7573d5f803e3d5ffd5b505050506040513d601f19601f8201168201806040525081019061070b9190610d24565b819061074d576040517f08c379a00000000000000000000000000000000000000000000000000000000081526004016107449190610dd9565b60405180910390fd5b5060015f3373ffffffffffffffffffffffffffffffffffffffff1673ffffffffffffffffffffffffffffffffffffffff1681526020019081526020015f2080548060200260200160405190810160405280929190818152602001828054801561080857602002820191905f5260205f20905b815f9054906101000a900473ffffffffffffffffffffffffffffffffffffffff1673ffffffffffffffffffffffffffffffffffffffff16815260200190600101908083116107bf575b505050505091505090565b6040518060400160405280601f81526020017f4f6e6c792041646d696e2063616e20616464207468656972204d656d626572008152505f8054906101000a900473ffffffffffffffffffffffffffffffffffffffff1673ffffffffffffffffffffffffffffffffffffffff16639af6e1955f8054906101000a900473ffffffffffffffffffffffffffffffffffffffff1673ffffffffffffffffffffffffffffffffffffffff1663052ad8fd6040518163ffffffff1660e01b8152600401602060405180830381865afa1580156108ec573d5f803e3d5ffd5b505050506040513d601f19601f820116820180604052508101906109109190610c8a565b336040518363ffffffff1660e01b815260040161092e929190610cd3565b602060405180830381865afa158015610949573d5f803e3d5ffd5b505050506040513d601f19601f8201168201806040525081019061096d9190610d24565b81906109af576040517f08c379a00000000000000000000000000000000000000000000000000000000081526004016109a69190610dd9565b60405180910390fd5b5060015f3373ffffffffffffffffffffffffffffffffffffffff1673ffffffffffffffffffffffffffffffffffffffff1681526020019081526020015f2082908060018154018082558091505060019003905f5260205f20015f9091909190916101000a81548173ffffffffffffffffffffffffffffffffffffffff021916908373ffffffffffffffffffffffffffffffffffffffff1602179055507fb251eb052afc73ffd02ffe85ad79990a8b3fed60d76dbc2fa2fdd7123dffd91482604051610a7a9190610ebc565b60405180910390a15050565b5f80fd5b5f73ffffffffffffffffffffffffffffffffffffffff82169050919050565b5f610ab382610a8a565b9050919050565b610ac381610aa9565b8114610acd575f80fd5b50565b5f81359050610ade81610aba565b92915050565b5f60208284031215610af957610af8610a86565b5b5f610b0684828501610ad0565b91505092915050565b5f8060408385031215610b2557610b24610a86565b5b5f610b3285828601610ad0565b9250506020610b4385828601610ad0565b9150509250929050565b5f8115159050919050565b610b6181610b4d565b82525050565b5f602082019050610b7a5f830184610b58565b92915050565b5f81519050919050565b5f82825260208201905092915050565b5f819050602082019050919050565b610bb281610aa9565b82525050565b5f610bc38383610ba9565b60208301905092915050565b5f602082019050919050565b5f610be582610b80565b610bef8185610b8a565b9350610bfa83610b9a565b805f5b83811015610c2a578151610c118882610bb8565b9750610c1c83610bcf565b925050600181019050610bfd565b5085935050505092915050565b5f6020820190508181035f830152610c4f8184610bdb565b905092915050565b5f819050919050565b610c6981610c57565b8114610c73575f80fd5b50565b5f81519050610c8481610c60565b92915050565b5f60208284031215610c9f57610c9e610a86565b5b5f610cac84828501610c76565b91505092915050565b610cbe81610c57565b82525050565b610ccd81610aa9565b82525050565b5f604082019050610ce65f830185610cb5565b610cf36020830184610cc4565b9392505050565b610d0381610b4d565b8114610d0d575f80fd5b50565b5f81519050610d1e81610cfa565b92915050565b5f60208284031215610d3957610d38610a86565b5b5f610d4684828501610d10565b91505092915050565b5f81519050919050565b5f82825260208201905092915050565b5f5b83811015610d86578082015181840152602081019050610d6b565b5f8484015250505050565b5f601f19601f8301169050919050565b5f610dab82610d4f565b610db58185610d59565b9350610dc5818560208601610d69565b610dce81610d91565b840191505092915050565b5f6020820190508181035f830152610df18184610da1565b905092915050565b7f4e487b71000000000000000000000000000000000000000000000000000000005f52603260045260245ffd5b5f819050919050565b7f4e487b71000000000000000000000000000000000000000000000000000000005f52601160045260245ffd5b5f610e6682610e26565b9150610e7183610e26565b9250828203905081811115610e8957610e88610e2f565b5b92915050565b7f4e487b71000000000000000000000000000000000000000000000000000000005f52603160045260245ffd5b5f602082019050610ecf5f830184610cc4565b92915050565b5f610edf82610e26565b91507fffffffffffffffffffffffffffffffffffffffffffffffffffffffffffffffff8203610f1157610f10610e2f565b5b600182019050919050565b7f4d656d626572206e6f7420666f756e64000000000000000000000000000000005f82015250565b5f610f50601083610d59565b9150610f5b82610f1c565b602082019050919050565b5f6020820190508181035f830152610f7d81610f44565b905091905056fe4f6e6c792041646d696e2063616e2072656d6f7665207468656972204d656d626572a26469706673582212204eb6d56961dd132a6edf763acc8f8932da9f567c5b895ba738b8bc46e5adf42264736f6c63430008140033",
  "immutableReferences": {},
  "source": "// SPDX-License-Identifier: MIT\npragma solidity ^0.8.20;\nimport \"./Auth.sol\";\n\ncontract Membership {\n    Auth private auth;\n\n    mapping(address => address[]) members;\n\n    constructor(address _authAddress) {\n        auth = Auth(_authAddress);\n    }\n\n    event MemberAdded(address memberAddress);\n    event MemberRemoved(address memberAddress);\n\n    modifier OnlyAdmin(string memory error) {\n        require(auth.checkHasRole(auth.AdminRoleAccess(), msg.sender), error);\n\n        _;\n    }\n\n    function getAllMembers()\n        public\n        view\n        OnlyAdmin(\"Only Admin can get their Members\")\n        returns (address[] memory)\n    {\n        return members[msg.sender];\n    }\n\n    function isMember(\n        address memberAddress,\n        address adminAddress\n    ) public view returns (bool) {\n        for (uint i = 0; i < members[adminAddress].length; i++) {\n            if (members[adminAddress][i] == memberAddress) {\n                return true;\n            }\n        }\n        return false;\n    }\n\n    function addMember(\n        address memberAddress\n    ) public OnlyAdmin(\"Only Admin can add their Member\") {\n        members[msg.sender].push(memberAddress);\n        emit MemberAdded(memberAddress);\n    }\n\n    function removeMember(\n        address memberAddress\n    ) public OnlyAdmin(\"Only Admin can remove their Member\") {\n        address[] storage adminMembers = members[msg.sender];\n        bool removed = false;\n\n        for (uint256 i = 0; i < adminMembers.length; i++) {\n            if (adminMembers[i] == memberAddress) {\n                adminMembers[i] = adminMembers[adminMembers.length - 1];\n                adminMembers.pop();\n                removed = true;\n\n                emit MemberRemoved(memberAddress);\n                break;\n            }\n        }\n\n        require(removed, \"Member not found\");\n    }\n}\n",
  "sourcePath": "C:\\Workspace\\Practice\\Blockchain-Projects-main\\blockchain\\Truffle\\contracts\\DAO\\Membership.sol",
  "compiler": {
    "name": "solc",
    "version": "0.8.20+commit.a1b79de6.Emscripten.clang"
  },
  "schemaVersion": "3.4.16",
  "updatedAt": "2024-09-06T07:58:50.428Z",
  "devdoc": {
    "kind": "dev",
    "methods": {},
    "version": 1
  },
  "userdoc": {
    "kind": "user",
    "methods": {},
    "version": 1
  }
}