{
  "contractName": "RoleManager",
  "abi": [
    {
      "inputs": [
        {
          "internalType": "enum RoleManager.Roles",
          "name": "role",
          "type": "uint8"
        }
      ],
      "name": "getRoleName",
      "outputs": [
        {
          "internalType": "string",
          "name": "",
          "type": "string"
        }
      ],
      "stateMutability": "pure",
      "type": "function"
    },
    {
      "inputs": [],
      "name": "getAdminRole",
      "outputs": [
        {
          "internalType": "enum RoleManager.Roles",
          "name": "",
          "type": "uint8"
        }
      ],
      "stateMutability": "pure",
      "type": "function"
    },
    {
      "inputs": [],
      "name": "getGuestRole",
      "outputs": [
        {
          "internalType": "enum RoleManager.Roles",
          "name": "",
          "type": "uint8"
        }
      ],
      "stateMutability": "pure",
      "type": "function"
    },
    {
      "inputs": [],
      "name": "getMemberRole",
      "outputs": [
        {
          "internalType": "enum RoleManager.Roles",
          "name": "",
          "type": "uint8"
        }
      ],
      "stateMutability": "pure",
      "type": "function"
    }
  ],
  "bytecode": "0x608060405234801561000f575f80fd5b506103bb8061001d5f395ff3fe608060405234801561000f575f80fd5b506004361061004a575f3560e01c8063505a46d41461004e578063b3ecf2361461006c578063cbfdc73f1461008a578063d5afdbb0146100a8575b5f80fd5b6100566100d8565b6040516100639190610270565b60405180910390f35b6100746100e0565b6040516100819190610270565b60405180910390f35b6100926100e4565b60405161009f9190610270565b60405180910390f35b6100c260048036038101906100bd91906102b0565b6100ec565b6040516100cf9190610365565b60405180910390f35b5f6002905090565b5f90565b5f6001905090565b60605f6040518060400160405280600581526020017f477565737400000000000000000000000000000000000000000000000000000081525090505f600281111561013a576101396101fd565b5b83600281111561014d5761014c6101fd565b5b0361018f576040518060400160405280600581526020017f41444d494e00000000000000000000000000000000000000000000000000000081525090506101f4565b6002808111156101a2576101a16101fd565b5b8360028111156101b5576101b46101fd565b5b036101f3576040518060400160405280600681526020017f4d656d626572000000000000000000000000000000000000000000000000000081525090505b5b80915050919050565b7f4e487b71000000000000000000000000000000000000000000000000000000005f52602160045260245ffd5b6003811061023b5761023a6101fd565b5b50565b5f81905061024b8261022a565b919050565b5f61025a8261023e565b9050919050565b61026a81610250565b82525050565b5f6020820190506102835f830184610261565b92915050565b5f80fd5b60038110610299575f80fd5b50565b5f813590506102aa8161028d565b92915050565b5f602082840312156102c5576102c4610289565b5b5f6102d28482850161029c565b91505092915050565b5f81519050919050565b5f82825260208201905092915050565b5f5b838110156103125780820151818401526020810190506102f7565b5f8484015250505050565b5f601f19601f8301169050919050565b5f610337826102db565b61034181856102e5565b93506103518185602086016102f5565b61035a8161031d565b840191505092915050565b5f6020820190508181035f83015261037d818461032d565b90509291505056fea2646970667358221220e675dc7cbd6896839c1eb2e6b97f44b3b497aa476f537a39cafe7eab820fbcda64736f6c63430008140033",
  "immutableReferences": {},
  "source": "// SPDX-License-Identifier: MIT\r\npragma solidity ^0.8.20;\r\n\r\ncontract RoleManager {\r\n    enum Roles {\r\n        Admin,\r\n        Guest,\r\n        Member\r\n    }\r\n\r\n    function getRoleName(Roles role) external pure returns (string memory) {\r\n        string memory roleName = \"Guest\";\r\n\r\n        if (role == Roles.Admin) {\r\n            roleName = \"ADMIN\";\r\n        } else if (role == Roles.Member) {\r\n            roleName = \"Member\";\r\n        }\r\n\r\n        return roleName;\r\n    }\r\n\r\n    function getAdminRole() external pure returns (Roles) {\r\n        return Roles.Admin;\r\n    }\r\n\r\n    function getGuestRole() external pure returns (Roles) {\r\n        return Roles.Guest;\r\n    }\r\n\r\n    function getMemberRole() external pure returns (Roles) {\r\n        return Roles.Member;\r\n    }\r\n}\r\n",
  "sourcePath": "C:\\Workspace\\Practice\\Blockchain-Projects-main\\blockchain\\Truffle\\contracts\\DAO\\libraries\\RoleManager.sol",
  "compiler": {
    "name": "solc",
    "version": "0.8.20+commit.a1b79de6.Emscripten.clang"
  },
  "schemaVersion": "3.4.16",
  "updatedAt": "2024-09-06T07:58:50.448Z",
  "devdoc": {
    "kind": "dev",
    "methods": {},
    "version": 1
  },
  "userdoc": {
    "kind": "user",
    "methods": {},
    "version": 1
  }
}