{
  "contractName": "Todo",
  "abi": [
    {
      "inputs": [
        {
          "internalType": "address",
          "name": "_utilityAddress",
          "type": "address"
        }
      ],
      "stateMutability": "nonpayable",
      "type": "constructor"
    },
    {
      "inputs": [
        {
          "internalType": "bytes32",
          "name": "",
          "type": "bytes32"
        },
        {
          "internalType": "uint256",
          "name": "",
          "type": "uint256"
        }
      ],
      "name": "tasksByListId",
      "outputs": [
        {
          "internalType": "bytes32",
          "name": "Id",
          "type": "bytes32"
        },
        {
          "internalType": "string",
          "name": "Task",
          "type": "string"
        },
        {
          "internalType": "bool",
          "name": "Done",
          "type": "bool"
        }
      ],
      "stateMutability": "view",
      "type": "function"
    },
    {
      "inputs": [
        {
          "internalType": "address",
          "name": "",
          "type": "address"
        },
        {
          "internalType": "uint256",
          "name": "",
          "type": "uint256"
        }
      ],
      "name": "userLists",
      "outputs": [
        {
          "internalType": "bytes32",
          "name": "Id",
          "type": "bytes32"
        },
        {
          "internalType": "string",
          "name": "Name",
          "type": "string"
        }
      ],
      "stateMutability": "view",
      "type": "function"
    },
    {
      "inputs": [],
      "name": "GetAllListWithTasks",
      "outputs": [
        {
          "components": [
            {
              "components": [
                {
                  "internalType": "bytes32",
                  "name": "Id",
                  "type": "bytes32"
                },
                {
                  "internalType": "string",
                  "name": "Name",
                  "type": "string"
                }
              ],
              "internalType": "struct Todo.TodoList",
              "name": "List",
              "type": "tuple"
            },
            {
              "components": [
                {
                  "internalType": "bytes32",
                  "name": "Id",
                  "type": "bytes32"
                },
                {
                  "internalType": "string",
                  "name": "Task",
                  "type": "string"
                },
                {
                  "internalType": "bool",
                  "name": "Done",
                  "type": "bool"
                }
              ],
              "internalType": "struct Todo.TodoTask[]",
              "name": "Task",
              "type": "tuple[]"
            }
          ],
          "internalType": "struct Todo.ListOfUserTask[]",
          "name": "",
          "type": "tuple[]"
        }
      ],
      "stateMutability": "view",
      "type": "function"
    },
    {
      "inputs": [
        {
          "internalType": "string",
          "name": "name",
          "type": "string"
        }
      ],
      "name": "AddNewList",
      "outputs": [],
      "stateMutability": "nonpayable",
      "type": "function"
    },
    {
      "inputs": [
        {
          "internalType": "bytes32",
          "name": "listId",
          "type": "bytes32"
        },
        {
          "internalType": "string",
          "name": "name",
          "type": "string"
        }
      ],
      "name": "AddNewListTask",
      "outputs": [],
      "stateMutability": "nonpayable",
      "type": "function"
    },
    {
      "inputs": [
        {
          "internalType": "bytes32",
          "name": "listId",
          "type": "bytes32"
        },
        {
          "internalType": "bytes32",
          "name": "taskId",
          "type": "bytes32"
        },
        {
          "internalType": "bool",
          "name": "done",
          "type": "bool"
        }
      ],
      "name": "MarkTaskDone",
      "outputs": [],
      "stateMutability": "nonpayable",
      "type": "function"
    },
    {
      "inputs": [
        {
          "internalType": "bytes32",
          "name": "listId",
          "type": "bytes32"
        }
      ],
      "name": "DeleteList",
      "outputs": [],
      "stateMutability": "nonpayable",
      "type": "function"
    },
    {
      "inputs": [
        {
          "internalType": "bytes32",
          "name": "listId",
          "type": "bytes32"
        },
        {
          "internalType": "bytes32",
          "name": "taskId",
          "type": "bytes32"
        }
      ],
      "name": "DeleteTaskFromList",
      "outputs": [],
      "stateMutability": "nonpayable",
      "type": "function"
    }
  ],
  "bytecode": "0x608060405234801562000010575f80fd5b50604051620021d0380380620021d08339818101604052810190620000369190620000e1565b805f806101000a81548173ffffffffffffffffffffffffffffffffffffffff021916908373ffffffffffffffffffffffffffffffffffffffff1602179055505062000111565b5f80fd5b5f73ffffffffffffffffffffffffffffffffffffffff82169050919050565b5f620000ab8262000080565b9050919050565b620000bd816200009f565b8114620000c8575f80fd5b50565b5f81519050620000db81620000b2565b92915050565b5f60208284031215620000f957620000f86200007c565b5b5f6200010884828501620000cb565b91505092915050565b6120b1806200011f5f395ff3fe608060405234801561000f575f80fd5b5060043610610085575f3560e01c806381a9db801161005957806381a9db801461010f578063a9c13d6314610140578063d667379c1461015c578063f441155d1461017857610085565b8062a3d589146100895780630f9c589d146100a5578063321e2cc8146100c157806358309d39146100f3575b5f80fd5b6100a3600480360381019061009e91906111ce565b610196565b005b6100bf60048036038101906100ba919061121e565b61036f565b005b6100db60048036038101906100d6919061128f565b61059b565b6040516100ea93929190611375565b60405180910390f35b61010d600480360381019061010891906114dd565b61066d565b005b6101296004803603810190610124919061157e565b6107e3565b6040516101379291906115bc565b60405180910390f35b61015a600480360381019061015591906115ea565b6108a3565b005b61017660048036038101906101719190611615565b610a64565b005b610180610cac565b60405161018d9190611913565b60405180910390f35b5f60015f3373ffffffffffffffffffffffffffffffffffffffff1673ffffffffffffffffffffffffffffffffffffffff1681526020019081526020015f2090505f805b828054905081101561032757858382815481106101f9576101f8611933565b5b905f5260205f2090600202015f01540361031457600191505f805b60025f8981526020019081526020015f20805490508110156102cd578660025f8a81526020019081526020015f20828154811061025457610253611933565b5b905f5260205f2090600302015f0154036102ba57600191508560025f8a81526020019081526020015f2082815481106102905761028f611933565b5b905f5260205f2090600302016002015f6101000a81548160ff0219169083151502179055506102cd565b80806102c59061198d565b915050610214565b508061030e576040517f08c379a000000000000000000000000000000000000000000000000000000000815260040161030590611a1e565b60405180910390fd5b50610327565b808061031f9061198d565b9150506101d9565b5080610368576040517f08c379a000000000000000000000000000000000000000000000000000000000815260040161035f90611a86565b60405180910390fd5b5050505050565b5f60015f3373ffffffffffffffffffffffffffffffffffffffff1673ffffffffffffffffffffffffffffffffffffffff1681526020019081526020015f2090505f805b828054905081101561055457848382815481106103d2576103d1611933565b5b905f5260205f2090600202015f01540361054157600191505f60025f8781526020019081526020015f2090505f6104098287610fc9565b905081805490508110610451576040517f08c379a000000000000000000000000000000000000000000000000000000000815260040161044890611a1e565b60405180910390fd5b81600183805490506104639190611aa4565b8154811061047457610473611933565b5b905f5260205f20906003020182828154811061049357610492611933565b5b905f5260205f2090600302015f820154815f0155600182018160010190816104bb9190611ce6565b50600282015f9054906101000a900460ff16816002015f6101000a81548160ff021916908315150217905550905050818054806104fb576104fa611dcb565b5b600190038181905f5260205f2090600302015f8082015f9055600182015f6105239190611061565b600282015f6101000a81549060ff0219169055505090555050610554565b808061054c9061198d565b9150506103b2565b5080610595576040517f08c379a000000000000000000000000000000000000000000000000000000000815260040161058c90611e42565b60405180910390fd5b50505050565b6002602052815f5260405f2081815481106105b4575f80fd5b905f5260205f2090600302015f9150915050805f0154908060010180546105da90611b04565b80601f016020809104026020016040519081016040528092919081815260200182805461060690611b04565b80156106515780601f1061062857610100808354040283529160200191610651565b820191905f5260205f20905b81548152906001019060200180831161063457829003601f168201915b505050505090806002015f9054906101000a900460ff16905083565b5f8151116106b0576040517f08c379a00000000000000000000000000000000000000000000000000000000081526004016106a790611eaa565b60405180910390fd5b60015f3373ffffffffffffffffffffffffffffffffffffffff1673ffffffffffffffffffffffffffffffffffffffff1681526020019081526020015f2060405180604001604052805f8054906101000a900473ffffffffffffffffffffffffffffffffffffffff1673ffffffffffffffffffffffffffffffffffffffff16632d5954a533866040518363ffffffff1660e01b8152600401610752929190611ed7565b602060405180830381865afa15801561076d573d5f803e3d5ffd5b505050506040513d601f19601f820116820180604052508101906107919190611f19565b815260200183815250908060018154018082558091505060019003905f5260205f2090600202015f909190919091505f820151815f015560208201518160010190816107dd9190611f44565b50505050565b6001602052815f5260405f2081815481106107fc575f80fd5b905f5260205f2090600202015f9150915050805f01549080600101805461082290611b04565b80601f016020809104026020016040519081016040528092919081815260200182805461084e90611b04565b80156108995780601f1061087057610100808354040283529160200191610899565b820191905f5260205f20905b81548152906001019060200180831161087c57829003601f168201915b5050505050905082565b5f60015f3373ffffffffffffffffffffffffffffffffffffffff1673ffffffffffffffffffffffffffffffffffffffff1681526020019081526020015f2090505f805b8280549050811015610a1e578383828154811061090657610905611933565b5b905f5260205f2090600202015f015403610a0b576001915060025f84838154811061093457610933611933565b5b905f5260205f2090600202015f015481526020019081526020015f205f61095b919061109e565b826001848054905061096d9190611aa4565b8154811061097e5761097d611933565b5b905f5260205f20906002020183828154811061099d5761099c611933565b5b905f5260205f2090600202015f820154815f0155600182018160010190816109c59190611ce6565b50905050828054806109da576109d9611dcb565b5b600190038181905f5260205f2090600202015f8082015f9055600182015f610a029190611061565b50509055610a1e565b8080610a169061198d565b9150506108e6565b5080610a5f576040517f08c379a0000000000000000000000000000000000000000000000000000000008152600401610a5690611e42565b60405180910390fd5b505050565b5f815111610aa7576040517f08c379a0000000000000000000000000000000000000000000000000000000008152600401610a9e9061205d565b60405180910390fd5b5f60015f3373ffffffffffffffffffffffffffffffffffffffff1673ffffffffffffffffffffffffffffffffffffffff1681526020019081526020015f2090505f805b8280549050811015610c655784838281548110610b0a57610b09611933565b5b905f5260205f2090600202015f015403610c52576001915060025f8681526020019081526020015f2060405180606001604052805f8054906101000a900473ffffffffffffffffffffffffffffffffffffffff1673ffffffffffffffffffffffffffffffffffffffff16632d5954a533896040518363ffffffff1660e01b8152600401610b98929190611ed7565b602060405180830381865afa158015610bb3573d5f803e3d5ffd5b505050506040513d601f19601f82011682018060405250810190610bd79190611f19565b81526020018681526020015f1515815250908060018154018082558091505060019003905f5260205f2090600302015f909190919091505f820151815f01556020820151816001019081610c2b9190611f44565b506040820151816002015f6101000a81548160ff0219169083151502179055505050610c65565b8080610c5d9061198d565b915050610aea565b5080610ca6576040517f08c379a0000000000000000000000000000000000000000000000000000000008152600401610c9d90611e42565b60405180910390fd5b50505050565b60605f60015f3373ffffffffffffffffffffffffffffffffffffffff1673ffffffffffffffffffffffffffffffffffffffff1681526020019081526020015f20805480602002602001604051908101604052809291908181526020015f905b82821015610dd4578382905f5260205f2090600202016040518060400160405290815f8201548152602001600182018054610d4590611b04565b80601f0160208091040260200160405190810160405280929190818152602001828054610d7190611b04565b8015610dbc5780601f10610d9357610100808354040283529160200191610dbc565b820191905f5260205f20905b815481529060010190602001808311610d9f57829003601f168201915b50505050508152505081526020019060010190610d0b565b5050505090505f815167ffffffffffffffff811115610df657610df56113b9565b5b604051908082528060200260200182016040528015610e2f57816020015b610e1c6110bf565b815260200190600190039081610e145790505b5090505f5b8251811015610fc0575f838281518110610e5157610e50611933565b5b602002602001015190505f60025f835f015181526020019081526020015f20805480602002602001604051908101604052809291908181526020015f905b82821015610f72578382905f5260205f2090600302016040518060600160405290815f8201548152602001600182018054610ec990611b04565b80601f0160208091040260200160405190810160405280929190818152602001828054610ef590611b04565b8015610f405780601f10610f1757610100808354040283529160200191610f40565b820191905f5260205f20905b815481529060010190602001808311610f2357829003601f168201915b50505050508152602001600282015f9054906101000a900460ff16151515158152505081526020019060010190610e8f565b505050509050604051806040016040528083815260200182815250848481518110610fa057610f9f611933565b5b602002602001018190525050508080610fb89061198d565b915050610e34565b50809250505090565b5f805f90505b838054905081101561101f5782848281548110610fef57610fee611933565b5b905f5260205f2090600302015f01540361100c578091505061105b565b80806110179061198d565b915050610fcf565b506040517f08c379a000000000000000000000000000000000000000000000000000000000815260040161105290611a1e565b60405180910390fd5b92915050565b50805461106d90611b04565b5f825580601f1061107e575061109b565b601f0160209004905f5260205f209081019061109a91906110df565b5b50565b5080545f8255600302905f5260205f20908101906110bc91906110fa565b50565b60405180604001604052806110d2611139565b8152602001606081525090565b5b808211156110f6575f815f9055506001016110e0565b5090565b5b80821115611135575f8082015f9055600182015f6111199190611061565b600282015f6101000a81549060ff0219169055506003016110fb565b5090565b60405180604001604052805f8019168152602001606081525090565b5f604051905090565b5f80fd5b5f80fd5b5f819050919050565b61117881611166565b8114611182575f80fd5b50565b5f813590506111938161116f565b92915050565b5f8115159050919050565b6111ad81611199565b81146111b7575f80fd5b50565b5f813590506111c8816111a4565b92915050565b5f805f606084860312156111e5576111e461115e565b5b5f6111f286828701611185565b935050602061120386828701611185565b9250506040611214868287016111ba565b9150509250925092565b5f80604083850312156112345761123361115e565b5b5f61124185828601611185565b925050602061125285828601611185565b9150509250929050565b5f819050919050565b61126e8161125c565b8114611278575f80fd5b50565b5f8135905061128981611265565b92915050565b5f80604083850312156112a5576112a461115e565b5b5f6112b285828601611185565b92505060206112c38582860161127b565b9150509250929050565b6112d681611166565b82525050565b5f81519050919050565b5f82825260208201905092915050565b5f5b838110156113135780820151818401526020810190506112f8565b5f8484015250505050565b5f601f19601f8301169050919050565b5f611338826112dc565b61134281856112e6565b93506113528185602086016112f6565b61135b8161131e565b840191505092915050565b61136f81611199565b82525050565b5f6060820190506113885f8301866112cd565b818103602083015261139a818561132e565b90506113a96040830184611366565b949350505050565b5f80fd5b5f80fd5b7f4e487b71000000000000000000000000000000000000000000000000000000005f52604160045260245ffd5b6113ef8261131e565b810181811067ffffffffffffffff8211171561140e5761140d6113b9565b5b80604052505050565b5f611420611155565b905061142c82826113e6565b919050565b5f67ffffffffffffffff82111561144b5761144a6113b9565b5b6114548261131e565b9050602081019050919050565b828183375f83830152505050565b5f61148161147c84611431565b611417565b90508281526020810184848401111561149d5761149c6113b5565b5b6114a8848285611461565b509392505050565b5f82601f8301126114c4576114c36113b1565b5b81356114d484826020860161146f565b91505092915050565b5f602082840312156114f2576114f161115e565b5b5f82013567ffffffffffffffff81111561150f5761150e611162565b5b61151b848285016114b0565b91505092915050565b5f73ffffffffffffffffffffffffffffffffffffffff82169050919050565b5f61154d82611524565b9050919050565b61155d81611543565b8114611567575f80fd5b50565b5f8135905061157881611554565b92915050565b5f80604083850312156115945761159361115e565b5b5f6115a18582860161156a565b92505060206115b28582860161127b565b9150509250929050565b5f6040820190506115cf5f8301856112cd565b81810360208301526115e1818461132e565b90509392505050565b5f602082840312156115ff576115fe61115e565b5b5f61160c84828501611185565b91505092915050565b5f806040838503121561162b5761162a61115e565b5b5f61163885828601611185565b925050602083013567ffffffffffffffff81111561165957611658611162565b5b611665858286016114b0565b9150509250929050565b5f81519050919050565b5f82825260208201905092915050565b5f819050602082019050919050565b6116a181611166565b82525050565b5f82825260208201905092915050565b5f6116c1826112dc565b6116cb81856116a7565b93506116db8185602086016112f6565b6116e48161131e565b840191505092915050565b5f604083015f8301516117045f860182611698565b506020830151848203602086015261171c82826116b7565b9150508091505092915050565b5f81519050919050565b5f82825260208201905092915050565b5f819050602082019050919050565b61175b81611199565b82525050565b5f606083015f8301516117765f860182611698565b506020830151848203602086015261178e82826116b7565b91505060408301516117a36040860182611752565b508091505092915050565b5f6117b98383611761565b905092915050565b5f602082019050919050565b5f6117d782611729565b6117e18185611733565b9350836020820285016117f385611743565b805f5b8581101561182e578484038952815161180f85826117ae565b945061181a836117c1565b925060208a019950506001810190506117f6565b50829750879550505050505092915050565b5f604083015f8301518482035f86015261185a82826116ef565b9150506020830151848203602086015261187482826117cd565b9150508091505092915050565b5f61188c8383611840565b905092915050565b5f602082019050919050565b5f6118aa8261166f565b6118b48185611679565b9350836020820285016118c685611689565b805f5b8581101561190157848403895281516118e28582611881565b94506118ed83611894565b925060208a019950506001810190506118c9565b50829750879550505050505092915050565b5f6020820190508181035f83015261192b81846118a0565b905092915050565b7f4e487b71000000000000000000000000000000000000000000000000000000005f52603260045260245ffd5b7f4e487b71000000000000000000000000000000000000000000000000000000005f52601160045260245ffd5b5f6119978261125c565b91507fffffffffffffffffffffffffffffffffffffffffffffffffffffffffffffffff82036119c9576119c8611960565b5b600182019050919050565b7f5461736b206e6f7420666f756e640000000000000000000000000000000000005f82015250565b5f611a08600e836112e6565b9150611a13826119d4565b602082019050919050565b5f6020820190508181035f830152611a35816119fc565b9050919050565b7f4c697374206973206e6f7420666f756e640000000000000000000000000000005f82015250565b5f611a706011836112e6565b9150611a7b82611a3c565b602082019050919050565b5f6020820190508181035f830152611a9d81611a64565b9050919050565b5f611aae8261125c565b9150611ab98361125c565b9250828203905081811115611ad157611ad0611960565b5b92915050565b7f4e487b71000000000000000000000000000000000000000000000000000000005f52602260045260245ffd5b5f6002820490506001821680611b1b57607f821691505b602082108103611b2e57611b2d611ad7565b5b50919050565b5f81549050611b4281611b04565b9050919050565b5f819050815f5260205f209050919050565b5f6020601f8301049050919050565b5f82821b905092915050565b5f60088302611ba57fffffffffffffffffffffffffffffffffffffffffffffffffffffffffffffffff82611b6a565b611baf8683611b6a565b95508019841693508086168417925050509392505050565b5f819050919050565b5f611bea611be5611be08461125c565b611bc7565b61125c565b9050919050565b5f819050919050565b611c0383611bd0565b611c17611c0f82611bf1565b848454611b76565b825550505050565b5f90565b611c2b611c1f565b611c36818484611bfa565b505050565b5b81811015611c5957611c4e5f82611c23565b600181019050611c3c565b5050565b601f821115611c9e57611c6f81611b49565b611c7884611b5b565b81016020851015611c87578190505b611c9b611c9385611b5b565b830182611c3b565b50505b505050565b5f82821c905092915050565b5f611cbe5f1984600802611ca3565b1980831691505092915050565b5f611cd68383611caf565b9150826002028217905092915050565b818103611cf4575050611dc9565b611cfd82611b34565b67ffffffffffffffff811115611d1657611d156113b9565b5b611d208254611b04565b611d2b828285611c5d565b5f601f831160018114611d58575f8415611d46578287015490505b611d508582611ccb565b865550611dc2565b601f198416611d6687611b49565b9650611d7186611b49565b5f5b82811015611d9857848901548255600182019150600185019450602081019050611d73565b86831015611db55784890154611db1601f891682611caf565b8355505b6001600288020188555050505b5050505050505b565b7f4e487b71000000000000000000000000000000000000000000000000000000005f52603160045260245ffd5b7f4c697374206e6f7420666f756e640000000000000000000000000000000000005f82015250565b5f611e2c600e836112e6565b9150611e3782611df8565b602082019050919050565b5f6020820190508181035f830152611e5981611e20565b9050919050565b7f4c697374206e616d652063616e6e6f7420626520656d707479000000000000005f82015250565b5f611e946019836112e6565b9150611e9f82611e60565b602082019050919050565b5f6020820190508181035f830152611ec181611e88565b9050919050565b611ed181611543565b82525050565b5f604082019050611eea5f830185611ec8565b8181036020830152611efc818461132e565b90509392505050565b5f81519050611f138161116f565b92915050565b5f60208284031215611f2e57611f2d61115e565b5b5f611f3b84828501611f05565b91505092915050565b611f4d826112dc565b67ffffffffffffffff811115611f6657611f656113b9565b5b611f708254611b04565b611f7b828285611c5d565b5f60209050601f831160018114611fac575f8415611f9a578287015190505b611fa48582611ccb565b86555061200b565b601f198416611fba86611b49565b5f5b82811015611fe157848901518255600182019150602085019450602081019050611fbc565b86831015611ffe5784890151611ffa601f891682611caf565b8355505b6001600288020188555050505b505050505050565b7f5461736b206e616d652063616e6e6f7420626520656d707479000000000000005f82015250565b5f6120476019836112e6565b915061205282612013565b602082019050919050565b5f6020820190508181035f8301526120748161203b565b905091905056fea2646970667358221220a052043cba609dc473ced4f6ae016284c3f5c2b601fc2e06da2386f23efec0d864736f6c63430008140033",
  "immutableReferences": {},
  "source": "// SPDX-License-Identifier: MIT\npragma solidity >=0.8.0 <=0.9.0;\n\nimport \"../Utility/Utility.sol\";\n\ncontract Todo {\n    Utility utility;\n\n    constructor(address _utilityAddress) {\n        utility = Utility(_utilityAddress);\n    }\n\n    struct TodoTask {\n        bytes32 Id;\n        string Task;\n        bool Done;\n    }\n\n    struct TodoList {\n        bytes32 Id;\n        string Name;\n    }\n\n    struct ListOfUserTask {\n        TodoList List;\n        TodoTask[] Task;\n    }\n\n    mapping(address => TodoList[]) public userLists;\n    mapping(bytes32 => TodoTask[]) public tasksByListId;\n\n    function GetAllListWithTasks()\n        public\n        view\n        returns (ListOfUserTask[] memory)\n    {\n        TodoList[] memory list = userLists[msg.sender];\n        ListOfUserTask[] memory listWithTask = new ListOfUserTask[](\n            list.length\n        );\n\n        for (uint256 i = 0; i < list.length; i++) {\n            TodoList memory currentList = list[i];\n            TodoTask[] memory tasks = tasksByListId[currentList.Id];\n\n            listWithTask[i] = ListOfUserTask({List: currentList, Task: tasks});\n        }\n\n        return listWithTask;\n    }\n\n    function AddNewList(string memory name) public {\n        require(bytes(name).length > 0, \"List name cannot be empty\");\n\n        userLists[msg.sender].push(\n            TodoList({Id: utility.GenerateKey(msg.sender, name), Name: name})\n        );\n    }\n\n    function AddNewListTask(bytes32 listId, string memory name) public {\n        require(bytes(name).length > 0, \"Task name cannot be empty\");\n\n        TodoList[] storage list = userLists[msg.sender];\n        bool listFound = false;\n        for (uint256 index = 0; index < list.length; index++) {\n            if (list[index].Id == listId) {\n                listFound = true;\n                tasksByListId[listId].push(\n                    TodoTask({\n                        Done: false,\n                        Task: name,\n                        Id: utility.GenerateKey(msg.sender, name)\n                    })\n                );\n                break;\n            }\n        }\n        require(listFound, \"List not found\");\n    }\n\n    function MarkTaskDone(bytes32 listId, bytes32 taskId, bool done) public {\n        TodoList[] storage list = userLists[msg.sender];\n\n        bool listFound = false;\n        for (uint256 index = 0; index < list.length; index++) {\n            if (list[index].Id == listId) {\n                listFound = true;\n                bool taskFound = false;\n                for (\n                    uint256 taskIndex = 0;\n                    taskIndex < tasksByListId[listId].length;\n                    taskIndex++\n                ) {\n                    if (tasksByListId[listId][taskIndex].Id == taskId) {\n                        taskFound = true;\n                        tasksByListId[listId][taskIndex].Done = done;\n                        break;\n                    }\n                }\n                require(taskFound, \"Task not found\");\n                break;\n            }\n        }\n\n        require(listFound, \"List is not found\");\n    }\n\n    function DeleteList(bytes32 listId) public {\n        TodoList[] storage list = userLists[msg.sender];\n\n        bool listFound = false;\n        for (uint256 i = 0; i < list.length; i++) {\n            if (list[i].Id == listId) {\n                listFound = true;\n                delete tasksByListId[list[i].Id];\n                list[i] = list[list.length - 1];\n                list.pop();\n                break;\n            }\n        }\n\n        require(listFound, \"List not found\");\n    }\n\n\n    function DeleteTaskFromList(bytes32 listId, bytes32 taskId) public {\n        TodoList[] storage lists = userLists[msg.sender];\n        bool listFound = false;\n\n        for (uint256 i = 0; i < lists.length; i++) {\n            if (lists[i].Id == listId) {\n                listFound = true;\n                TodoTask[] storage tasks = tasksByListId[listId];\n                uint256 taskIndex = findTaskIndex(tasks, taskId);\n                require(taskIndex < tasks.length, \"Task not found\");\n                tasks[taskIndex] = tasks[tasks.length - 1];\n                tasks.pop();\n\n                break;\n            }\n        }\n        require(listFound, \"List not found\");\n    }\n\n    function findTaskIndex(\n        TodoTask[] storage tasks,\n        bytes32 taskId\n    ) internal view returns (uint256) {\n        for (uint256 i = 0; i < tasks.length; i++) {\n            if (tasks[i].Id == taskId) {\n                return i;\n            }\n        }\n        revert(\"Task not found\");\n    }\n}\n",
  "sourcePath": "C:\\Workspace\\Practice\\Blockchain-Projects-main\\blockchain\\Truffle\\contracts\\TodoList\\Todo.sol",
  "compiler": {
    "name": "solc",
    "version": "0.8.20+commit.a1b79de6.Emscripten.clang"
  },
  "schemaVersion": "3.4.16",
  "updatedAt": "2024-09-06T07:58:50.470Z",
  "devdoc": {
    "kind": "dev",
    "methods": {},
    "version": 1
  },
  "userdoc": {
    "kind": "user",
    "methods": {},
    "version": 1
  }
}