{
  "contractName": "Todo",
  "abi": [
    {
      "inputs": [
        {
          "internalType": "address",
          "name": "_utilityAddress",
          "type": "address"
        }
      ],
      "stateMutability": "nonpayable",
      "type": "constructor"
    },
    {
      "inputs": [
        {
          "internalType": "bytes32",
          "name": "",
          "type": "bytes32"
        },
        {
          "internalType": "uint256",
          "name": "",
          "type": "uint256"
        }
      ],
      "name": "tasksByListId",
      "outputs": [
        {
          "internalType": "bytes32",
          "name": "Id",
          "type": "bytes32"
        },
        {
          "internalType": "string",
          "name": "Task",
          "type": "string"
        },
        {
          "internalType": "bool",
          "name": "Done",
          "type": "bool"
        }
      ],
      "stateMutability": "view",
      "type": "function"
    },
    {
      "inputs": [
        {
          "internalType": "address",
          "name": "",
          "type": "address"
        },
        {
          "internalType": "uint256",
          "name": "",
          "type": "uint256"
        }
      ],
      "name": "userLists",
      "outputs": [
        {
          "internalType": "bytes32",
          "name": "Id",
          "type": "bytes32"
        },
        {
          "internalType": "string",
          "name": "Name",
          "type": "string"
        }
      ],
      "stateMutability": "view",
      "type": "function"
    },
    {
      "inputs": [],
      "name": "GetAllListWithTasks",
      "outputs": [
        {
          "components": [
            {
              "components": [
                {
                  "internalType": "bytes32",
                  "name": "Id",
                  "type": "bytes32"
                },
                {
                  "internalType": "string",
                  "name": "Name",
                  "type": "string"
                }
              ],
              "internalType": "struct Todo.TodoList",
              "name": "List",
              "type": "tuple"
            },
            {
              "components": [
                {
                  "internalType": "bytes32",
                  "name": "Id",
                  "type": "bytes32"
                },
                {
                  "internalType": "string",
                  "name": "Task",
                  "type": "string"
                },
                {
                  "internalType": "bool",
                  "name": "Done",
                  "type": "bool"
                }
              ],
              "internalType": "struct Todo.TodoTask[]",
              "name": "Task",
              "type": "tuple[]"
            }
          ],
          "internalType": "struct Todo.ListOfUserTask[]",
          "name": "",
          "type": "tuple[]"
        }
      ],
      "stateMutability": "view",
      "type": "function"
    },
    {
      "inputs": [
        {
          "internalType": "string",
          "name": "name",
          "type": "string"
        }
      ],
      "name": "AddNewList",
      "outputs": [],
      "stateMutability": "nonpayable",
      "type": "function"
    },
    {
      "inputs": [
        {
          "internalType": "bytes32",
          "name": "listId",
          "type": "bytes32"
        },
        {
          "internalType": "string",
          "name": "name",
          "type": "string"
        }
      ],
      "name": "AddNewListTask",
      "outputs": [],
      "stateMutability": "nonpayable",
      "type": "function"
    },
    {
      "inputs": [
        {
          "internalType": "bytes32",
          "name": "listId",
          "type": "bytes32"
        },
        {
          "internalType": "bytes32",
          "name": "taskId",
          "type": "bytes32"
        },
        {
          "internalType": "bool",
          "name": "done",
          "type": "bool"
        }
      ],
      "name": "MarkTaskDone",
      "outputs": [],
      "stateMutability": "nonpayable",
      "type": "function"
    },
    {
      "inputs": [
        {
          "internalType": "bytes32",
          "name": "listId",
          "type": "bytes32"
        }
      ],
      "name": "DeleteList",
      "outputs": [],
      "stateMutability": "nonpayable",
      "type": "function"
    },
    {
      "inputs": [
        {
          "internalType": "bytes32",
          "name": "listId",
          "type": "bytes32"
        },
        {
          "internalType": "bytes32",
          "name": "taskId",
          "type": "bytes32"
        }
      ],
      "name": "DeleteTaskFromList",
      "outputs": [],
      "stateMutability": "nonpayable",
      "type": "function"
    }
  ],
  "bytecode": "0x60806040523480156200001157600080fd5b5060405162002305380380620023058339818101604052810190620000379190620000e8565b806000806101000a81548173ffffffffffffffffffffffffffffffffffffffff021916908373ffffffffffffffffffffffffffffffffffffffff160217905550506200011a565b600080fd5b600073ffffffffffffffffffffffffffffffffffffffff82169050919050565b6000620000b08262000083565b9050919050565b620000c281620000a3565b8114620000ce57600080fd5b50565b600081519050620000e281620000b7565b92915050565b6000602082840312156200010157620001006200007e565b5b60006200011184828501620000d1565b91505092915050565b6121db806200012a6000396000f3fe608060405234801561001057600080fd5b50600436106100875760003560e01c806381a9db801161005b57806381a9db8014610112578063a9c13d6314610143578063d667379c1461015f578063f441155d1461017b57610087565b8062a3d5891461008c5780630f9c589d146100a8578063321e2cc8146100c457806358309d39146100f6575b600080fd5b6100a660048036038101906100a1919061127a565b610199565b005b6100c260048036038101906100bd91906112cd565b610386565b005b6100de60048036038101906100d99190611343565b6105cb565b6040516100ed93929190611431565b60405180910390f35b610110600480360381019061010b91906115a4565b6106a7565b005b61012c6004803603810190610127919061164b565b610828565b60405161013a92919061168b565b60405180910390f35b61015d600480360381019061015891906116bb565b6108f1565b005b610179600480360381019061017491906116e8565b610aca565b005b610183610d26565b6040516101909190611a01565b60405180910390f35b6000600160003373ffffffffffffffffffffffffffffffffffffffff1673ffffffffffffffffffffffffffffffffffffffff16815260200190815260200160002090506000805b828054905081101561033e5785838281548110610200576101ff611a23565b5b9060005260206000209060020201600001540361032b57600191506000805b60026000898152602001908152602001600020805490508110156102e45786600260008a8152602001908152602001600020828154811061026357610262611a23565b5b906000526020600020906003020160000154036102d1576001915085600260008a815260200190815260200160002082815481106102a4576102a3611a23565b5b906000526020600020906003020160020160006101000a81548160ff0219169083151502179055506102e4565b80806102dc90611a81565b91505061021f565b5080610325576040517f08c379a000000000000000000000000000000000000000000000000000000000815260040161031c90611b15565b60405180910390fd5b5061033e565b808061033690611a81565b9150506101e0565b508061037f576040517f08c379a000000000000000000000000000000000000000000000000000000000815260040161037690611b81565b60405180910390fd5b5050505050565b6000600160003373ffffffffffffffffffffffffffffffffffffffff1673ffffffffffffffffffffffffffffffffffffffff16815260200190815260200160002090506000805b828054905081101561058457848382815481106103ed576103ec611a23565b5b9060005260206000209060020201600001540361057157600191506000600260008781526020019081526020016000209050600061042b828761105a565b905081805490508110610473576040517f08c379a000000000000000000000000000000000000000000000000000000000815260040161046a90611b15565b60405180910390fd5b81600183805490506104859190611ba1565b8154811061049657610495611a23565b5b90600052602060002090600302018282815481106104b7576104b6611a23565b5b906000526020600020906003020160008201548160000155600182018160010190816104e39190611df7565b506002820160009054906101000a900460ff168160020160006101000a81548160ff0219169083151502179055509050508180548061052557610524611edf565b5b600190038181906000526020600020906003020160008082016000905560018201600061055291906110f7565b6002820160006101000a81549060ff0219169055505090555050610584565b808061057c90611a81565b9150506103cd565b50806105c5576040517f08c379a00000000000000000000000000000000000000000000000000000000081526004016105bc90611f5a565b60405180910390fd5b50505050565b600260205281600052604060002081815481106105e757600080fd5b90600052602060002090600302016000915091505080600001549080600101805461061190611c04565b80601f016020809104026020016040519081016040528092919081815260200182805461063d90611c04565b801561068a5780601f1061065f5761010080835404028352916020019161068a565b820191906000526020600020905b81548152906001019060200180831161066d57829003601f168201915b5050505050908060020160009054906101000a900460ff16905083565b60008151116106eb576040517f08c379a00000000000000000000000000000000000000000000000000000000081526004016106e290611fc6565b60405180910390fd5b600160003373ffffffffffffffffffffffffffffffffffffffff1673ffffffffffffffffffffffffffffffffffffffff168152602001908152602001600020604051806040016040528060008054906101000a900473ffffffffffffffffffffffffffffffffffffffff1673ffffffffffffffffffffffffffffffffffffffff16632d5954a533866040518363ffffffff1660e01b8152600401610790929190611ff5565b602060405180830381865afa1580156107ad573d6000803e3d6000fd5b505050506040513d601f19601f820116820180604052508101906107d1919061203a565b81526020018381525090806001815401808255809150506001900390600052602060002090600202016000909190919091506000820151816000015560208201518160010190816108229190612067565b50505050565b6001602052816000526040600020818154811061084457600080fd5b90600052602060002090600202016000915091505080600001549080600101805461086e90611c04565b80601f016020809104026020016040519081016040528092919081815260200182805461089a90611c04565b80156108e75780601f106108bc576101008083540402835291602001916108e7565b820191906000526020600020905b8154815290600101906020018083116108ca57829003601f168201915b5050505050905082565b6000600160003373ffffffffffffffffffffffffffffffffffffffff1673ffffffffffffffffffffffffffffffffffffffff16815260200190815260200160002090506000805b8280549050811015610a84578383828154811061095857610957611a23565b5b90600052602060002090600202016000015403610a7157600191506002600084838154811061098a57610989611a23565b5b906000526020600020906002020160000154815260200190815260200160002060006109b69190611137565b82600184805490506109c89190611ba1565b815481106109d9576109d8611a23565b5b90600052602060002090600202018382815481106109fa576109f9611a23565b5b90600052602060002090600202016000820154816000015560018201816001019081610a269190611df7565b5090505082805480610a3b57610a3a611edf565b5b6001900381819060005260206000209060020201600080820160009055600182016000610a6891906110f7565b50509055610a84565b8080610a7c90611a81565b915050610938565b5080610ac5576040517f08c379a0000000000000000000000000000000000000000000000000000000008152600401610abc90611f5a565b60405180910390fd5b505050565b6000815111610b0e576040517f08c379a0000000000000000000000000000000000000000000000000000000008152600401610b0590612185565b60405180910390fd5b6000600160003373ffffffffffffffffffffffffffffffffffffffff1673ffffffffffffffffffffffffffffffffffffffff16815260200190815260200160002090506000805b8280549050811015610cdf5784838281548110610b7557610b74611a23565b5b90600052602060002090600202016000015403610ccc576001915060026000868152602001908152602001600020604051806060016040528060008054906101000a900473ffffffffffffffffffffffffffffffffffffffff1673ffffffffffffffffffffffffffffffffffffffff16632d5954a533896040518363ffffffff1660e01b8152600401610c09929190611ff5565b602060405180830381865afa158015610c26573d6000803e3d6000fd5b505050506040513d601f19601f82011682018060405250810190610c4a919061203a565b8152602001868152602001600015158152509080600181540180825580915050600190039060005260206000209060030201600090919091909150600082015181600001556020820151816001019081610ca49190612067565b5060408201518160020160006101000a81548160ff0219169083151502179055505050610cdf565b8080610cd790611a81565b915050610b55565b5080610d20576040517f08c379a0000000000000000000000000000000000000000000000000000000008152600401610d1790611f5a565b60405180910390fd5b50505050565b60606000600160003373ffffffffffffffffffffffffffffffffffffffff1673ffffffffffffffffffffffffffffffffffffffff168152602001908152602001600020805480602002602001604051908101604052809291908181526020016000905b82821015610e57578382906000526020600020906002020160405180604001604052908160008201548152602001600182018054610dc690611c04565b80601f0160208091040260200160405190810160405280929190818152602001828054610df290611c04565b8015610e3f5780601f10610e1457610100808354040283529160200191610e3f565b820191906000526020600020905b815481529060010190602001808311610e2257829003601f168201915b50505050508152505081526020019060010190610d89565b5050505090506000815167ffffffffffffffff811115610e7a57610e79611479565b5b604051908082528060200260200182016040528015610eb357816020015b610ea061115b565b815260200190600190039081610e985790505b50905060005b8251811015611051576000838281518110610ed757610ed6611a23565b5b6020026020010151905060006002600083600001518152602001908152602001600020805480602002602001604051908101604052809291908181526020016000905b82821015611003578382906000526020600020906003020160405180606001604052908160008201548152602001600182018054610f5790611c04565b80601f0160208091040260200160405190810160405280929190818152602001828054610f8390611c04565b8015610fd05780601f10610fa557610100808354040283529160200191610fd0565b820191906000526020600020905b815481529060010190602001808311610fb357829003601f168201915b505050505081526020016002820160009054906101000a900460ff16151515158152505081526020019060010190610f1a565b50505050905060405180604001604052808381526020018281525084848151811061103157611030611a23565b5b60200260200101819052505050808061104990611a81565b915050610eb9565b50809250505090565b600080600090505b83805490508110156110b5578284828154811061108257611081611a23565b5b906000526020600020906003020160000154036110a257809150506110f1565b80806110ad90611a81565b915050611062565b506040517f08c379a00000000000000000000000000000000000000000000000000000000081526004016110e890611b15565b60405180910390fd5b92915050565b50805461110390611c04565b6000825580601f106111155750611134565b601f016020900490600052602060002090810190611133919061117b565b5b50565b50805460008255600302906000526020600020908101906111589190611198565b50565b604051806040016040528061116e6111db565b8152602001606081525090565b5b8082111561119457600081600090555060010161117c565b5090565b5b808211156111d7576000808201600090556001820160006111ba91906110f7565b6002820160006101000a81549060ff021916905550600301611199565b5090565b604051806040016040528060008019168152602001606081525090565b6000604051905090565b600080fd5b600080fd5b6000819050919050565b61121f8161120c565b811461122a57600080fd5b50565b60008135905061123c81611216565b92915050565b60008115159050919050565b61125781611242565b811461126257600080fd5b50565b6000813590506112748161124e565b92915050565b60008060006060848603121561129357611292611202565b5b60006112a18682870161122d565b93505060206112b28682870161122d565b92505060406112c386828701611265565b9150509250925092565b600080604083850312156112e4576112e3611202565b5b60006112f28582860161122d565b92505060206113038582860161122d565b9150509250929050565b6000819050919050565b6113208161130d565b811461132b57600080fd5b50565b60008135905061133d81611317565b92915050565b6000806040838503121561135a57611359611202565b5b60006113688582860161122d565b92505060206113798582860161132e565b9150509250929050565b61138c8161120c565b82525050565b600081519050919050565b600082825260208201905092915050565b60005b838110156113cc5780820151818401526020810190506113b1565b60008484015250505050565b6000601f19601f8301169050919050565b60006113f482611392565b6113fe818561139d565b935061140e8185602086016113ae565b611417816113d8565b840191505092915050565b61142b81611242565b82525050565b60006060820190506114466000830186611383565b818103602083015261145881856113e9565b90506114676040830184611422565b949350505050565b600080fd5b600080fd5b7f4e487b7100000000000000000000000000000000000000000000000000000000600052604160045260246000fd5b6114b1826113d8565b810181811067ffffffffffffffff821117156114d0576114cf611479565b5b80604052505050565b60006114e36111f8565b90506114ef82826114a8565b919050565b600067ffffffffffffffff82111561150f5761150e611479565b5b611518826113d8565b9050602081019050919050565b82818337600083830152505050565b6000611547611542846114f4565b6114d9565b90508281526020810184848401111561156357611562611474565b5b61156e848285611525565b509392505050565b600082601f83011261158b5761158a61146f565b5b813561159b848260208601611534565b91505092915050565b6000602082840312156115ba576115b9611202565b5b600082013567ffffffffffffffff8111156115d8576115d7611207565b5b6115e484828501611576565b91505092915050565b600073ffffffffffffffffffffffffffffffffffffffff82169050919050565b6000611618826115ed565b9050919050565b6116288161160d565b811461163357600080fd5b50565b6000813590506116458161161f565b92915050565b6000806040838503121561166257611661611202565b5b600061167085828601611636565b92505060206116818582860161132e565b9150509250929050565b60006040820190506116a06000830185611383565b81810360208301526116b281846113e9565b90509392505050565b6000602082840312156116d1576116d0611202565b5b60006116df8482850161122d565b91505092915050565b600080604083850312156116ff576116fe611202565b5b600061170d8582860161122d565b925050602083013567ffffffffffffffff81111561172e5761172d611207565b5b61173a85828601611576565b9150509250929050565b600081519050919050565b600082825260208201905092915050565b6000819050602082019050919050565b6117798161120c565b82525050565b600082825260208201905092915050565b600061179b82611392565b6117a5818561177f565b93506117b58185602086016113ae565b6117be816113d8565b840191505092915050565b60006040830160008301516117e16000860182611770565b50602083015184820360208601526117f98282611790565b9150508091505092915050565b600081519050919050565b600082825260208201905092915050565b6000819050602082019050919050565b61183b81611242565b82525050565b60006060830160008301516118596000860182611770565b50602083015184820360208601526118718282611790565b91505060408301516118866040860182611832565b508091505092915050565b600061189d8383611841565b905092915050565b6000602082019050919050565b60006118bd82611806565b6118c78185611811565b9350836020820285016118d985611822565b8060005b8581101561191557848403895281516118f68582611891565b9450611901836118a5565b925060208a019950506001810190506118dd565b50829750879550505050505092915050565b6000604083016000830151848203600086015261194482826117c9565b9150506020830151848203602086015261195e82826118b2565b9150508091505092915050565b60006119778383611927565b905092915050565b6000602082019050919050565b600061199782611744565b6119a1818561174f565b9350836020820285016119b385611760565b8060005b858110156119ef57848403895281516119d0858261196b565b94506119db8361197f565b925060208a019950506001810190506119b7565b50829750879550505050505092915050565b60006020820190508181036000830152611a1b818461198c565b905092915050565b7f4e487b7100000000000000000000000000000000000000000000000000000000600052603260045260246000fd5b7f4e487b7100000000000000000000000000000000000000000000000000000000600052601160045260246000fd5b6000611a8c8261130d565b91507fffffffffffffffffffffffffffffffffffffffffffffffffffffffffffffffff8203611abe57611abd611a52565b5b600182019050919050565b7f5461736b206e6f7420666f756e64000000000000000000000000000000000000600082015250565b6000611aff600e8361139d565b9150611b0a82611ac9565b602082019050919050565b60006020820190508181036000830152611b2e81611af2565b9050919050565b7f4c697374206973206e6f7420666f756e64000000000000000000000000000000600082015250565b6000611b6b60118361139d565b9150611b7682611b35565b602082019050919050565b60006020820190508181036000830152611b9a81611b5e565b9050919050565b6000611bac8261130d565b9150611bb78361130d565b9250828203905081811115611bcf57611bce611a52565b5b92915050565b7f4e487b7100000000000000000000000000000000000000000000000000000000600052602260045260246000fd5b60006002820490506001821680611c1c57607f821691505b602082108103611c2f57611c2e611bd5565b5b50919050565b600081549050611c4481611c04565b9050919050565b60008190508160005260206000209050919050565b60006020601f8301049050919050565b600082821b905092915050565b600060088302611cad7fffffffffffffffffffffffffffffffffffffffffffffffffffffffffffffffff82611c70565b611cb78683611c70565b95508019841693508086168417925050509392505050565b6000819050919050565b6000611cf4611cef611cea8461130d565b611ccf565b61130d565b9050919050565b6000819050919050565b611d0e83611cd9565b611d22611d1a82611cfb565b848454611c7d565b825550505050565b600090565b611d37611d2a565b611d42818484611d05565b505050565b5b81811015611d6657611d5b600082611d2f565b600181019050611d48565b5050565b601f821115611dab57611d7c81611c4b565b611d8584611c60565b81016020851015611d94578190505b611da8611da085611c60565b830182611d47565b50505b505050565b600082821c905092915050565b6000611dce60001984600802611db0565b1980831691505092915050565b6000611de78383611dbd565b9150826002028217905092915050565b818103611e05575050611edd565b611e0e82611c35565b67ffffffffffffffff811115611e2757611e26611479565b5b611e318254611c04565b611e3c828285611d6a565b6000601f831160018114611e6b5760008415611e59578287015490505b611e638582611ddb565b865550611ed6565b601f198416611e7987611c4b565b9650611e8486611c4b565b60005b82811015611eac57848901548255600182019150600185019450602081019050611e87565b86831015611ec95784890154611ec5601f891682611dbd565b8355505b6001600288020188555050505b5050505050505b565b7f4e487b7100000000000000000000000000000000000000000000000000000000600052603160045260246000fd5b7f4c697374206e6f7420666f756e64000000000000000000000000000000000000600082015250565b6000611f44600e8361139d565b9150611f4f82611f0e565b602082019050919050565b60006020820190508181036000830152611f7381611f37565b9050919050565b7f4c697374206e616d652063616e6e6f7420626520656d70747900000000000000600082015250565b6000611fb060198361139d565b9150611fbb82611f7a565b602082019050919050565b60006020820190508181036000830152611fdf81611fa3565b9050919050565b611fef8161160d565b82525050565b600060408201905061200a6000830185611fe6565b818103602083015261201c81846113e9565b90509392505050565b60008151905061203481611216565b92915050565b6000602082840312156120505761204f611202565b5b600061205e84828501612025565b91505092915050565b61207082611392565b67ffffffffffffffff81111561208957612088611479565b5b6120938254611c04565b61209e828285611d6a565b600060209050601f8311600181146120d157600084156120bf578287015190505b6120c98582611ddb565b865550612131565b601f1984166120df86611c4b565b60005b82811015612107578489015182556001820191506020850194506020810190506120e2565b868310156121245784890151612120601f891682611dbd565b8355505b6001600288020188555050505b505050505050565b7f5461736b206e616d652063616e6e6f7420626520656d70747900000000000000600082015250565b600061216f60198361139d565b915061217a82612139565b602082019050919050565b6000602082019050818103600083015261219e81612162565b905091905056fea2646970667358221220f5aea6de61a521420434573cf70ca757c5bb175e9b1012db2f9849d90e899ec764736f6c63430008130033",
  "immutableReferences": {},
  "source": "// SPDX-License-Identifier: MIT\npragma solidity >=0.8.0 <=0.9.0;\n\nimport \"../Utility/Utility.sol\";\n\ncontract Todo {\n    Utility utility;\n\n    constructor(address _utilityAddress) {\n        utility = Utility(_utilityAddress);\n    }\n\n    struct TodoTask {\n        bytes32 Id;\n        string Task;\n        bool Done;\n    }\n\n    struct TodoList {\n        bytes32 Id;\n        string Name;\n    }\n\n    struct ListOfUserTask {\n        TodoList List;\n        TodoTask[] Task;\n    }\n\n    mapping(address => TodoList[]) public userLists;\n    mapping(bytes32 => TodoTask[]) public tasksByListId;\n\n    function GetAllListWithTasks()\n        public\n        view\n        returns (ListOfUserTask[] memory)\n    {\n        TodoList[] memory list = userLists[msg.sender];\n        ListOfUserTask[] memory listWithTask = new ListOfUserTask[](\n            list.length\n        );\n\n        for (uint256 i = 0; i < list.length; i++) {\n            TodoList memory currentList = list[i];\n            TodoTask[] memory tasks = tasksByListId[currentList.Id];\n\n            listWithTask[i] = ListOfUserTask({List: currentList, Task: tasks});\n        }\n\n        return listWithTask;\n    }\n\n    function AddNewList(string memory name) public {\n        require(bytes(name).length > 0, \"List name cannot be empty\");\n\n        userLists[msg.sender].push(\n            TodoList({Id: utility.GenerateKey(msg.sender, name), Name: name})\n        );\n    }\n\n    function AddNewListTask(bytes32 listId, string memory name) public {\n        require(bytes(name).length > 0, \"Task name cannot be empty\");\n\n        TodoList[] storage list = userLists[msg.sender];\n        bool listFound = false;\n        for (uint256 index = 0; index < list.length; index++) {\n            if (list[index].Id == listId) {\n                listFound = true;\n                tasksByListId[listId].push(\n                    TodoTask({\n                        Done: false,\n                        Task: name,\n                        Id: utility.GenerateKey(msg.sender, name)\n                    })\n                );\n                break;\n            }\n        }\n        require(listFound, \"List not found\");\n    }\n\n    function MarkTaskDone(bytes32 listId, bytes32 taskId, bool done) public {\n        TodoList[] storage list = userLists[msg.sender];\n\n        bool listFound = false;\n        for (uint256 index = 0; index < list.length; index++) {\n            if (list[index].Id == listId) {\n                listFound = true;\n                bool taskFound = false;\n                for (\n                    uint256 taskIndex = 0;\n                    taskIndex < tasksByListId[listId].length;\n                    taskIndex++\n                ) {\n                    if (tasksByListId[listId][taskIndex].Id == taskId) {\n                        taskFound = true;\n                        tasksByListId[listId][taskIndex].Done = done;\n                        break;\n                    }\n                }\n                require(taskFound, \"Task not found\");\n                break;\n            }\n        }\n\n        require(listFound, \"List is not found\");\n    }\n\n    function DeleteList(bytes32 listId) public {\n        TodoList[] storage list = userLists[msg.sender];\n\n        bool listFound = false;\n        for (uint256 i = 0; i < list.length; i++) {\n            if (list[i].Id == listId) {\n                listFound = true;\n                delete tasksByListId[list[i].Id];\n                list[i] = list[list.length - 1];\n                list.pop();\n                break;\n            }\n        }\n\n        require(listFound, \"List not found\");\n    }\n\n\n    function DeleteTaskFromList(bytes32 listId, bytes32 taskId) public {\n        TodoList[] storage lists = userLists[msg.sender];\n        bool listFound = false;\n\n        for (uint256 i = 0; i < lists.length; i++) {\n            if (lists[i].Id == listId) {\n                listFound = true;\n                TodoTask[] storage tasks = tasksByListId[listId];\n                uint256 taskIndex = findTaskIndex(tasks, taskId);\n                require(taskIndex < tasks.length, \"Task not found\");\n                tasks[taskIndex] = tasks[tasks.length - 1];\n                tasks.pop();\n\n                break;\n            }\n        }\n        require(listFound, \"List not found\");\n    }\n\n    function findTaskIndex(\n        TodoTask[] storage tasks,\n        bytes32 taskId\n    ) internal view returns (uint256) {\n        for (uint256 i = 0; i < tasks.length; i++) {\n            if (tasks[i].Id == taskId) {\n                return i;\n            }\n        }\n        revert(\"Task not found\");\n    }\n}\n",
  "sourcePath": "C:\\Workspace\\Practice\\Blockchain-Projects-main\\Blockchain-Projects-main\\Blockchain-Projects-main\\Truffle\\contracts\\TodoList\\Todo.sol",
  "compiler": {
    "name": "solc",
    "version": "0.8.19+commit.7dd6d404.Emscripten.clang"
  },
  "schemaVersion": "3.4.16",
  "updatedAt": "2024-08-28T13:02:42.705Z",
  "devdoc": {
    "kind": "dev",
    "methods": {},
    "version": 1
  },
  "userdoc": {
    "kind": "user",
    "methods": {},
    "version": 1
  }
}