{
  "contractName": "Token",
  "abi": [
    {
      "inputs": [
        {
          "internalType": "uint256",
          "name": "initialSupply",
          "type": "uint256"
        }
      ],
      "stateMutability": "nonpayable",
      "type": "constructor"
    },
    {
      "inputs": [
        {
          "internalType": "address",
          "name": "spender",
          "type": "address"
        },
        {
          "internalType": "uint256",
          "name": "allowance",
          "type": "uint256"
        },
        {
          "internalType": "uint256",
          "name": "needed",
          "type": "uint256"
        }
      ],
      "name": "ERC20InsufficientAllowance",
      "type": "error"
    },
    {
      "inputs": [
        {
          "internalType": "address",
          "name": "sender",
          "type": "address"
        },
        {
          "internalType": "uint256",
          "name": "balance",
          "type": "uint256"
        },
        {
          "internalType": "uint256",
          "name": "needed",
          "type": "uint256"
        }
      ],
      "name": "ERC20InsufficientBalance",
      "type": "error"
    },
    {
      "inputs": [
        {
          "internalType": "address",
          "name": "approver",
          "type": "address"
        }
      ],
      "name": "ERC20InvalidApprover",
      "type": "error"
    },
    {
      "inputs": [
        {
          "internalType": "address",
          "name": "receiver",
          "type": "address"
        }
      ],
      "name": "ERC20InvalidReceiver",
      "type": "error"
    },
    {
      "inputs": [
        {
          "internalType": "address",
          "name": "sender",
          "type": "address"
        }
      ],
      "name": "ERC20InvalidSender",
      "type": "error"
    },
    {
      "inputs": [
        {
          "internalType": "address",
          "name": "spender",
          "type": "address"
        }
      ],
      "name": "ERC20InvalidSpender",
      "type": "error"
    },
    {
      "anonymous": false,
      "inputs": [
        {
          "indexed": true,
          "internalType": "address",
          "name": "owner",
          "type": "address"
        },
        {
          "indexed": true,
          "internalType": "address",
          "name": "spender",
          "type": "address"
        },
        {
          "indexed": false,
          "internalType": "uint256",
          "name": "value",
          "type": "uint256"
        }
      ],
      "name": "Approval",
      "type": "event"
    },
    {
      "anonymous": false,
      "inputs": [
        {
          "indexed": true,
          "internalType": "address",
          "name": "from",
          "type": "address"
        },
        {
          "indexed": true,
          "internalType": "address",
          "name": "to",
          "type": "address"
        },
        {
          "indexed": false,
          "internalType": "uint256",
          "name": "value",
          "type": "uint256"
        }
      ],
      "name": "Transfer",
      "type": "event"
    },
    {
      "inputs": [
        {
          "internalType": "address",
          "name": "owner",
          "type": "address"
        },
        {
          "internalType": "address",
          "name": "spender",
          "type": "address"
        }
      ],
      "name": "allowance",
      "outputs": [
        {
          "internalType": "uint256",
          "name": "",
          "type": "uint256"
        }
      ],
      "stateMutability": "view",
      "type": "function"
    },
    {
      "inputs": [
        {
          "internalType": "address",
          "name": "spender",
          "type": "address"
        },
        {
          "internalType": "uint256",
          "name": "value",
          "type": "uint256"
        }
      ],
      "name": "approve",
      "outputs": [
        {
          "internalType": "bool",
          "name": "",
          "type": "bool"
        }
      ],
      "stateMutability": "nonpayable",
      "type": "function"
    },
    {
      "inputs": [
        {
          "internalType": "address",
          "name": "account",
          "type": "address"
        }
      ],
      "name": "balanceOf",
      "outputs": [
        {
          "internalType": "uint256",
          "name": "",
          "type": "uint256"
        }
      ],
      "stateMutability": "view",
      "type": "function"
    },
    {
      "inputs": [],
      "name": "decimals",
      "outputs": [
        {
          "internalType": "uint8",
          "name": "",
          "type": "uint8"
        }
      ],
      "stateMutability": "view",
      "type": "function"
    },
    {
      "inputs": [],
      "name": "name",
      "outputs": [
        {
          "internalType": "string",
          "name": "",
          "type": "string"
        }
      ],
      "stateMutability": "view",
      "type": "function"
    },
    {
      "inputs": [],
      "name": "symbol",
      "outputs": [
        {
          "internalType": "string",
          "name": "",
          "type": "string"
        }
      ],
      "stateMutability": "view",
      "type": "function"
    },
    {
      "inputs": [],
      "name": "totalSupply",
      "outputs": [
        {
          "internalType": "uint256",
          "name": "",
          "type": "uint256"
        }
      ],
      "stateMutability": "view",
      "type": "function"
    },
    {
      "inputs": [
        {
          "internalType": "address",
          "name": "to",
          "type": "address"
        },
        {
          "internalType": "uint256",
          "name": "value",
          "type": "uint256"
        }
      ],
      "name": "transfer",
      "outputs": [
        {
          "internalType": "bool",
          "name": "",
          "type": "bool"
        }
      ],
      "stateMutability": "nonpayable",
      "type": "function"
    },
    {
      "inputs": [
        {
          "internalType": "address",
          "name": "from",
          "type": "address"
        },
        {
          "internalType": "address",
          "name": "to",
          "type": "address"
        },
        {
          "internalType": "uint256",
          "name": "value",
          "type": "uint256"
        }
      ],
      "name": "transferFrom",
      "outputs": [
        {
          "internalType": "bool",
          "name": "",
          "type": "bool"
        }
      ],
      "stateMutability": "nonpayable",
      "type": "function"
    },
    {
      "inputs": [
        {
          "internalType": "address",
          "name": "to",
          "type": "address"
        },
        {
          "internalType": "uint256",
          "name": "amount",
          "type": "uint256"
        }
      ],
      "name": "Mint",
      "outputs": [],
      "stateMutability": "nonpayable",
      "type": "function"
    },
    {
      "inputs": [
        {
          "internalType": "address",
          "name": "to",
          "type": "address"
        },
        {
          "internalType": "uint256",
          "name": "amount",
          "type": "uint256"
        }
      ],
      "name": "Burn",
      "outputs": [],
      "stateMutability": "nonpayable",
      "type": "function"
    }
  ],
  "bytecode": "0x608060405234801562000010575f80fd5b506040516200190e3803806200190e83398181016040528101906200003691906200040b565b6040518060400160405280600481526020017f4172736c000000000000000000000000000000000000000000000000000000008152506040518060400160405280600381526020017f4d414b00000000000000000000000000000000000000000000000000000000008152508160039081620000b3919062000696565b508060049081620000c5919062000696565b505050620000da33826200012160201b60201c565b3360055f6101000a81548173ffffffffffffffffffffffffffffffffffffffff021916908373ffffffffffffffffffffffffffffffffffffffff16021790555050620008a6565b5f73ffffffffffffffffffffffffffffffffffffffff168273ffffffffffffffffffffffffffffffffffffffff160362000194575f6040517fec442f050000000000000000000000000000000000000000000000000000000081526004016200018b9190620007bd565b60405180910390fd5b620001a75f8383620001ab60201b60201c565b5050565b5f73ffffffffffffffffffffffffffffffffffffffff168373ffffffffffffffffffffffffffffffffffffffff1603620001ff578060025f828254620001f2919062000805565b92505081905550620002d0565b5f805f8573ffffffffffffffffffffffffffffffffffffffff1673ffffffffffffffffffffffffffffffffffffffff1681526020019081526020015f20549050818110156200028b578381836040517fe450d38c000000000000000000000000000000000000000000000000000000008152600401620002829392919062000850565b60405180910390fd5b8181035f808673ffffffffffffffffffffffffffffffffffffffff1673ffffffffffffffffffffffffffffffffffffffff1681526020019081526020015f2081905550505b5f73ffffffffffffffffffffffffffffffffffffffff168273ffffffffffffffffffffffffffffffffffffffff160362000319578060025f828254039250508190555062000363565b805f808473ffffffffffffffffffffffffffffffffffffffff1673ffffffffffffffffffffffffffffffffffffffff1681526020019081526020015f205f82825401925050819055505b8173ffffffffffffffffffffffffffffffffffffffff168373ffffffffffffffffffffffffffffffffffffffff167fddf252ad1be2c89b69c2b068fc378daa952ba7f163c4a11628f55a4df523b3ef83604051620003c291906200088b565b60405180910390a3505050565b5f80fd5b5f819050919050565b620003e781620003d3565b8114620003f2575f80fd5b50565b5f815190506200040581620003dc565b92915050565b5f60208284031215620004235762000422620003cf565b5b5f6200043284828501620003f5565b91505092915050565b5f81519050919050565b7f4e487b71000000000000000000000000000000000000000000000000000000005f52604160045260245ffd5b7f4e487b71000000000000000000000000000000000000000000000000000000005f52602260045260245ffd5b5f6002820490506001821680620004b757607f821691505b602082108103620004cd57620004cc62000472565b5b50919050565b5f819050815f5260205f209050919050565b5f6020601f8301049050919050565b5f82821b905092915050565b5f60088302620005317fffffffffffffffffffffffffffffffffffffffffffffffffffffffffffffffff82620004f4565b6200053d8683620004f4565b95508019841693508086168417925050509392505050565b5f819050919050565b5f6200057e620005786200057284620003d3565b62000555565b620003d3565b9050919050565b5f819050919050565b62000599836200055e565b620005b1620005a88262000585565b84845462000500565b825550505050565b5f90565b620005c7620005b9565b620005d48184846200058e565b505050565b5b81811015620005fb57620005ef5f82620005bd565b600181019050620005da565b5050565b601f8211156200064a576200061481620004d3565b6200061f84620004e5565b810160208510156200062f578190505b620006476200063e85620004e5565b830182620005d9565b50505b505050565b5f82821c905092915050565b5f6200066c5f19846008026200064f565b1980831691505092915050565b5f6200068683836200065b565b9150826002028217905092915050565b620006a1826200043b565b67ffffffffffffffff811115620006bd57620006bc62000445565b5b620006c982546200049f565b620006d6828285620005ff565b5f60209050601f8311600181146200070c575f8415620006f7578287015190505b62000703858262000679565b86555062000772565b601f1984166200071c86620004d3565b5f5b8281101562000745578489015182556001820191506020850194506020810190506200071e565b8683101562000765578489015162000761601f8916826200065b565b8355505b6001600288020188555050505b505050505050565b5f73ffffffffffffffffffffffffffffffffffffffff82169050919050565b5f620007a5826200077a565b9050919050565b620007b78162000799565b82525050565b5f602082019050620007d25f830184620007ac565b92915050565b7f4e487b71000000000000000000000000000000000000000000000000000000005f52601160045260245ffd5b5f6200081182620003d3565b91506200081e83620003d3565b9250828201905080821115620008395762000838620007d8565b5b92915050565b6200084a81620003d3565b82525050565b5f606082019050620008655f830186620007ac565b6200087460208301856200083f565b6200088360408301846200083f565b949350505050565b5f602082019050620008a05f8301846200083f565b92915050565b61105a80620008b45f395ff3fe608060405234801561000f575f80fd5b50600436106100a7575f3560e01c8063313ce5671161006f578063313ce5671461016357806370a082311461018157806395d89b41146101b1578063a9059cbb146101cf578063cc16f5db146101ff578063dd62ed3e1461021b576100a7565b806306fdde03146100ab578063095ea7b3146100c95780630f6798a5146100f957806318160ddd1461011557806323b872dd14610133575b5f80fd5b6100b361024b565b6040516100c09190610c6b565b60405180910390f35b6100e360048036038101906100de9190610d1c565b6102db565b6040516100f09190610d74565b60405180910390f35b610113600480360381019061010e9190610d1c565b6102fd565b005b61011d61039a565b60405161012a9190610d9c565b60405180910390f35b61014d60048036038101906101489190610db5565b6103a3565b60405161015a9190610d74565b60405180910390f35b61016b6103d1565b6040516101789190610e20565b60405180910390f35b61019b60048036038101906101969190610e39565b6103d9565b6040516101a89190610d9c565b60405180910390f35b6101b961041e565b6040516101c69190610c6b565b60405180910390f35b6101e960048036038101906101e49190610d1c565b6104ae565b6040516101f69190610d74565b60405180910390f35b61021960048036038101906102149190610d1c565b6104d0565b005b61023560048036038101906102309190610e64565b6104de565b6040516102429190610d9c565b60405180910390f35b60606003805461025a90610ecf565b80601f016020809104026020016040519081016040528092919081815260200182805461028690610ecf565b80156102d15780601f106102a8576101008083540402835291602001916102d1565b820191905f5260205f20905b8154815290600101906020018083116102b457829003601f168201915b5050505050905090565b5f806102e5610560565b90506102f2818585610567565b600191505092915050565b3373ffffffffffffffffffffffffffffffffffffffff1660055f9054906101000a900473ffffffffffffffffffffffffffffffffffffffff1673ffffffffffffffffffffffffffffffffffffffff161461038c576040517f08c379a000000000000000000000000000000000000000000000000000000000815260040161038390610f49565b60405180910390fd5b6103968282610579565b5050565b5f600254905090565b5f806103ad610560565b90506103ba8582856105f8565b6103c585858561068a565b60019150509392505050565b5f6012905090565b5f805f8373ffffffffffffffffffffffffffffffffffffffff1673ffffffffffffffffffffffffffffffffffffffff1681526020019081526020015f20549050919050565b60606004805461042d90610ecf565b80601f016020809104026020016040519081016040528092919081815260200182805461045990610ecf565b80156104a45780601f1061047b576101008083540402835291602001916104a4565b820191905f5260205f20905b81548152906001019060200180831161048757829003601f168201915b5050505050905090565b5f806104b8610560565b90506104c581858561068a565b600191505092915050565b6104da828261077a565b5050565b5f60015f8473ffffffffffffffffffffffffffffffffffffffff1673ffffffffffffffffffffffffffffffffffffffff1681526020019081526020015f205f8373ffffffffffffffffffffffffffffffffffffffff1673ffffffffffffffffffffffffffffffffffffffff1681526020019081526020015f2054905092915050565b5f33905090565b61057483838360016107f9565b505050565b5f73ffffffffffffffffffffffffffffffffffffffff168273ffffffffffffffffffffffffffffffffffffffff16036105e9575f6040517fec442f050000000000000000000000000000000000000000000000000000000081526004016105e09190610f76565b60405180910390fd5b6105f45f83836109c8565b5050565b5f61060384846104de565b90507fffffffffffffffffffffffffffffffffffffffffffffffffffffffffffffffff81146106845781811015610675578281836040517ffb8f41b200000000000000000000000000000000000000000000000000000000815260040161066c93929190610f8f565b60405180910390fd5b61068384848484035f6107f9565b5b50505050565b5f73ffffffffffffffffffffffffffffffffffffffff168373ffffffffffffffffffffffffffffffffffffffff16036106fa575f6040517f96c6fd1e0000000000000000000000000000000000000000000000000000000081526004016106f19190610f76565b60405180910390fd5b5f73ffffffffffffffffffffffffffffffffffffffff168273ffffffffffffffffffffffffffffffffffffffff160361076a575f6040517fec442f050000000000000000000000000000000000000000000000000000000081526004016107619190610f76565b60405180910390fd5b6107758383836109c8565b505050565b5f73ffffffffffffffffffffffffffffffffffffffff168273ffffffffffffffffffffffffffffffffffffffff16036107ea575f6040517f96c6fd1e0000000000000000000000000000000000000000000000000000000081526004016107e19190610f76565b60405180910390fd5b6107f5825f836109c8565b5050565b5f73ffffffffffffffffffffffffffffffffffffffff168473ffffffffffffffffffffffffffffffffffffffff1603610869575f6040517fe602df050000000000000000000000000000000000000000000000000000000081526004016108609190610f76565b60405180910390fd5b5f73ffffffffffffffffffffffffffffffffffffffff168373ffffffffffffffffffffffffffffffffffffffff16036108d9575f6040517f94280d620000000000000000000000000000000000000000000000000000000081526004016108d09190610f76565b60405180910390fd5b8160015f8673ffffffffffffffffffffffffffffffffffffffff1673ffffffffffffffffffffffffffffffffffffffff1681526020019081526020015f205f8573ffffffffffffffffffffffffffffffffffffffff1673ffffffffffffffffffffffffffffffffffffffff1681526020019081526020015f208190555080156109c2578273ffffffffffffffffffffffffffffffffffffffff168473ffffffffffffffffffffffffffffffffffffffff167f8c5be1e5ebec7d5bd14f71427d1e84f3dd0314c0f7b2291e5b200ac8c7c3b925846040516109b99190610d9c565b60405180910390a35b50505050565b5f73ffffffffffffffffffffffffffffffffffffffff168373ffffffffffffffffffffffffffffffffffffffff1603610a18578060025f828254610a0c9190610ff1565b92505081905550610ae6565b5f805f8573ffffffffffffffffffffffffffffffffffffffff1673ffffffffffffffffffffffffffffffffffffffff1681526020019081526020015f2054905081811015610aa1578381836040517fe450d38c000000000000000000000000000000000000000000000000000000008152600401610a9893929190610f8f565b60405180910390fd5b8181035f808673ffffffffffffffffffffffffffffffffffffffff1673ffffffffffffffffffffffffffffffffffffffff1681526020019081526020015f2081905550505b5f73ffffffffffffffffffffffffffffffffffffffff168273ffffffffffffffffffffffffffffffffffffffff1603610b2d578060025f8282540392505081905550610b77565b805f808473ffffffffffffffffffffffffffffffffffffffff1673ffffffffffffffffffffffffffffffffffffffff1681526020019081526020015f205f82825401925050819055505b8173ffffffffffffffffffffffffffffffffffffffff168373ffffffffffffffffffffffffffffffffffffffff167fddf252ad1be2c89b69c2b068fc378daa952ba7f163c4a11628f55a4df523b3ef83604051610bd49190610d9c565b60405180910390a3505050565b5f81519050919050565b5f82825260208201905092915050565b5f5b83811015610c18578082015181840152602081019050610bfd565b5f8484015250505050565b5f601f19601f8301169050919050565b5f610c3d82610be1565b610c478185610beb565b9350610c57818560208601610bfb565b610c6081610c23565b840191505092915050565b5f6020820190508181035f830152610c838184610c33565b905092915050565b5f80fd5b5f73ffffffffffffffffffffffffffffffffffffffff82169050919050565b5f610cb882610c8f565b9050919050565b610cc881610cae565b8114610cd2575f80fd5b50565b5f81359050610ce381610cbf565b92915050565b5f819050919050565b610cfb81610ce9565b8114610d05575f80fd5b50565b5f81359050610d1681610cf2565b92915050565b5f8060408385031215610d3257610d31610c8b565b5b5f610d3f85828601610cd5565b9250506020610d5085828601610d08565b9150509250929050565b5f8115159050919050565b610d6e81610d5a565b82525050565b5f602082019050610d875f830184610d65565b92915050565b610d9681610ce9565b82525050565b5f602082019050610daf5f830184610d8d565b92915050565b5f805f60608486031215610dcc57610dcb610c8b565b5b5f610dd986828701610cd5565b9350506020610dea86828701610cd5565b9250506040610dfb86828701610d08565b9150509250925092565b5f60ff82169050919050565b610e1a81610e05565b82525050565b5f602082019050610e335f830184610e11565b92915050565b5f60208284031215610e4e57610e4d610c8b565b5b5f610e5b84828501610cd5565b91505092915050565b5f8060408385031215610e7a57610e79610c8b565b5b5f610e8785828601610cd5565b9250506020610e9885828601610cd5565b9150509250929050565b7f4e487b71000000000000000000000000000000000000000000000000000000005f52602260045260245ffd5b5f6002820490506001821680610ee657607f821691505b602082108103610ef957610ef8610ea2565b5b50919050565b7f4f6e6c796f776e6572206d696e742074686520746f6b656e00000000000000005f82015250565b5f610f33601883610beb565b9150610f3e82610eff565b602082019050919050565b5f6020820190508181035f830152610f6081610f27565b9050919050565b610f7081610cae565b82525050565b5f602082019050610f895f830184610f67565b92915050565b5f606082019050610fa25f830186610f67565b610faf6020830185610d8d565b610fbc6040830184610d8d565b949350505050565b7f4e487b71000000000000000000000000000000000000000000000000000000005f52601160045260245ffd5b5f610ffb82610ce9565b915061100683610ce9565b925082820190508082111561101e5761101d610fc4565b5b9291505056fea26469706673582212203e11541b7dee0989e9f27552e8435b7c80a3af746303adcd8b73dc4c6245859664736f6c63430008140033",
  "immutableReferences": {},
  "source": "// SPDX-License-Identifier: MIT\npragma solidity ^0.8.20;\nimport \"@openzeppelin/contracts/token/ERC20/ERC20.sol\";\n\ncontract Token is ERC20 {\n    address private owner;\n\n    constructor(uint256 initialSupply) ERC20(\"Arsl\", \"MAK\")  {\n        _mint(msg.sender, initialSupply);\n        owner = msg.sender;\n    }\n\n    function Mint(address to, uint256 amount) external {\n        require(owner == msg.sender, \"Onlyowner mint the token\");\n        _mint(to, amount);\n    }\n\n    function Burn(address to, uint256 amount) external {\n        _burn(to, amount);\n    }\n}\n",
  "sourcePath": "C:\\Workspace\\Practice\\Blockchain-Projects-main\\blockchain\\Truffle\\contracts\\DAO\\Token.sol",
  "compiler": {
    "name": "solc",
    "version": "0.8.20+commit.a1b79de6.Emscripten.clang"
  },
  "schemaVersion": "3.4.16",
  "updatedAt": "2024-09-06T07:58:50.439Z",
  "devdoc": {
    "errors": {
      "ERC20InsufficientAllowance(address,uint256,uint256)": [
        {
          "details": "Indicates a failure with the `spender`s `allowance`. Used in transfers.",
          "params": {
            "allowance": "Amount of tokens a `spender` is allowed to operate with.",
            "needed": "Minimum amount required to perform a transfer.",
            "spender": "Address that may be allowed to operate on tokens without being their owner."
          }
        }
      ],
      "ERC20InsufficientBalance(address,uint256,uint256)": [
        {
          "details": "Indicates an error related to the current `balance` of a `sender`. Used in transfers.",
          "params": {
            "balance": "Current balance for the interacting account.",
            "needed": "Minimum amount required to perform a transfer.",
            "sender": "Address whose tokens are being transferred."
          }
        }
      ],
      "ERC20InvalidApprover(address)": [
        {
          "details": "Indicates a failure with the `approver` of a token to be approved. Used in approvals.",
          "params": {
            "approver": "Address initiating an approval operation."
          }
        }
      ],
      "ERC20InvalidReceiver(address)": [
        {
          "details": "Indicates a failure with the token `receiver`. Used in transfers.",
          "params": {
            "receiver": "Address to which tokens are being transferred."
          }
        }
      ],
      "ERC20InvalidSender(address)": [
        {
          "details": "Indicates a failure with the token `sender`. Used in transfers.",
          "params": {
            "sender": "Address whose tokens are being transferred."
          }
        }
      ],
      "ERC20InvalidSpender(address)": [
        {
          "details": "Indicates a failure with the `spender` to be approved. Used in approvals.",
          "params": {
            "spender": "Address that may be allowed to operate on tokens without being their owner."
          }
        }
      ]
    },
    "events": {
      "Approval(address,address,uint256)": {
        "details": "Emitted when the allowance of a `spender` for an `owner` is set by a call to {approve}. `value` is the new allowance."
      },
      "Transfer(address,address,uint256)": {
        "details": "Emitted when `value` tokens are moved from one account (`from`) to another (`to`). Note that `value` may be zero."
      }
    },
    "kind": "dev",
    "methods": {
      "allowance(address,address)": {
        "details": "See {IERC20-allowance}."
      },
      "approve(address,uint256)": {
        "details": "See {IERC20-approve}. NOTE: If `value` is the maximum `uint256`, the allowance is not updated on `transferFrom`. This is semantically equivalent to an infinite approval. Requirements: - `spender` cannot be the zero address."
      },
      "balanceOf(address)": {
        "details": "See {IERC20-balanceOf}."
      },
      "decimals()": {
        "details": "Returns the number of decimals used to get its user representation. For example, if `decimals` equals `2`, a balance of `505` tokens should be displayed to a user as `5.05` (`505 / 10 ** 2`). Tokens usually opt for a value of 18, imitating the relationship between Ether and Wei. This is the default value returned by this function, unless it's overridden. NOTE: This information is only used for _display_ purposes: it in no way affects any of the arithmetic of the contract, including {IERC20-balanceOf} and {IERC20-transfer}."
      },
      "name()": {
        "details": "Returns the name of the token."
      },
      "symbol()": {
        "details": "Returns the symbol of the token, usually a shorter version of the name."
      },
      "totalSupply()": {
        "details": "See {IERC20-totalSupply}."
      },
      "transfer(address,uint256)": {
        "details": "See {IERC20-transfer}. Requirements: - `to` cannot be the zero address. - the caller must have a balance of at least `value`."
      },
      "transferFrom(address,address,uint256)": {
        "details": "See {IERC20-transferFrom}. Emits an {Approval} event indicating the updated allowance. This is not required by the EIP. See the note at the beginning of {ERC20}. NOTE: Does not update the allowance if the current allowance is the maximum `uint256`. Requirements: - `from` and `to` cannot be the zero address. - `from` must have a balance of at least `value`. - the caller must have allowance for ``from``'s tokens of at least `value`."
      }
    },
    "version": 1
  },
  "userdoc": {
    "kind": "user",
    "methods": {},
    "version": 1
  }
}