{
  "contractName": "Utility",
  "abi": [
    {
      "inputs": [],
      "stateMutability": "nonpayable",
      "type": "constructor"
    },
    {
      "inputs": [
        {
          "internalType": "address",
          "name": "userAdress",
          "type": "address"
        },
        {
          "internalType": "string",
          "name": "itemName",
          "type": "string"
        }
      ],
      "name": "GenerateKey",
      "outputs": [
        {
          "internalType": "bytes32",
          "name": "",
          "type": "bytes32"
        }
      ],
      "stateMutability": "view",
      "type": "function"
    }
  ],
  "bytecode": "0x608060405234801561000f575f80fd5b5061041e8061001d5f395ff3fe608060405234801561000f575f80fd5b5060043610610029575f3560e01c80632d5954a51461002d575b5f80fd5b6100476004803603810190610042919061023a565b61005d565b60405161005491906102ac565b60405180910390f35b5f82824342604051602001610075949392919061039f565b60405160208183030381529060405280519060200120905092915050565b5f604051905090565b5f80fd5b5f80fd5b5f73ffffffffffffffffffffffffffffffffffffffff82169050919050565b5f6100cd826100a4565b9050919050565b6100dd816100c3565b81146100e7575f80fd5b50565b5f813590506100f8816100d4565b92915050565b5f80fd5b5f80fd5b5f601f19601f8301169050919050565b7f4e487b71000000000000000000000000000000000000000000000000000000005f52604160045260245ffd5b61014c82610106565b810181811067ffffffffffffffff8211171561016b5761016a610116565b5b80604052505050565b5f61017d610093565b90506101898282610143565b919050565b5f67ffffffffffffffff8211156101a8576101a7610116565b5b6101b182610106565b9050602081019050919050565b828183375f83830152505050565b5f6101de6101d98461018e565b610174565b9050828152602081018484840111156101fa576101f9610102565b5b6102058482856101be565b509392505050565b5f82601f830112610221576102206100fe565b5b81356102318482602086016101cc565b91505092915050565b5f80604083850312156102505761024f61009c565b5b5f61025d858286016100ea565b925050602083013567ffffffffffffffff81111561027e5761027d6100a0565b5b61028a8582860161020d565b9150509250929050565b5f819050919050565b6102a681610294565b82525050565b5f6020820190506102bf5f83018461029d565b92915050565b5f8160601b9050919050565b5f6102db826102c5565b9050919050565b5f6102ec826102d1565b9050919050565b6103046102ff826100c3565b6102e2565b82525050565b5f81519050919050565b5f81905092915050565b5f5b8381101561033b578082015181840152602081019050610320565b5f8484015250505050565b5f6103508261030a565b61035a8185610314565b935061036a81856020860161031e565b80840191505092915050565b5f819050919050565b5f819050919050565b61039961039482610376565b61037f565b82525050565b5f6103aa82876102f3565b6014820191506103ba8286610346565b91506103c68285610388565b6020820191506103d68284610388565b6020820191508190509594505050505056fea264697066735822122032ddb966ea46e0ba643bb191546f4393990e1372372956e0922f3e297b76631964736f6c63430008140033",
  "immutableReferences": {},
  "source": "// SPDX-License-Identifier: MIT\npragma solidity >=0.8.0 <=0.9.0;\n\ncontract Utility {\n    constructor() {}\n\n    function GenerateKey(\n        address userAdress,\n        string memory itemName\n    ) external view returns (bytes32) {\n        // Generate a key based on the user's address and the item name\n        return\n            keccak256(\n                abi.encodePacked(\n                    userAdress,\n                    itemName,\n                    block.number,\n                    block.timestamp\n                )\n            );\n    }\n}\n",
  "sourcePath": "C:\\Workspace\\Practice\\Blockchain-Projects-main\\Blockchain-Projects-main\\Blockchain-Projects-main\\Truffle\\contracts\\Utility\\Utility.sol",
  "compiler": {
    "name": "solc",
    "version": "0.8.20+commit.a1b79de6.Emscripten.clang"
  },
  "schemaVersion": "3.4.16",
  "updatedAt": "2024-08-30T10:35:54.301Z",
  "devdoc": {
    "kind": "dev",
    "methods": {},
    "version": 1
  },
  "userdoc": {
    "kind": "user",
    "methods": {},
    "version": 1
  }
}