{
  "contractName": "Utility",
  "abi": [
    {
      "inputs": [],
      "stateMutability": "nonpayable",
      "type": "constructor"
    },
    {
      "inputs": [
        {
          "internalType": "address",
          "name": "userAdress",
          "type": "address"
        },
        {
          "internalType": "string",
          "name": "itemName",
          "type": "string"
        }
      ],
      "name": "GenerateKey",
      "outputs": [
        {
          "internalType": "bytes32",
          "name": "",
          "type": "bytes32"
        }
      ],
      "stateMutability": "view",
      "type": "function"
    }
  ],
  "bytecode": "0x608060405234801561001057600080fd5b50610443806100206000396000f3fe608060405234801561001057600080fd5b506004361061002b5760003560e01c80632d5954a514610030575b600080fd5b61004a6004803603810190610045919061024f565b610060565b60405161005791906102c4565b60405180910390f35b60008282434260405160200161007994939291906103c3565b60405160208183030381529060405280519060200120905092915050565b6000604051905090565b600080fd5b600080fd5b600073ffffffffffffffffffffffffffffffffffffffff82169050919050565b60006100d6826100ab565b9050919050565b6100e6816100cb565b81146100f157600080fd5b50565b600081359050610103816100dd565b92915050565b600080fd5b600080fd5b6000601f19601f8301169050919050565b7f4e487b7100000000000000000000000000000000000000000000000000000000600052604160045260246000fd5b61015c82610113565b810181811067ffffffffffffffff8211171561017b5761017a610124565b5b80604052505050565b600061018e610097565b905061019a8282610153565b919050565b600067ffffffffffffffff8211156101ba576101b9610124565b5b6101c382610113565b9050602081019050919050565b82818337600083830152505050565b60006101f26101ed8461019f565b610184565b90508281526020810184848401111561020e5761020d61010e565b5b6102198482856101d0565b509392505050565b600082601f83011261023657610235610109565b5b81356102468482602086016101df565b91505092915050565b60008060408385031215610266576102656100a1565b5b6000610274858286016100f4565b925050602083013567ffffffffffffffff811115610295576102946100a6565b5b6102a185828601610221565b9150509250929050565b6000819050919050565b6102be816102ab565b82525050565b60006020820190506102d960008301846102b5565b92915050565b60008160601b9050919050565b60006102f7826102df565b9050919050565b6000610309826102ec565b9050919050565b61032161031c826100cb565b6102fe565b82525050565b600081519050919050565b600081905092915050565b60005b8381101561035b578082015181840152602081019050610340565b60008484015250505050565b600061037282610327565b61037c8185610332565b935061038c81856020860161033d565b80840191505092915050565b6000819050919050565b6000819050919050565b6103bd6103b882610398565b6103a2565b82525050565b60006103cf8287610310565b6014820191506103df8286610367565b91506103eb82856103ac565b6020820191506103fb82846103ac565b6020820191508190509594505050505056fea2646970667358221220be243c14e31b43bf92bcf9ce427148e09c79840ce1b8e280b1d2b3c1f9a9e5aa64736f6c63430008130033",
  "immutableReferences": {},
  "source": "// SPDX-License-Identifier: MIT\npragma solidity >=0.8.0 <=0.9.0;\n\ncontract Utility {\n    constructor() {}\n\n    function GenerateKey(\n        address userAdress,\n        string memory itemName\n    ) external view returns (bytes32) {\n        // Generate a key based on the user's address and the item name\n        return\n            keccak256(\n                abi.encodePacked(\n                    userAdress,\n                    itemName,\n                    block.number,\n                    block.timestamp\n                )\n            );\n    }\n}\n",
  "sourcePath": "C:\\Workspace\\Practice\\Blockchain-Projects-main\\Blockchain-Projects-main\\Blockchain-Projects-main\\Truffle\\contracts\\Utility\\Utility.sol",
  "compiler": {
    "name": "solc",
    "version": "0.8.19+commit.7dd6d404.Emscripten.clang"
  },
  "schemaVersion": "3.4.16",
  "updatedAt": "2024-08-28T13:02:42.715Z",
  "devdoc": {
    "kind": "dev",
    "methods": {},
    "version": 1
  },
  "userdoc": {
    "kind": "user",
    "methods": {},
    "version": 1
  }
}