{
  "contractName": "Vote",
  "abi": [
    {
      "inputs": [
        {
          "internalType": "string[]",
          "name": "proposalNames",
          "type": "string[]"
        }
      ],
      "stateMutability": "nonpayable",
      "type": "constructor"
    },
    {
      "inputs": [
        {
          "internalType": "uint256",
          "name": "",
          "type": "uint256"
        }
      ],
      "name": "proposals",
      "outputs": [
        {
          "internalType": "string",
          "name": "name",
          "type": "string"
        },
        {
          "internalType": "uint256",
          "name": "voteCount",
          "type": "uint256"
        }
      ],
      "stateMutability": "view",
      "type": "function"
    },
    {
      "inputs": [
        {
          "internalType": "address",
          "name": "",
          "type": "address"
        }
      ],
      "name": "voters",
      "outputs": [
        {
          "internalType": "bool",
          "name": "",
          "type": "bool"
        }
      ],
      "stateMutability": "view",
      "type": "function"
    },
    {
      "inputs": [
        {
          "internalType": "uint256",
          "name": "proposal",
          "type": "uint256"
        }
      ],
      "name": "vote",
      "outputs": [],
      "stateMutability": "nonpayable",
      "type": "function"
    },
    {
      "inputs": [
        {
          "internalType": "uint256",
          "name": "index",
          "type": "uint256"
        }
      ],
      "name": "getProposalByIndex",
      "outputs": [
        {
          "internalType": "string",
          "name": "",
          "type": "string"
        }
      ],
      "stateMutability": "view",
      "type": "function"
    },
    {
      "inputs": [],
      "name": "getProposals",
      "outputs": [
        {
          "components": [
            {
              "internalType": "string",
              "name": "name",
              "type": "string"
            },
            {
              "internalType": "uint256",
              "name": "voteCount",
              "type": "uint256"
            }
          ],
          "internalType": "struct Vote.Proposal[]",
          "name": "",
          "type": "tuple[]"
        }
      ],
      "stateMutability": "view",
      "type": "function"
    }
  ],
  "bytecode": "0x60806040523480156200001157600080fd5b506040516200126338038062001263833981810160405281019062000037919062000373565b60005b8151811015620000dc5760016040518060400160405280848481518110620000675762000066620003c4565b5b60200260200101518152602001600081525090806001815401808255809150506001900390600052602060002090600202016000909190919091506000820151816000019081620000b991906200063e565b506020820151816001015550508080620000d39062000754565b9150506200003a565b5050620007a1565b6000604051905090565b600080fd5b600080fd5b600080fd5b6000601f19601f8301169050919050565b7f4e487b7100000000000000000000000000000000000000000000000000000000600052604160045260246000fd5b6200014882620000fd565b810181811067ffffffffffffffff821117156200016a57620001696200010e565b5b80604052505050565b60006200017f620000e4565b90506200018d82826200013d565b919050565b600067ffffffffffffffff821115620001b057620001af6200010e565b5b602082029050602081019050919050565b600080fd5b600080fd5b600067ffffffffffffffff821115620001e957620001e86200010e565b5b620001f482620000fd565b9050602081019050919050565b60005b838110156200022157808201518184015260208101905062000204565b60008484015250505050565b6000620002446200023e84620001cb565b62000173565b905082815260208101848484011115620002635762000262620001c6565b5b6200027084828562000201565b509392505050565b600082601f83011262000290576200028f620000f8565b5b8151620002a28482602086016200022d565b91505092915050565b6000620002c2620002bc8462000192565b62000173565b90508083825260208201905060208402830185811115620002e857620002e7620001c1565b5b835b818110156200033657805167ffffffffffffffff811115620003115762000310620000f8565b5b80860162000320898262000278565b85526020850194505050602081019050620002ea565b5050509392505050565b600082601f830112620003585762000357620000f8565b5b81516200036a848260208601620002ab565b91505092915050565b6000602082840312156200038c576200038b620000ee565b5b600082015167ffffffffffffffff811115620003ad57620003ac620000f3565b5b620003bb8482850162000340565b91505092915050565b7f4e487b7100000000000000000000000000000000000000000000000000000000600052603260045260246000fd5b600081519050919050565b7f4e487b7100000000000000000000000000000000000000000000000000000000600052602260045260246000fd5b600060028204905060018216806200044657607f821691505b6020821081036200045c576200045b620003fe565b5b50919050565b60008190508160005260206000209050919050565b60006020601f8301049050919050565b600082821b905092915050565b600060088302620004c67fffffffffffffffffffffffffffffffffffffffffffffffffffffffffffffffff8262000487565b620004d2868362000487565b95508019841693508086168417925050509392505050565b6000819050919050565b6000819050919050565b60006200051f620005196200051384620004ea565b620004f4565b620004ea565b9050919050565b6000819050919050565b6200053b83620004fe565b620005536200054a8262000526565b84845462000494565b825550505050565b600090565b6200056a6200055b565b6200057781848462000530565b505050565b5b818110156200059f576200059360008262000560565b6001810190506200057d565b5050565b601f821115620005ee57620005b88162000462565b620005c38462000477565b81016020851015620005d3578190505b620005eb620005e28562000477565b8301826200057c565b50505b505050565b600082821c905092915050565b60006200061360001984600802620005f3565b1980831691505092915050565b60006200062e838362000600565b9150826002028217905092915050565b6200064982620003f3565b67ffffffffffffffff8111156200066557620006646200010e565b5b6200067182546200042d565b6200067e828285620005a3565b600060209050601f831160018114620006b65760008415620006a1578287015190505b620006ad858262000620565b8655506200071d565b601f198416620006c68662000462565b60005b82811015620006f057848901518255600182019150602085019450602081019050620006c9565b868310156200071057848901516200070c601f89168262000600565b8355505b6001600288020188555050505b505050505050565b7f4e487b7100000000000000000000000000000000000000000000000000000000600052601160045260246000fd5b60006200076182620004ea565b91507fffffffffffffffffffffffffffffffffffffffffffffffffffffffffffffffff820362000796576200079562000725565b5b600182019050919050565b610ab280620007b16000396000f3fe608060405234801561001057600080fd5b50600436106100575760003560e01c80630121b93f1461005c578063013cf08b1461007857806337d1d389146100a957806362564c48146100d9578063a3ec138d146100f7575b600080fd5b61007660048036038101906100719190610559565b610127565b005b610092600480360381019061008d9190610559565b610249565b6040516100a0929190610625565b60405180910390f35b6100c360048036038101906100be9190610559565b610305565b6040516100d09190610655565b60405180910390f35b6100e1610403565b6040516100ee91906107cf565b60405180910390f35b610111600480360381019061010c919061084f565b6104fe565b60405161011e9190610897565b60405180910390f35b6000803373ffffffffffffffffffffffffffffffffffffffff1673ffffffffffffffffffffffffffffffffffffffff16815260200190815260200160002060009054906101000a900460ff16156101b3576040517f08c379a00000000000000000000000000000000000000000000000000000000081526004016101aa906108fe565b60405180910390fd5b60016000803373ffffffffffffffffffffffffffffffffffffffff1673ffffffffffffffffffffffffffffffffffffffff16815260200190815260200160002060006101000a81548160ff021916908315150217905550600180828154811061021f5761021e61091e565b5b9060005260206000209060020201600101600082825461023f919061097c565b9250508190555050565b6001818154811061025957600080fd5b906000526020600020906002020160009150905080600001805461027c906109df565b80601f01602080910402602001604051908101604052809291908181526020018280546102a8906109df565b80156102f55780601f106102ca576101008083540402835291602001916102f5565b820191906000526020600020905b8154815290600101906020018083116102d857829003601f168201915b5050505050908060010154905082565b6060600180549050821061034e576040517f08c379a000000000000000000000000000000000000000000000000000000000815260040161034590610a5c565b60405180910390fd5b600182815481106103625761036161091e565b5b9060005260206000209060020201600001805461037e906109df565b80601f01602080910402602001604051908101604052809291908181526020018280546103aa906109df565b80156103f75780601f106103cc576101008083540402835291602001916103f7565b820191906000526020600020905b8154815290600101906020018083116103da57829003601f168201915b50505050509050919050565b60606001805480602002602001604051908101604052809291908181526020016000905b828210156104f5578382906000526020600020906002020160405180604001604052908160008201805461045a906109df565b80601f0160208091040260200160405190810160405280929190818152602001828054610486906109df565b80156104d35780601f106104a8576101008083540402835291602001916104d3565b820191906000526020600020905b8154815290600101906020018083116104b657829003601f168201915b5050505050815260200160018201548152505081526020019060010190610427565b50505050905090565b60006020528060005260406000206000915054906101000a900460ff1681565b600080fd5b6000819050919050565b61053681610523565b811461054157600080fd5b50565b6000813590506105538161052d565b92915050565b60006020828403121561056f5761056e61051e565b5b600061057d84828501610544565b91505092915050565b600081519050919050565b600082825260208201905092915050565b60005b838110156105c05780820151818401526020810190506105a5565b60008484015250505050565b6000601f19601f8301169050919050565b60006105e882610586565b6105f28185610591565b93506106028185602086016105a2565b61060b816105cc565b840191505092915050565b61061f81610523565b82525050565b6000604082019050818103600083015261063f81856105dd565b905061064e6020830184610616565b9392505050565b6000602082019050818103600083015261066f81846105dd565b905092915050565b600081519050919050565b600082825260208201905092915050565b6000819050602082019050919050565b600082825260208201905092915050565b60006106bf82610586565b6106c981856106a3565b93506106d98185602086016105a2565b6106e2816105cc565b840191505092915050565b6106f681610523565b82525050565b6000604083016000830151848203600086015261071982826106b4565b915050602083015161072e60208601826106ed565b508091505092915050565b600061074583836106fc565b905092915050565b6000602082019050919050565b600061076582610677565b61076f8185610682565b93508360208202850161078185610693565b8060005b858110156107bd578484038952815161079e8582610739565b94506107a98361074d565b925060208a01995050600181019050610785565b50829750879550505050505092915050565b600060208201905081810360008301526107e9818461075a565b905092915050565b600073ffffffffffffffffffffffffffffffffffffffff82169050919050565b600061081c826107f1565b9050919050565b61082c81610811565b811461083757600080fd5b50565b60008135905061084981610823565b92915050565b6000602082840312156108655761086461051e565b5b60006108738482850161083a565b91505092915050565b60008115159050919050565b6108918161087c565b82525050565b60006020820190506108ac6000830184610888565b92915050565b7f596f75206861766520616c726561647920766f7465642e000000000000000000600082015250565b60006108e8601783610591565b91506108f3826108b2565b602082019050919050565b60006020820190508181036000830152610917816108db565b9050919050565b7f4e487b7100000000000000000000000000000000000000000000000000000000600052603260045260246000fd5b7f4e487b7100000000000000000000000000000000000000000000000000000000600052601160045260246000fd5b600061098782610523565b915061099283610523565b92508282019050808211156109aa576109a961094d565b5b92915050565b7f4e487b7100000000000000000000000000000000000000000000000000000000600052602260045260246000fd5b600060028204905060018216806109f757607f821691505b602082108103610a0a57610a096109b0565b5b50919050565b7f496e646578206f7574206f6620626f756e647300000000000000000000000000600082015250565b6000610a46601383610591565b9150610a5182610a10565b602082019050919050565b60006020820190508181036000830152610a7581610a39565b905091905056fea26469706673582212200c5e46160913702efd4c1d03c18cb9cba920ed8417272f6980feefa209b7655c64736f6c63430008130033",
  "immutableReferences": {},
  "source": "// SPDX-License-Identifier: MIT\r\npragma solidity >=0.8.0 <0.9.0;\r\n\r\ncontract Vote {\r\n    struct Proposal {\r\n        string name;\r\n        uint voteCount;\r\n    }\r\n\r\n    mapping(address => bool) public voters;\r\n    Proposal[] public proposals;\r\n\r\n    constructor(string[] memory proposalNames) {\r\n        for (uint i = 0; i < proposalNames.length; i++) {\r\n            proposals.push(Proposal({name: proposalNames[i], voteCount: 0}));\r\n        }\r\n    }\r\n\r\n    function vote(uint proposal) public {\r\n        require(!voters[msg.sender], \"You have already voted.\");\r\n        voters[msg.sender] = true;\r\n        proposals[proposal].voteCount += 1;\r\n    }\r\n\r\n    function getProposalByIndex(uint index) public view returns (string memory) {\r\n        require(index < proposals.length, \"Index out of bounds\");\r\n        return proposals[index].name;\r\n    }\r\n\r\n    function getProposals() public view returns (Proposal[] memory) {\r\n        return proposals;\r\n    }\r\n}\r\n",
  "sourcePath": "C:\\Workspace\\Projects\\Blockchain\\Truffle\\contracts\\VotingSystem\\Vote.sol",
  "compiler": {
    "name": "solc",
    "version": "0.8.19+commit.7dd6d404.Emscripten.clang"
  },
  "schemaVersion": "3.4.16",
  "updatedAt": "2024-08-24T19:17:08.487Z",
  "devdoc": {
    "kind": "dev",
    "methods": {},
    "version": 1
  },
  "userdoc": {
    "kind": "user",
    "methods": {},
    "version": 1
  }
}