{
  "contractName": "Vote",
  "abi": [
    {
      "inputs": [
        {
          "internalType": "string[]",
          "name": "proposalNames",
          "type": "string[]"
        }
      ],
      "stateMutability": "nonpayable",
      "type": "constructor"
    },
    {
      "inputs": [
        {
          "internalType": "uint256",
          "name": "",
          "type": "uint256"
        }
      ],
      "name": "proposals",
      "outputs": [
        {
          "internalType": "string",
          "name": "name",
          "type": "string"
        },
        {
          "internalType": "uint256",
          "name": "voteCount",
          "type": "uint256"
        }
      ],
      "stateMutability": "view",
      "type": "function"
    },
    {
      "inputs": [
        {
          "internalType": "address",
          "name": "",
          "type": "address"
        }
      ],
      "name": "voters",
      "outputs": [
        {
          "internalType": "bool",
          "name": "",
          "type": "bool"
        }
      ],
      "stateMutability": "view",
      "type": "function"
    },
    {
      "inputs": [
        {
          "internalType": "uint256",
          "name": "proposal",
          "type": "uint256"
        }
      ],
      "name": "AddVote",
      "outputs": [],
      "stateMutability": "nonpayable",
      "type": "function"
    },
    {
      "inputs": [
        {
          "internalType": "uint256",
          "name": "index",
          "type": "uint256"
        }
      ],
      "name": "getProposalByIndex",
      "outputs": [
        {
          "internalType": "string",
          "name": "",
          "type": "string"
        }
      ],
      "stateMutability": "view",
      "type": "function"
    },
    {
      "inputs": [],
      "name": "getProposals",
      "outputs": [
        {
          "components": [
            {
              "internalType": "string",
              "name": "name",
              "type": "string"
            },
            {
              "internalType": "uint256",
              "name": "voteCount",
              "type": "uint256"
            }
          ],
          "internalType": "struct Vote.Proposal[]",
          "name": "",
          "type": "tuple[]"
        }
      ],
      "stateMutability": "view",
      "type": "function"
    }
  ],
  "bytecode": "0x608060405234801562000010575f80fd5b50604051620011d0380380620011d0833981810160405281019062000036919062000359565b5f5b8151811015620000d45760016040518060400160405280848481518110620000655762000064620003a8565b5b602002602001015181526020015f815250908060018154018082558091505060019003905f5260205f2090600202015f909190919091505f820151815f019081620000b191906200060c565b506020820151816001015550508080620000cb906200071d565b91505062000038565b505062000769565b5f604051905090565b5f80fd5b5f80fd5b5f80fd5b5f601f19601f8301169050919050565b7f4e487b71000000000000000000000000000000000000000000000000000000005f52604160045260245ffd5b6200013982620000f1565b810181811067ffffffffffffffff821117156200015b576200015a62000101565b5b80604052505050565b5f6200016f620000dc565b90506200017d82826200012e565b919050565b5f67ffffffffffffffff8211156200019f576200019e62000101565b5b602082029050602081019050919050565b5f80fd5b5f80fd5b5f67ffffffffffffffff821115620001d557620001d462000101565b5b620001e082620000f1565b9050602081019050919050565b5f5b838110156200020c578082015181840152602081019050620001ef565b5f8484015250505050565b5f6200022d6200022784620001b8565b62000164565b9050828152602081018484840111156200024c576200024b620001b4565b5b62000259848285620001ed565b509392505050565b5f82601f830112620002785762000277620000ed565b5b81516200028a84826020860162000217565b91505092915050565b5f620002a9620002a38462000182565b62000164565b90508083825260208201905060208402830185811115620002cf57620002ce620001b0565b5b835b818110156200031d57805167ffffffffffffffff811115620002f857620002f7620000ed565b5b80860162000307898262000261565b85526020850194505050602081019050620002d1565b5050509392505050565b5f82601f8301126200033e576200033d620000ed565b5b81516200035084826020860162000293565b91505092915050565b5f60208284031215620003715762000370620000e5565b5b5f82015167ffffffffffffffff811115620003915762000390620000e9565b5b6200039f8482850162000327565b91505092915050565b7f4e487b71000000000000000000000000000000000000000000000000000000005f52603260045260245ffd5b5f81519050919050565b7f4e487b71000000000000000000000000000000000000000000000000000000005f52602260045260245ffd5b5f60028204905060018216806200042457607f821691505b6020821081036200043a5762000439620003df565b5b50919050565b5f819050815f5260205f209050919050565b5f6020601f8301049050919050565b5f82821b905092915050565b5f600883026200049e7fffffffffffffffffffffffffffffffffffffffffffffffffffffffffffffffff8262000461565b620004aa868362000461565b95508019841693508086168417925050509392505050565b5f819050919050565b5f819050919050565b5f620004f4620004ee620004e884620004c2565b620004cb565b620004c2565b9050919050565b5f819050919050565b6200050f83620004d4565b620005276200051e82620004fb565b8484546200046d565b825550505050565b5f90565b6200053d6200052f565b6200054a81848462000504565b505050565b5b818110156200057157620005655f8262000533565b60018101905062000550565b5050565b601f821115620005c0576200058a8162000440565b620005958462000452565b81016020851015620005a5578190505b620005bd620005b48562000452565b8301826200054f565b50505b505050565b5f82821c905092915050565b5f620005e25f1984600802620005c5565b1980831691505092915050565b5f620005fc8383620005d1565b9150826002028217905092915050565b6200061782620003d5565b67ffffffffffffffff81111562000633576200063262000101565b5b6200063f82546200040c565b6200064c82828562000575565b5f60209050601f83116001811462000682575f84156200066d578287015190505b620006798582620005ef565b865550620006e8565b601f198416620006928662000440565b5f5b82811015620006bb5784890151825560018201915060208501945060208101905062000694565b86831015620006db5784890151620006d7601f891682620005d1565b8355505b6001600288020188555050505b505050505050565b7f4e487b71000000000000000000000000000000000000000000000000000000005f52601160045260245ffd5b5f6200072982620004c2565b91507fffffffffffffffffffffffffffffffffffffffffffffffffffffffffffffffff82036200075e576200075d620006f0565b5b600182019050919050565b610a5980620007775f395ff3fe608060405234801561000f575f80fd5b5060043610610055575f3560e01c8063013cf08b1461005957806337d1d3891461008a57806362564c48146100ba57806386cb363a146100d8578063a3ec138d146100f4575b5f80fd5b610073600480360381019061006e9190610533565b610124565b6040516100819291906105f7565b60405180910390f35b6100a4600480360381019061009f9190610533565b6101d9565b6040516100b19190610625565b60405180910390f35b6100c26102d2565b6040516100cf9190610791565b60405180910390f35b6100f260048036038101906100ed9190610533565b6103c7565b005b61010e6004803603810190610109919061080b565b6104e0565b60405161011b9190610850565b60405180910390f35b60018181548110610133575f80fd5b905f5260205f2090600202015f91509050805f01805461015290610896565b80601f016020809104026020016040519081016040528092919081815260200182805461017e90610896565b80156101c95780601f106101a0576101008083540402835291602001916101c9565b820191905f5260205f20905b8154815290600101906020018083116101ac57829003601f168201915b5050505050908060010154905082565b60606001805490508210610222576040517f08c379a000000000000000000000000000000000000000000000000000000000815260040161021990610910565b60405180910390fd5b600182815481106102365761023561092e565b5b905f5260205f2090600202015f01805461024f90610896565b80601f016020809104026020016040519081016040528092919081815260200182805461027b90610896565b80156102c65780601f1061029d576101008083540402835291602001916102c6565b820191905f5260205f20905b8154815290600101906020018083116102a957829003601f168201915b50505050509050919050565b60606001805480602002602001604051908101604052809291908181526020015f905b828210156103be578382905f5260205f2090600202016040518060400160405290815f8201805461032590610896565b80601f016020809104026020016040519081016040528092919081815260200182805461035190610896565b801561039c5780601f106103735761010080835404028352916020019161039c565b820191905f5260205f20905b81548152906001019060200180831161037f57829003601f168201915b50505050508152602001600182015481525050815260200190600101906102f5565b50505050905090565b5f803373ffffffffffffffffffffffffffffffffffffffff1673ffffffffffffffffffffffffffffffffffffffff1681526020019081526020015f205f9054906101000a900460ff1615610450576040517f08c379a0000000000000000000000000000000000000000000000000000000008152600401610447906109a5565b60405180910390fd5b60015f803373ffffffffffffffffffffffffffffffffffffffff1673ffffffffffffffffffffffffffffffffffffffff1681526020019081526020015f205f6101000a81548160ff02191690831515021790555060018082815481106104b9576104b861092e565b5b905f5260205f2090600202016001015f8282546104d691906109f0565b9250508190555050565b5f602052805f5260405f205f915054906101000a900460ff1681565b5f80fd5b5f819050919050565b61051281610500565b811461051c575f80fd5b50565b5f8135905061052d81610509565b92915050565b5f60208284031215610548576105476104fc565b5b5f6105558482850161051f565b91505092915050565b5f81519050919050565b5f82825260208201905092915050565b5f5b8381101561059557808201518184015260208101905061057a565b5f8484015250505050565b5f601f19601f8301169050919050565b5f6105ba8261055e565b6105c48185610568565b93506105d4818560208601610578565b6105dd816105a0565b840191505092915050565b6105f181610500565b82525050565b5f6040820190508181035f83015261060f81856105b0565b905061061e60208301846105e8565b9392505050565b5f6020820190508181035f83015261063d81846105b0565b905092915050565b5f81519050919050565b5f82825260208201905092915050565b5f819050602082019050919050565b5f82825260208201905092915050565b5f6106888261055e565b610692818561066e565b93506106a2818560208601610578565b6106ab816105a0565b840191505092915050565b6106bf81610500565b82525050565b5f604083015f8301518482035f8601526106df828261067e565b91505060208301516106f460208601826106b6565b508091505092915050565b5f61070a83836106c5565b905092915050565b5f602082019050919050565b5f61072882610645565b610732818561064f565b9350836020820285016107448561065f565b805f5b8581101561077f578484038952815161076085826106ff565b945061076b83610712565b925060208a01995050600181019050610747565b50829750879550505050505092915050565b5f6020820190508181035f8301526107a9818461071e565b905092915050565b5f73ffffffffffffffffffffffffffffffffffffffff82169050919050565b5f6107da826107b1565b9050919050565b6107ea816107d0565b81146107f4575f80fd5b50565b5f81359050610805816107e1565b92915050565b5f602082840312156108205761081f6104fc565b5b5f61082d848285016107f7565b91505092915050565b5f8115159050919050565b61084a81610836565b82525050565b5f6020820190506108635f830184610841565b92915050565b7f4e487b71000000000000000000000000000000000000000000000000000000005f52602260045260245ffd5b5f60028204905060018216806108ad57607f821691505b6020821081036108c0576108bf610869565b5b50919050565b7f496e646578206f7574206f6620626f756e6473000000000000000000000000005f82015250565b5f6108fa601383610568565b9150610905826108c6565b602082019050919050565b5f6020820190508181035f830152610927816108ee565b9050919050565b7f4e487b71000000000000000000000000000000000000000000000000000000005f52603260045260245ffd5b7f596f75206861766520616c726561647920766f7465642e0000000000000000005f82015250565b5f61098f601783610568565b915061099a8261095b565b602082019050919050565b5f6020820190508181035f8301526109bc81610983565b9050919050565b7f4e487b71000000000000000000000000000000000000000000000000000000005f52601160045260245ffd5b5f6109fa82610500565b9150610a0583610500565b9250828201905080821115610a1d57610a1c6109c3565b5b9291505056fea26469706673582212209537983817318ab1bc6e7fab90397c5c9feee670ed7388d10240acf48112084c64736f6c63430008140033",
  "immutableReferences": {},
  "source": "// SPDX-License-Identifier: MIT\npragma solidity >=0.8.0 <0.9.0;\n\ncontract Vote {\n    struct Proposal {\n        string name;\n        uint voteCount;\n    }\n\n    mapping(address => bool) public voters;\n    Proposal[] public proposals;\n\n    constructor(string[] memory proposalNames) {\n        for (uint i = 0; i < proposalNames.length; i++) {\n            proposals.push(Proposal({name: proposalNames[i], voteCount: 0}));\n        }\n    }\n\n    function AddVote(uint256 proposal) public {\n        require(!voters[msg.sender], \"You have already voted.\");\n        voters[msg.sender] = true;\n        proposals[proposal].voteCount += 1;\n    }\n\n    function getProposalByIndex(uint index) public view returns (string memory) {\n        require(index < proposals.length, \"Index out of bounds\");\n        return proposals[index].name;\n    }\n\n    function getProposals() public view returns (Proposal[] memory) {\n        return proposals;\n    }\n}\n",
  "sourcePath": "C:\\Workspace\\Practice\\Blockchain-Projects-main\\blockchain\\Truffle\\contracts\\VotingSystem\\Vote.sol",
  "compiler": {
    "name": "solc",
    "version": "0.8.20+commit.a1b79de6.Emscripten.clang"
  },
  "schemaVersion": "3.4.16",
  "updatedAt": "2024-09-06T07:58:50.496Z",
  "devdoc": {
    "kind": "dev",
    "methods": {},
    "version": 1
  },
  "userdoc": {
    "kind": "user",
    "methods": {},
    "version": 1
  }
}